:020000040800F2
:10000000B06F0220C1010008951500086B140008AC
:10001000931500086F070008A91A000800000000E7
:100020000000000000000000000000000D160008A5
:100030002D08000800000000B71500080F16000882
:10004000DB010008DB010008DB010008DB01000820
:10005000DB010008DB010008DB010008DB01000810
:10006000DB010008DB010008DB010008DB01000800
:10007000DB010008DB010008DB010008DB010008F0
:10008000DB010008DB010008DB010008DB010008E0
:10009000DB010008DB010008DB010008DB010008D0
:1000A000DB010008DB010008DB010008DB010008C0
:1000B000DB010008DB010008DB010008DB010008B0
:1000C000DB010008DB010008DB010008DB010008A0
:1000D000DB010008DB010008DB010008DB01000890
:1000E000DB010008DB010008DB010008DB01000880
:1000F000DB010008DB010008DB010008DB01000870
:10010000DB010008DB010008DB010008DB0100085F
:10011000DB010008DB010008DB010008DB0100084F
:10012000DB010008DB010008DB010008DB0100083F
:10013000DB010008DB010008DB010008DB0100082F
:10014000DB010008DB010008DB010008DB0100081F
:10015000DB010008DB010008DB010008DB0100080F
:10016000DB010008DB010008DB010008DB010008FF
:10017000DB010008DB010008DB01000800000000D3
:10018000DB010008DB010008DB010008DB010008DF
:10019000DB010008DB010008DB010008DB010008CF
:1001A000DB010008DB010008DB010008DFF80CD0F0
:1001B00000F05CFA00480047B9230008B06F022045
:1001C0000648804706480047FEE7FEE7FEE7FEE7F1
:1001D000FEE7FEE7FEE7FEE7FEE7FEE7C5160008DE
:1001E000AD0100082DE9F05F0546002092469B46D0
:1001F00088460646814640241BE02846414647463D
:10020000224600F06AF853465A46C01A914110D36C
:1002100011461846224600F051F82D1A67EB0108E6
:100220004F4622460120002100F048F817EB000954
:100230004E41201EA4F10104DFDC484631462A4627
:100240004346BDE8F09F40EA01039B0703D009E065
:1002500008C9121F08C0042AFAD203E011F8013BB2
:1002600000F8013B521EF9D2704700F0004230F016
:1002700000400AD0C10D01F56071C0F3160042EADA
:100280000151C208400711437047002001467047E2
:1002900030B50B46014600202022012409E021FA56
:1002A00002F59D4205D303FA02F5491B04FA02F553
:1002B0002844151EA2F10102F1DC30BD202A04DB26
:1002C000203A00FA02F1002070479140C2F1200369
:1002D00020FA03F3194390407047202A04DB203AA8
:1002E00021FA02F00021704721FA02F3D040C2F156
:1002F000200291400843194670472DE9FE4F804681
:1003000081EA0300C00F0C46009021F0004123F069
:100310000045B8EB0200A94105D24046214690466F
:100320001C460B46024623F00040104347D0270DE1
:10033000C7F30A00C3F30A510290401A0190402803
:100340006BDAC3F3130040F4801B0098924620B18F
:100350000023D2EB030A63EB0B0B01985946C0F163
:1003600040025046FFF7AAFF06460D465046594642
:10037000019A00F08DF910EB08006141002487EA32
:10038000115284EAE7731A4340D0009A62B3019A8B
:10039000012A4FEA075215DC001B61EB02014FF006
:1003A000004202EA0752CDE90042001C41F58011EB
:1003B00032462B4600F08DF903B0BDE8F08F404681
:1003C0002146F9E7001B61EB0201001C41F5801397
:1003D00000185B412018A2F5001747EB030140EA23
:1003E000D570B6196D4111E06D084FEA360645EA41
:1003F000C0754FEA0752001B61EB0201001C41F57A
:10040000801149084FEA30000019514132462B460D
:1004100003B0BDE8F04F00F04DB900980122400054
:100420000023D0EB020263EBE073009821464FEA11
:10043000E074B8EB000061EB0401E9E783F00043EE
:100440005BE781F0004158E72DE9FE4F81EA0304A4
:1004500004F0004421F0004100944FF0000B23F021
:10046000004350EA01045ED052EA03045BD0C3F3B8
:100470000A54C1F30A552C44A4F2F3340194A0FBAE
:100480000254C1F3130141F48011C3F3130343F485
:10049000801301FB024400FB034E840A970A44EADE
:1004A000815447EA8357A4FB076802958D0A05FB30
:1004B00007854FEA932C04FB0C542705029D4FEA55
:1004C000065847EA1637B5EB08056EEB070C870EA2
:1004D000920E47EA811742EA8312A7FB0201B6EBAC
:1004E0000B0164EB00042B0D43EA0C335E1844EB64
:1004F0001C50DA465146E7FB0201C5F313044FEAEC
:100500000B3343EA14534FEA0432019C43EA0603D7
:10051000A4F10C040294009CCDE900B400F0D9F8D9
:1005200003B0BDE8F08F00200146F9E72DE9F04D5A
:1005300081EA030404F0004B21F0004514464FF01B
:10054000000A23F0004150EA050220D054EA0102DB
:100550001DD0C5F30A570246C5F31303C1F31300B8
:10056000C1F30A5640F4801543F48013A7EB060844
:10057000101BD64608F2FD3873EB050002D308F1D4
:10058000010801E092185B41B8F1000F03DA002086
:100590000146BDE8F08D00204FF4801106468446E8
:1005A0000EE0171B73EB050705D3121B63EB050366
:1005B00006434CEA010C49084FEA300092185B41AF
:1005C00050EA0107EDD152EA030012D082EA04009A
:1005D00083EA0501084305D0101BAB4106D2012276
:1005E000002306E000224FF0004302E06FF001021A
:1005F00053101AEB06004CEB085110EB0A0041EBCC
:100600000B01BDE8F04D00F055B8C1F30A52C1F33B
:10061000130140F2FF3341F480119A4202DA0020C4
:100620000146704740F233439A42A2F2334202DC61
:100630005242FFF752BEFFF741BE000030B5041E24
:1006400071F1000404DB4FF00044404264EB01010F
:10065000141E73F1000405DB1C464FF000435242A8
:1006600063EB0403994208BF904230BD064C074D2E
:1006700006E0E06840F0010394E807009847103472
:10068000AC42F6D3FFF796FD402B0008602B000824
:10069000202A06DBCB17203A41FA02F043EAE07346
:1006A00006E041FA02F3D040C2F120029140084333
:1006B0001946704710B5141E73F1000408DA401C87
:1006C00041F1000192185B411A4301D120F0010071
:1006D00010BD2DE9F04D92469B4611B1B1FA81F261
:1006E00002E0B0FA80F220329046FFF7E7FD0446C0
:1006F0000F4640EA0A0041EA0B0153465A460843B6
:1007000013D0114653EA010019D0C8F140025046F7
:10071000FFF7E3FD05460E46504659464246FFF7B1
:10072000CDFD084305D0012004E020463946BDE850
:10073000F08D0020054346EAE0762C4337430A98C3
:100740006305E40AA0EB08000022FD0A44EA4754CE
:100750000A3002D500200146E9E701051019694178
:10076000DDE9084500196941BDE8F04DA2E7FEE763
:1007700008B57C2803D8BDE8084000F00DB804494E
:10078000044B00918422C91A00F0ACFE08BD0000A1
:10079000D86A0220C06A02002DE9F843DFF87C80A5
:1007A0001F4E204FD8F800108146002579B98422C9
:1007B0003B46F11B1046009600F094FEC8F800007E
:1007C000002827D0C5670146C0F880501AE001F123
:1007D000800000900C467C230422484600F082FEF4
:1007E000002817D1E16F0029F1D184223B460E4940
:1007F0001046009600F076FE01000DD0CD67C1F8DE
:100800008050E16701F1800000907C23042248467B
:1008100000F068FEBDE8F8830020FBE70000002040
:10082000D86A0220C06A0200180000207047000049
:100830002DE9F8431D4EDFF87880DFF878903468B2
:100840002546A04226D304F17C01884222D8091D06
:1008500000917C230422214600F030F8070016D1D5
:10086000D4F8800098B93068844203D1E06F3060DA
:1008700005E00546E86FA042FBD1E06FE8674B4614
:1008800084220D492046CDF8008000F017F8384644
:10089000BDE8F883E46F002CD3D14B46842206498F
:1008A000CDF8008000F00AF8F2E700000000002018
:1008B000D86A0220C06A020018000020F0B5059F27
:1008C00028B3411AB1FBF2F0B1FBF2F1C00801F01C
:1008D0000701802607E0A543491CC9B23D540829F9
:1008E00001D30021401C26FA01F43D5C254206D0CC
:1008F000B3FBF2FC0CF1070CB0EBDC0FEBD3B3FB5A
:10090000F2F1C91DB0EBD10F01D20020F0BD0120E2
:10091000F0BDD0E900104843704700002DE9F041D8
:100920001E461746884605460024DFED0C0A0EE0F9
:1009300022463946284600F013F8B0EE401A3246F7
:100940002146404600F00CF841EE000A641C68683D
:10095000A042EDD8B0EE600ABDE8F08100000000D2
:1009600003688B420AD94368934207D94B4300EB93
:10097000830000EB820090ED020A7047BFEE000A90
:10098000704703688B4209D94368934206D94B43A9
:1009900000EB830000EB8200083070474FF0FF301F
:1009A00070472DE9F0470F460446C1681E46914640
:1009B000089D384688478046A269314638469047A8
:1009C000A26A07462946904705460146A269404665
:1009D000904799ED000AE26A0646B8EE400A032104
:1009E0009047E26A0221B0EE000A30469047404646
:1009F000FFF71EFF3846FFF71BFF2846FFF718FFDB
:100A00003046BDE8F08700002DE9F84FDFF890B1DF
:100A100000224FF001084FF0030A4FF00F090BF1CD
:100A2000040E00BF0B6808FA02F42340A3426ED103
:100A30004D68022D01D0122D0ED1D50800EB850C8A
:100A4000DCF820505607F70E09FA07F6B5430E6991
:100A5000BE402E43CCF82060066855000F790AFA94
:100A600005FC07F0030726EA0C06AF403743076092
:100A70004E68012E05D0022E03D0112E01D0122E69
:100A80000ED18768CE6827EA0C07AE403E438660E9
:100A90004668A6430C79C4F3001494403443446080
:100AA000C4688E6824EA0C04AE402643C6604C68D5
:100AB000E4006FD53B4C256845F4804525602468EB
:100AC00022F0030504F480440094374C2E19D6F824
:100AD000084895072F0F09FA07F5AC43334DA84294
:100AE00001D100252EE0324DA84201D1012529E097
:100AF000304DA84201D1022524E02F4DA84201D15A
:100B000003251FE02D4DA84202D104251AE041E043
:100B10002B4DA84201D1052514E02A4DA84201D150
:100B200006250FE0284DA84201D107250AE0274DF0
:100B3000A84201D1082505E0254DA84201D109258B
:100B400000E00A25BD402543C6F80858DBF8004000
:100B50005D464E689C43F60300D51C432C60DEF8CE
:100B6000004075464E689C43B60300D51C432C607C
:100B70000B4D08352C684E689C43F60200D51C438B
:100B80002C60074D0C352C684E689C43B60200D58E
:100B90001C432C60521C102AFFF444AFBDE8F88FB0
:100BA000003C014044380240003001400000024057
:100BB0000004024000080240000C02400010024005
:100BC0000014024000180240001C024000200240B5
:100BD00000240240014880687047000004000020A3
:100BE0000248816802781144816070470400002047
:100BF0000B4810B5016841F400710160016841F4CF
:100C000080610160016841F480710160032000F09F
:100C10008BF8002000F006F800F024F8002010BD4A
:100C2000003C024070B50D4D04464FF47A712878AF
:100C3000B1FBF0F00A490968B1FBF0F000F049FBA4
:100C400048B9102C07D200222146501E00F04CF863
:100C500000206C6070BD012070BD00000400002009
:100C6000100000201F4808B5016841F48041016070
:100C7000006800F4804000901A48001F016841F0AD
:100C800080510160006800F080500090032000F067
:100C90004BF8002211466FF00B0000F025F80022FF
:100CA00011466FF00A0000F01FF8002211466FF0A5
:100CB000090000F019F800221146501F00F014F846
:100CC00000221146101F00F00FF800221146901E5E
:100CD00000F00AF80022BDE808401146501E00F05E
:100CE00003B8000044380240F0B40E4B1B680C46B9
:100CF000C3F30223C3F10705042D00D90425191DF0
:100D0000072901D2002300E0DB1E012606FA05F1C7
:100D1000491E214099409E40761E16403143F0BC4A
:100D200000F039BC0CED00E0064900F0070208684D
:100D30004FF6FF03184040EA0220034A10430860C0
:100D4000704700000CED00E00000FA052DE9F843C3
:100D50001748016841F0805101600068154F00F0AC
:100D60008050012600903E64FFF734FF05464FF4A3
:100D70007A78114C05E000BFFFF72CFF401B40457F
:100D80000DD86068C003F7D57E64FFF723FF0546E2
:100D9000464607E0FFF71EFF401BB04202D9032082
:100DA000BDE8F88360688003F4D50020F8E7000010
:100DB0004038024000000E42007000402DE9F0472C
:100DC0000E46050065D0DFF81481D8F80000F7B2B0
:100DD00000F00F00B04207D288F80070D8F8000089
:100DE00000F00F00B04254D128683D4C810712D565
:100DF000400703D5206840F4E050206028780007C1
:100E000003D5206840F4604020602068A96820F085
:100E1000F000084320602878C0072DD0304968686A
:100E20000839012812D0022813D0032811D00968EC
:100E3000890700292DDA216821F00301014321608F
:100E4000FFF7C8FE814641F2883A0EE0096889033F
:100E5000EFE709688901ECE7FFF7BCFEA0EB0901A9
:100E6000514502D90320BDE8F0872068696800F089
:100E70000C00B0EB810FEFD1D8F80010404601F024
:100E80000F01B14207D90770006800F00F00B042AF
:100E900001D00120E7E72878400705D52068E968F8
:100EA00020F4E050084320602878000706D5206829
:100EB000296920F4604040EAC100206000F03CF85D
:100EC0002168084AC1F30311515CC8400649086013
:100ED0000020FFF7A7FE0020C5E70000003C02400D
:100EE00008380240282B0008100000200148006844
:100EF0007047000010000020044805490068096898
:100F0000044AC1F38221515CC840704710000020A0
:100F100008380240382B0008044805490068096871
:100F2000044AC1F34231515CC840704710000020B0
:100F300008380240382B0008154810B5006810F03A
:100F40000C02144813D01449042A0FD0082A0ED1D9
:100F50000F4C241F2268236802F03F025B0207D572
:100F60002068C0F38810A0FB010106E0084610BD10
:100F70002168C1F38811A1FB00010023FFF732F9BA
:100F80002168C1F30141491C4900B0FBF1F010BDDB
:100F9000083802400024F40040787D012DE9F84F24
:100FA000050076D02878DFF8F8B2BE4CC00749D0EB
:100FB000DBF800105846C1F38101012908D0006810
:100FC000C0F3810002280AD1201D0068400206D526
:100FD0002068800336D568680028E2D032E068686F
:100FE000B0F5803F10D0B0F5A02F206810D020F4CD
:100FF00080302060206820F4802020606868A0B1E4
:10100000FFF7E8FD06460CE0206840F48030F4E786
:1010100040F480202060F7E7FFF7DCFD801B6428A8
:1010200073D820688003F7D50CE0FFF7D3FD0646A0
:1010300005E000BFFFF7CEFD801B6428F0D82068D4
:101040008003F7D42878DFF8608280074FF000092A
:101050003ED5DBF80010584611F00C0F09D000689F
:10106000C0F3810002280BD18D48001F00684002A8
:1010700006D42068800715D5E868012809D111E059
:10108000E868B8B10120C8F80000FFF7A3FD0646E4
:1010900005E002E1FFF79EFD801B0228C0D8206812
:1010A0008007F7D52068296920F0F80040EAC100E0
:1010B00020600DE0C8F80090FFF78CFD064604E0C4
:1010C000FFF788FD801B02281FD820688007F7D40F
:1010D0002878000722D5724E744869696C3671B160
:1010E00001210160FFF776FD074604E0FFF772FD7E
:1010F000C01B022809D830688007F7D50EE0C0F879
:101100000090FFF767FD074605E083E0FFF762FD0B
:10111000C01B02287ED830688007F7D428784007A3
:1011200068D5DFF87CA100270AF1380ADAF8000058
:10113000C0000BD4DAF8001041F08051CAF800105A
:10114000DAF80000012700F080500090584E306817
:10115000C00510D4306840F480703060FFF73AFD6D
:10116000009005E0FFF736FD0099401A022851D89B
:101170003068C005F6D54A4EA868683601280FD0F9
:101180000528306810D020F001003060306820F071
:1011900004003060A868B8B1FFF71CFD00900FE0B4
:1011A000306840F00100F4E740F004003060F7E7F9
:1011B000FFF710FD0099411A41F28830814264D84E
:1011C00030688007F4D50EE0FFF704FD009007E0DB
:1011D000FFF700FD0099411A41F28830814254D84E
:1011E00030688007F4D42FB1DAF8001021F0805174
:1011F000CAF80010A869C0B3DBF80010C1F3810180
:1012000002294AD00228484607D0C8F86000FFF7F4
:10121000E1FC00E039E005463AE04746C8F86000E6
:10122000FFF7D8FC064604E0FFF7D4FC801B022839
:101230002BD820688001F7D4D5E907010843A96AB3
:101240001C4A490802EB01416A6A41EA82110843DB
:1012500095F82C1040EA01611148001F016001203F
:101260003866FFF7B7FC054605E014E0FFF7B2FC6F
:10127000401B022809D820688001F7D50BE000BF89
:10128000FFF7A8FC401B022802D90320BDE8F88F15
:1012900020688001F4D40020F8E70120F6E7000080
:1012A000083802400038024000004742800E4742A2
:1012B000007000400000FFFF4FF0E02104280869A3
:1012C00003D020F004000861704740F00400FAE702
:1012D000704710B5401EB0F1807F01D3012010BDD2
:1012E0004FF0E02460610F21601700F054F90020F6
:1012F000A06107202061002010BD10B5FFF7E8FFB6
:1013000010BD70B5040004D094F83900002510B168
:1013100006E0012070BD84F83850204600F022F825
:10132000242084F839002068C16821F40051C1608C
:10133000204600F031FA2068016921F490410161F2
:101340002068416921F02A0141612068C16841F4A7
:101350000051C160E563202084F8390084F83A0028
:10136000002070BD00B500680E4987B0884217D1D3
:101370000D48016841F0100101600068694600F005
:10138000100005904FF4C0600090022001900120F1
:10139000029003200390072004900448FFF734FBD9
:1013A00007B000BD00100140443802400000024078
:1013B0002DE9F843044690F839001F4616460D46BD
:1013C000202850D1A5B19EB194F8380001284AD008
:1013D000012084F838004FF00008C4F83C80212038
:1013E00084F83900FFF7F6FBA6848146E68426E000
:1013F0000120BDE8F883E08C401EE084A0684B46E5
:10140000B0F5805F4FF000024FF08001204600975A
:1014100003D000F017FBE8B90DE000F013FBC8B9EA
:1014200028882168C0F308004860206908B16D1C55
:1014300005E0AD1C03E0216815F8010B4860E08C65
:101440000028D8D14B46002240212046009700F0CA
:10145000F9FA08B10320CCE7202084F8390084F899
:1014600038800020C5E70220C3E7FEE7094808B539
:10147000016841F080010160016801F08001009184
:10148000016841F001010160006800F00100009076
:1014900008BD0000303802400D4810B50B4901600E
:1014A0004FF4E1314160002181600C22C160C0E94C
:1014B00004128161C161FFF724FF002805D0BDE857
:1014C0001040422103A000F0F0BA10BD001001400E
:1014D000706B02202E2E2F5372632F7573617274FE
:1014E0002E6300002DE9FF4F9946B0FBF2F3002672
:1014F00002FB1303002BB0FBF2F3DDF804E0DDF890
:1015000034B035463446314602D0DB1C002719E0A2
:101510009B1CFBE71BF805A0002000BF4FF08008D4
:1015200028FA00F81AEA080F01D19EB119E0002646
:10153000B9FBF2FC7F1CBC4508D0401CC0B2082897
:10154000ECD36D1CB9FBF2F0B842E3D8002004B034
:10155000BDE8F08F019900EBC50404FB021E2C4688
:101560000146761C9E42E3D18020022B0ED0491CFE
:10157000C9B2082901D10021641C20FA01F61BF828
:10158000045035430BF804505B1EEEE70EEB0200EF
:10159000DDE7FEE770470907090E002806DA00F0CC
:1015A0000F0000F1E02080F8141D704700F1E020EA
:1015B00080F800147047704770B5064600251BE0A0
:1015C0000FA000F073FA00240FE0684306EB8000E0
:1015D00000EB84008068FEF748FE41EC100B09A088
:1015E00053EC102B00F062FA641C7068A042ECD837
:1015F00005A000F05BFA6D1C3068A842E0D870BD11
:101600005B000000256609005D0D0A00704710B5FB
:10161000FFF7E6FABDE81040FFF76FBE30B5274888
:1016200093B00025016841F080510160006800F02E
:10163000805011902248016841F4404101600068E7
:10164000022400F4404011900120039010200490E7
:10165000009406940820CDE90750B420CDE9090490
:1016600004200B906846FFF799FC00B1FEE7FFF7F6
:101670006DFB00B1FEE70CA90F2081E831004FF4AB
:10168000A0500F904FF48050109005210CA8FFF748
:1016900095FB00B1FEE7FFF729FC4FF47A71B0FB30
:1016A000F1F0FFF716FE0420FFF706FE00221146B8
:1016B000501EFFF719FB13B030BD00004038024048
:1016C000007000401048016841F4700101600F484B
:1016D000016841F0010101600C4A002108321160EB
:1016E00002680B4B1A400260031D0A4A1A60026826
:1016F00022F48022026005480C300160024958063D
:10170000803908607047000088ED00E00038024032
:10171000FFFFF6FE103000242DE9F04F99462DED25
:10172000028B81B0B0EE408ADDE90C8792468B4691
:101730000546002416E04B46524659462846CDF849
:101740000080FFF72EF9EA6A06460221B0EE480A49
:1017500090472B6B01223146484698473046FFF7A9
:1017600067F8641CBC42E6D305A000F09FF9A968A5
:1017700001B04846BDEC028BBDE8F04F08470000C1
:101780002D2D2D2D2D7765696768742D2D2D2D2D0F
:101790002D2D2D2D0D0A00002DE9F0410446006885
:1017A000016921F44052E168114301612168C86870
:1017B00049F20C6290432369A268E5691A436369A0
:1017C0002B431A430243CA602168486920F44072DF
:1017D000A06910434861E1696425B1F5004F97485D
:1017E000974A21684FF032083FD0914201D08142A0
:1017F0007CD1FFF791FB00EBC00101EB00106168A9
:101800008900B0FBF1F6FFF787FB00EBC00101EBAD
:10181000001061688900B0FBF1F0B0FBF5F06FF0EB
:101820001801484306EB800108EB0110B0FBF5F00E
:1018300000F0F006FFF770FB00EBC00101EB0010B9
:1018400061688900B0FBF1F0B0FBF5F006EB001623
:10185000FFF762FB00EBC00101EB0010616889003B
:10186000B0FBF1F7FFF758FBD2E0914201D0814283
:101870003DD1FFF751FB00EBC00101EB00106168A7
:101880004900B0FBF1F0B0FBF5F00601FFF744FBB7
:1018900000EBC00101EB001061684900B0FBF1F7FB
:1018A000FFF73AFB00EBC00101EB00106168490053
:1018B000B0FBF1F0B0FBF5F06FF01801484307EB17
:1018C000800108EBC100B0FBF5F000F0F80006EB7A
:1018D0004006FFF721FB00EBC00101EB001061683F
:1018E0004900B0FBF1F7FFF717FB3CE055E0FFF7CD
:1018F00003FB00EBC00101EB001061684900B0FB85
:10190000F1F0B0FBF5F00601FFF7F6FA00EBC001CD
:1019100001EB001061684900B0FBF1F7FFF7ECFA4A
:1019200000EBC00101EB001061684900B0FBF1F071
:10193000B0FBF5F06FF01801484307EB800108EBAE
:10194000C100B0FBF5F000F0F80006EB4006FFF731
:10195000D3FA00EBC00101EB001061684900B0FB55
:10196000F1F7FFF7C9FA00EBC00101EB0010616865
:101970004900B0FBF1F0B0FBF5F06FF018014843FF
:1019800007EB800108EBC100B0FBF5F000F00700A9
:10199000216830448860BDE8F081FFF7ADFA00EBC4
:1019A000C00101EB001061688900B0FBF1F6FFF7A0
:1019B000A3FA00EBC00101EB001061688900B0FBE5
:1019C000F1F0B0FBF5F06FF01801484306EB800131
:1019D00008EB0110B0FBF5F000F0F006FFF78CFA11
:1019E00000EBC00101EB001061688900B0FBF1F071
:1019F000B0FBF5F006EB0016FFF77EFA00EBC00136
:101A000001EB001061688900B0FBF1F7FFF774FA91
:101A100000EBC00101EB001061688900B0FBF1F040
:101A2000B0FBF5F06FF01801484307EB800108EBBD
:101A30000110B0FBF5F000F00F00A9E70014014021
:101A4000001001402DE9F041984617460E46044625
:101A5000069D1DE0681C1BD02DB1FFF7BBF8A0EB65
:101A60000800A84214D92068C16821F4D071C1606F
:101A70002068416921F001014161202084F839008A
:101A800084F83A00002084F838000320BDE8F08193
:101A90002068006836EA000004D00020B842D9D09F
:101AA0000020F3E70120F9E7FEE7FEE70FB4054B5E
:101AB00010B503A9044A029800F0DAF810BC5DF8EA
:101AC00014FB0000A12300081400002002E008C855
:101AD000121F08C1002AFAD170477047002001E0A8
:101AE00001C1121F002AFBD1704700002DE9FF5FE2
:101AF00082B00021DDE90430020DDDF840B003437F
:101B000018D044F61050A2F2FF3242431514119837
:101B100001281FD0A5EB0B00401C5FEA000A4FF024
:101B200000064E4FDFF83891B046504615D5CAF141
:101B3000000413E0119801244AA3012801D16FEA9F
:101B40000B010298119AC0E90031C0E9024206B0C7
:101B5000BDE8F09FCBF10000DFE704460021404ADA
:101B6000491842EB0450CDE9001012E0E00707D01D
:101B700032463B4640464946FEF766FC804689466B
:101B800032463B4610461946FEF75EFC06460F46B7
:101B90006410002CEAD1DDE90401DDE90023BAF18B
:101BA000000F06DAFEF750FC42464B46FEF74CFCAF
:101BB00005E0FEF7BBFC42464B46FEF7B7FC044689
:101BC0000E460022284BFEF739FD03D84FF0FF30B8
:101BD000014607E00022254B20463146FEF78DFBEB
:101BE000FEF713FD102409E0002C0ADB0A22002373
:101BF000FEF7F8FA039B30321A55641E50EA0102D0
:101C0000F2D1641C039AC4F111031444119A012AFD
:101C100003D0012208430DD10AE0084304D000207C
:101C20004FF0110B119072E7A3EB0B056D1E0DE049
:101C30005B4504DD4FF0000205F1010504E003DA25
:101C40004FF00002A5F10105002AECD0029811998D
:101C5000C0E90231C0E9004579E700000000144006
:101C60000000F03F300000000000F0430000E03FC3
:101C70002DE9FF4F95B09B468946064600250FE2A9
:101C8000252877D100242746F84A0121059400E051
:101C9000044316F8013F203B01FA03F01042F7D14C
:101CA00030782A2811D06FF02F033078A0F130025D
:101CB000092A16D8059A44F0020402EB820203EBCB
:101CC00042021044761C0590EFE759F8042B059268
:101CD000002A03DA504244F40054059044F0020410
:101CE000761C30782E2816D116F8010F44F0040423
:101CF0002A280DD06FF02F023078A0F13003092B85
:101D000009D807EB870302EB4303C718761CF3E7F8
:101D100059F8047B761C30786C280FD006DC4C28F0
:101D200017D068280DD06A2814D104E0742810D088
:101D30007A280FD10DE044F400140AE044F4801432
:101D400001E044F440147278824202D104F5801418
:101D5000761C761C307866280BD013DC582877D098
:101D600009DC002875D04528F6D04628F4D047284D
:101D70001AD19DE118E0632835D0642879D0652810
:101D800012D195E1702873D008DC6728F1D069285A
:101D90006FD06E280DD06F2806D1B5E073282CD0F7
:101DA000752875D0782874D05A46179990476D1CBD
:101DB00075E1C4F30250022809D003280DD0D9F8E8
:101DC000001004280DD00D6009F1040967E1D9F86D
:101DD0000010EA17C1E90052F6E7D9F800100D80AB
:101DE000F2E70D70F0E719F8041B8DF800100020E1
:101DF0008DF80100EA46012003E059F804AB4FF0EA
:101E0000FF3061074FF0000102D40DE008F101013D
:101E10008846B9420FDA8045F8DB1AF80810002925
:101E2000F4D108E008F1010188468142FADB1AF892
:101E300008100029F6D105985B46A0EB080721465B
:101E40003846179A00F094FA284400EB080507E09A
:101E50004DE029E10DE01AF8010B5A461799904719
:101E6000B8F10108F7D25B4621463846179A13E1CC
:101E700042E00A220092C4F302524FF0000A022A02
:101E800008D059F804CB032A4FEAEC710AD00DE0D0
:101E900029E02AE009F1070121F00702F2E802C176
:101EA000914609E00FFA8CFC4FEAEC71042A03D149
:101EB0004FFA8CFC4FEAEC71002907DA0A46002140
:101EC000DCF1000C61EB02012D2202E0220504D5B9
:101ED0002B228DF80420012203E0E20701D020220A
:101EE000F7E7904659E00A2102E010220DE01021A8
:101EF0004FF0000A00910BE010224FF0000A44F06E
:101F000004040827009203E008224FF0000A009220
:101F1000C4F30252022A05D059F804CB0021032A47
:101F200008D009E009F1070121F00702F2E802C137
:101F3000914605E01FFA8CFC042A01D10CF0FF0C3D
:101F40004FF00008220728D5702806D0009B83F0A8
:101F5000100353EA0A0305D00EE040228DF8042056
:101F6000012208E05CEA010206D030228DF804204C
:101F70008DF8050002229046009B83F0080353EA87
:101F80000A030AD15CEA010201D1620705D53022B9
:101F90008DF804204FF001087F1E582804D034A08B
:101FA00003900EA802900DE036A0F9E75346604674
:101FB000009AFEF717F984460398825C0298401E47
:101FC000029002705CEA0100F0D1029806A9081A9A
:101FD00000F1200A600702D524F4803400E00127D4
:101FE000574502DDA7EB0A0000E0002000EB0A01E4
:101FF000009005984144401A0590E00306D45B46E2
:102000002146179A059800F0B3F90544002706E029
:1020100001A85A46C05D179990476D1C7F1C474523
:10202000F6DBE0030CD55B462146179A059800F0D5
:102030009FF9054404E030205A46179990476D1CDB
:102040000099481E00900029F5DC08E002980299EA
:102050005A460078491C0291179990476D1CBAF1B5
:102060000001AAF1010AF1DC65E100000928010084
:1020700030313233343536373839616263646566FE
:1020800000000000303132333435363738394142C0
:10209000434445460000000000F058F90544761C12
:1020A000307800287FF4ECAD19B02846BDE8F08FF9
:1020B000620700D4062709F1070222F0070CFCE8AA
:1020C0000223E14603F000485FEA080C02D00FF259
:1020D000702C0DE05FEA045C02D50FF2682C07E07B
:1020E0005FEAC47C02D00FF2602C01E0AFF2700C0A
:1020F0004FF0FF3823F00043CDF850C065280CD0D6
:1021000006DC452809D046281DD047283DD13DE0B2
:10211000662818D067287ED138E00021112F01DB16
:10212000112000E0781CCDE9000106A90EA8FFF7F8
:10213000DDFCDDE90F010E9A03910021009207F109
:10214000010A04914DE04FF000400097CDE90110E5
:1021500006A90EA8FFF7CAFCDDE90F0203920E9B49
:1021600011990022DDF80CA00093049211B9791C9A
:1021700000EB010AB7EB0A0004D4C0F1FF3007F10D
:10218000010A0490AAEB0700019044E0012F00DA55
:1021900001270021112F01DD112000E03846CDE993
:1021A000000106A90EA8FFF7A1FCDDE90F010E9AB8
:1021B0000391002104910092BA4621070CD403999F
:1021C000514500DA8A46BAF1010F05DD009AAAF1FD
:1021D0000101515C302908D0B84202DA10F1040F35
:1021E00006DA0121CDE9011015E0AAF10101E9E7C4
:1021F000002805DC049901440491AAEB000102E0E7
:10220000411C514500DD8A460499401A401C01904A
:102210004FF000400290200704D40198504501DBA4
:10222000CDF8048000208DF84F0002980DF14F0783
:10223000B0F1004F25D02B200E9002984FF00208ED
:1022400000280CDA404202902D200E9007E00A216F
:102250000298FEF71DF83031029007F8011DB8F121
:102260000001A8F10108F2DC02980028EFD1791EE4
:102270000E980870307800F0200040F0450007F814
:10228000020D12A8C01B00F107081498007800B1D5
:10229000012000EB0A01019801EBE071059841442F
:1022A000401A401E0590E00306D45B462146179A6B
:1022B000059800F05DF805441498007818B15A4666
:1022C000179990476D1CE00324D55B462146179A69
:1022D000059800F04DF805441CE00498002807DB41
:1022E000DDE90301884203DD0098405C179901E0B5
:1022F000179930205A469047049805F10105401C73
:1023000004900198401E019004D12E205A4617993E
:1023100090476D1CBAF10001AAF1010ADDDC05E06D
:1023200017F8010B5A46179990476D1CB8F1000138
:10233000A8F10108F4DC5B462146179A0598ABE644
:102340002D0000002B000000200000002DE9F041CE
:10235000044600251E461746880404D405E0394685
:102360002020B0476D1C641EF9D52846BDE8F081D9
:102370002DE9F041044600251E469046C80301D5CC
:10238000302700E02027880404D505E04146384680
:10239000B0476D1C641EF9D52846BDE8F0810000E9
:1023A00013B54FF6FF73012269460248FFF700F8A4
:1023B00000981CBD706B02202DED028B9EB0FEF7C5
:1023C00017FCFFF72BF9FFF751F8FFF765F820A08E
:1023D000FFF76CFB3022214902A8FDF734FF10A85B
:1023E00000F054FB0221109A06209047119A0746EC
:1023F00002A990470023189C1A4601213846A0479D
:1024000005460121149A0620904706460146179B6F
:1024100001222846984704463046FEF709FA012370
:10242000189E1A4619463846B04706460121149AA6
:102430009FED0B8A0220904703460A48B0EE480AF7
:10244000CDE900602A46214610A8FFF765F9FEE7AE
:1024500073746172743A0D0A00000000F82A0008D3
:10246000ACC5273740420F00F0B50F46F0EE400AEA
:10247000044600263DE0002537E037B1012F0CD09F
:10248000022F12D0032F20D02EE02A4631462046BC
:10249000FEF766FA30EE200A0EE02A463146204664
:1024A000FEF75EFA30EE600A06E02A463146204624
:1024B000FEF756FA20EE200A6068704304EB8000B5
:1024C00000EB850080ED020A0EE02A4631462046E8
:1024D000FEF746FA80EE201A6068704304EB800035
:1024E00000EB850080ED021A6D1C6068A842C4D81C
:1024F000761C2068B042BED8F0BD000010B50023A5
:1025000010E000220AE000BFB1EC010A5C4300EBDE
:10251000840404EB8204521C84ED020A4468944251
:10252000F2D85B1C02689A42EBD810BD2DE9F0414D
:102530000E46074640680968884220D10025716828
:10254000386800F0A9F8804613E000240DE0234627
:102550002A4631463846FEF7E1F9224629464046EA
:10256000FEF70FFA80ED000A641C7068A042EED8F6
:102570006D1C3868A842E8D84046BDE8F08103A049
:10258000FFF794FA4FF0FF30F7E70000B4EDCEF319
:10259000A3BA41B5C4C1D0CAFDD3EB42B5C4D0D0B3
:1025A000CAFDB2BBCFE0B5C8A3ACB2BBC4DCD7F6A2
:1025B000B3CBB7A80D0A00002DE9F04188460446C8
:1025C0000168D8F80000174681423ED16168D8F80A
:1025D0000400814239D100260CE0002506E077B1E5
:1025E000012F1BD01BA0FFF761FA6D1C6068A84289
:1025F000F5D8761C2068B042EFD8BDE8F0812A46B5
:1026000031462046FEF7ACF9F0EE400A2A46314644
:102610004046FEF7A5F930EE800A0DE02A46314625
:102620002046FEF79DF9F0EE400A2A463146404624
:10263000FEF796F930EEC00A6068704304EB800044
:1026400000EB850080ED020ACFE7BDE8F0410AA06B
:10265000FFF72CBAB4EDCEF3A3BACEDEB7A8D6B44A
:10266000D0D0B3FDBCD3BCF5B7A8B5C4B5FCB4FAA3
:10267000D4CBCBE3210D0A00B4EDCEF3A3BAC1BD98
:10268000B8F6BED8D5F3D0D0C1D0CAFDB2BBCFE02A
:10269000B5C8210D0A00000070B50D460446684318
:1026A00080000830FEF764F810B1C0E9004570BD45
:1026B00002A0FFF7FBF9002070BD00004552524F09
:1026C000523AB6AFCCACC4DAB4E6C9EAC7EBCAA793
:1026D000B0DC0D0A000000002DE9F04188460646F6
:1026E0000068096888422CD17168D8F804209142AA
:1026F00027D10025FFF7D0FF07461CE0002416E095
:10270000224629463046FEF72BF9F0EE400A2246D3
:1027100029464046FEF724F9786830EEC00A68433F
:1027200007EB800000EB8400641C80ED020A7068F7
:10273000A042E5D86D1C3068A842DFD83846BDE815
:10274000F08103A0FFF7B2F94FF0FF30F7E7000088
:10275000B4EDCEF3A3BAC1BDB8F6BED8D5F3D0D090
:10276000C1D0CAFDB2BBCFE0B5C8210D0A00000040
:102770002DE9F0470025884604462F46A9461AB1A0
:10278000012A40D042A044E06168D8F804008142A8
:1027900001D04CA03DE02268D8F800001044FFF7BB
:1027A0007BFF054612E000260CE032463946204603
:1027B000FEF7D6F8324639462846FEF7E2F880EDB5
:1027C000000A761C6868B042EFD87F1C2068B842C7
:1027D000E9D8064613E000270DE020683A46311A92
:1027E0004046FEF7BDF83A4631462846FEF7C9F89E
:1027F00080ED000A7F1C6868B842EED8761C286815
:10280000B042E8D840E02068D8F80010884203D0F1
:1028100034A0FFF74BF937E06268D8F80410114490
:10282000FFF73AFF054613E000260CE04A46314622
:102830002046FEF795F84A4631462846FEF7A1F8AD
:1028400080ED000A761C2868B042EFD809F1010932
:1028500061684945E8D80E4613E000270DE060683E
:102860003946321A4046FEF77BF83246394628464A
:10287000FEF787F880ED000A7F1C2868B842EED882
:10288000761C6868B042E8D82846BDE8F0870000AA
:10289000B4EDCEF3A3BA6178697320B1D8D0EBCA96
:1028A000C730BBF2D5DF31A1A330CCEDBCD3B5BD71
:1028B000CFC2B1DFA3AC31CCEDBCD3B5BDD3D2B167
:1028C000DF0D0A00B4EDCEF3A3BA617869733D3031
:1028D000A3ACC1D0CAFDB1D8D0EBCFE0CDAC0D0ACE
:1028E00000000000B4EDCEF3A3BA617869733D3106
:1028F000A3ACD0D0CAFDB1D8D0EBCFE0CDAC0D0A9F
:10290000000000002DE9F047144600261D468146D0
:10291000A34252D32A1B41B1D9F80400A84229D2BC
:1029200027A000BFFFF7C2F844E0D9F80000A84292
:10293000F6D3501CD9F80410FFF7AEFE0646A046A9
:1029400015E00027A8EB040A0CE03A464146484649
:10295000FEF706F851463A463046FEF712F880ED8B
:10296000000A7F1C7068B842EFD808F10108A8453A
:10297000E7D91FE0511CD9F80000FFF78DFE06468D
:10298000A04615E00027A8EB040A0CE042463946B1
:102990004846FDF7E5FF524639463046FDF7F1FF60
:1029A00080ED000A7F1C3068B842EFD808F10108BA
:1029B000A845E7D93046BDE8F08707A0B2E7000098
:1029C0004552524F523A20454E4420B3ACB3F6B76D
:1029D000B6CEA70D0A0000004552524F523A20458C
:1029E0004E4420B1D8D0EBB4F3D3DA205354415243
:1029F000540D0A0070B500252DED028BB0EE408A13
:102A0000FFF74AFE06460DE0002407E0224629466D
:102A10003046FDF7B6FF80ED008A641C7068A04266
:102A2000F4D86D1C3068A842EED8BDEC028B30465D
:102A300070BDB7EE000AFFF7DDBF2DE9F041074694
:102A40000025D7E90010FFF727FE064612E0002414
:102A50000CE02A4621463846FDF782FF22462946E9
:102A60003046FDF78EFF80ED000A641C7068A042BE
:102A7000EFD86D1C3068A842E9D83046BDE8F08137
:102A80009FED010AFFF7B6BF000000000D4901608D
:102A90000D4941600D4981600D49C1600D490161D9
:102AA0000D4941610D4981610D49C1610D490162C5
:102AB0000D4941620D4981620D49C1620D490163B1
:102AC0007047000099260008FD240008B915000889
:102AD0003B2A0008332A0008812A00082D25000817
:102AE000712700080529000813090008D9260008E5
:102AF00069240008B92500080000A04200004843EE
:102B00000000BE42000066430000D0420000754352
:102B10000000E042000089430000FA420080814347
:102B20000000074300008343000000000000000095
:102B30000102030406070809000000000102030463
:102B4000602B00080000002018000000CC1A0008CC
:102B5000782B000818000020986F0200DC1A00088B
:102B60000000000001000000100000000000000054
:082B70000024F4000000000045
:04000005080001AD41
:00000001FF
