:020000040800F2
:1000000040750220C1010008852700083922000838
:10001000A32400082D0900086D3900080000000025
:100020000000000000000000000000002134000873
:10003000A90A000800000000A727000823340008D0
:10004000DB010008DB010008DB010008DB01000820
:10005000DB010008DB010008DB010008DB01000810
:10006000DB010008DB010008DB010008DB01000800
:10007000DB010008DB010008DB010008DB010008F0
:10008000DB010008DB010008DB010008DB010008E0
:10009000DB010008DB010008DB010008DB010008D0
:1000A000DB010008DB010008DB010008DB010008C0
:1000B000DB010008DB010008DB010008DB010008B0
:1000C000DB010008DB010008DB010008DB010008A0
:1000D000DB010008DB010008DB010008DB01000890
:1000E000DB010008DB010008DB010008DB01000880
:1000F000DB010008DB010008DB010008DB01000870
:10010000DB01000855280008DB010008DB010008BE
:10011000DB010008DB010008DB010008DB0100084F
:10012000DB010008DB010008DB010008ED09000825
:10013000DB010008DB010008DB010008DB0100082F
:10014000DB010008DB010008DB010008DB0100081F
:10015000DB010008F9090008DB010008DB010008E9
:10016000DB010008DB010008DB010008DB010008FF
:10017000DB010008DB010008DB01000800000000D3
:10018000DB010008DB010008DB010008DB010008DF
:10019000DB010008DB010008DB010008DB010008CF
:1001A000DB010008DB010008DB010008DFF80CD0F0
:1001B00000F054FB004800472D5D00084075022008
:1001C0000648804706480047FEE7FEE7FEE7FEE7F1
:1001D000FEE7FEE7FEE7FEE7FEE7FEE7F134000894
:1001E000AD0100082DE9F05F0546002092469B46D0
:1001F00088460646814640241BE02846414647463D
:10020000224600F08AF953465A46C01A914110D34B
:1002100011461846224600F071F92D1A67EB0108C5
:100220004F4622460120002100F068F917EB000933
:100230004E41201EA4F10104DFDC484631462A4627
:100240004346BDE8F09F2DE9FE4F804681EA03005A
:10025000C00F0C46009021F0004123F00045B8EBA0
:100260000200A94105D24046214690461C460B4655
:10027000024623F00040104347D0270DC7F30A0081
:10028000C3F30A510290401A019040286BDAC3F37D
:10029000130040F4801B0098924620B10023D2EB5B
:1002A000030A63EB0B0B01985946C0F1400250461C
:1002B00000F024F906460D4650465946019A00F0D2
:1002C0003CF910EB08006141002487EA115284EAEE
:1002D000E7731A4340D0009A62B3019A012A4FEAA9
:1002E000075215DC001B61EB02014FF0004202EAED
:1002F0000752CDE90042001C41F5801132462B46E1
:1003000000F073F903B0BDE8F08F40462146F9E7ED
:10031000001B61EB0201001C41F5801300185B41DA
:100320002018A2F5001747EB030140EAD570B61973
:100330006D4111E06D084FEA360645EAC0754FEA97
:100340000752001B61EB0201001C41F580114908B6
:100350004FEA30000019514132462B4603B0BDE848
:10036000F04F00F033B90098012240000023D0EB99
:10037000020263EBE073009821464FEAE074B8EBA9
:10038000000061EB0401E9E783F000435BE781F0E3
:10039000004158E72DE9F04D81EA030404F0004BD9
:1003A00021F0004514464FF0000A23F0004150EAC6
:1003B000050220D054EA01021DD0C5F30A570246B7
:1003C000C5F31303C1F31300C1F30A5640F48015BB
:1003D00043F48013A7EB0608101BD64608F2FD383D
:1003E00073EB050002D308F1010801E092185B41AC
:1003F000B8F1000F03DA00200146BDE8F08D0020BF
:100400004FF48011064684460EE0171B73EB050778
:1004100005D3121B63EB050306434CEA010C4908A4
:100420004FEA300092185B4150EA0107EDD152EAE1
:10043000030012D082EA040083EA0501084305D0D4
:10044000101BAB4106D20122002306E000224FF030
:10045000004302E06FF0010253101AEB06004CEB70
:10046000085110EB0A0041EB0B01BDE8F04D00F024
:10047000ADB800F0004230F000400AD0C10D01F5E7
:100480006071C0F3160042EA0151C20840071143EF
:10049000704700200146704701F0004330B421F05E
:1004A000004150EA010206D00A0DA2F56072C1F3C4
:1004B0001301002A02DC30BC00207047440F44EADC
:1004C000C104C100E01830BC00EBC25000F047B8D6
:1004D00030B50B46014600202022012409E021FA14
:1004E00002F59D4205D303FA02F5491B04FA02F511
:1004F0002844151EA2F10102F1DC30BD202A04DBE4
:10050000203A00FA02F1002070479140C2F1200326
:1005100020FA03F3194390407047202A04DB203A65
:1005200021FA02F00021704721FA02F3D040C2F113
:1005300020029140084319467047202A06DBCB175A
:10054000203A41FA02F043EAE07306E041FA02F38E
:10055000D040C2F12002914008431946704700295B
:10056000A8BF7047401C490008BF20F00100704739
:1005700010B4B0FA80FC00FA0CF050EA010404BF99
:1005800010BC704749B1CCF1200421FA04F411FAEF
:100590000CF118BF012121430843A3EB0C01CB1D33
:1005A0004FEA00614FEA102042BF002010BC7047A4
:1005B00000EBC35010440029A4BF10BC7047401C7E
:1005C000490008BF20F0010010BC704710B5141E90
:1005D00073F1000408DA401C41F1000192185B41FC
:1005E0001A4301D120F0010010BD2DE9F04D9246D3
:1005F0009B4611B1B1FA81F202E0B0FA80F22032EA
:100600009046FFF77BFF04460F4640EA0A0041EAA6
:100610000B0153465A46084313D0114653EA0100D2
:1006200019D0C8F140025046FFF777FF05460E4645
:10063000504659464246FFF761FF084305D0012066
:1006400004E020463946BDE8F08D0020054346EA27
:10065000E0762C4337430A986305E40AA0EB0800D0
:100660000022FD0A44EA47540A3002D50020014620
:10067000E9E7010510196941DDE9084500196941FB
:10068000BDE8F04DA2E72DE9FE4F81EA030404F036
:10069000004421F0004100944FF0000B23F0004390
:1006A00050EA01045ED052EA03045BD0C3F30A545B
:1006B000C1F30A552C44A4F2F3340194A0FB025474
:1006C000C1F3130141F48011C3F3130343F4801306
:1006D00001FB024400FB034E840A970A44EA81545A
:1006E00047EA8357A4FB076802958D0A05FB078537
:1006F0004FEA932C04FB0C542705029D4FEA065841
:1007000047EA1637B5EB08056EEB070C870E920E1D
:1007100047EA811742EA8312A7FB0201B6EB0B01FD
:1007200064EB00042B0D43EA0C335E1844EB1C50C1
:10073000DA465146E7FB0201C5F313044FEA0B33D7
:1007400043EA14534FEA0432019C43EA0603A4F13E
:100750000C040294009CCDE900B4FFF746FF03B0FF
:10076000BDE8F08F00200146F9E70EB5C10F80EA21
:10077000E0700844CA07002140F233438DE80E00C0
:100780000A460B46FFF731FF03B000BD70B5C1F359
:100790000A5201F000450024C1F3130140F2FF3377
:1007A00041F480119A4201DA002070BD40F23343D7
:1007B0009A42A2F2334203DC5242FFF7AEFE00E05F
:1007C00090402C43F1D0404270BDC1F30A52C1F3B6
:1007D000130140F2FF3341F480119A4202DA002003
:1007E0000146704740F233439A42A2F2334202DCA0
:1007F0005242FFF792BEFFF781BE000030B5041EE3
:1008000071F1000404DB4FF00044404264EB01014D
:10081000141E73F1000405DB1C464FF000435242E6
:1008200063EB04038B4208BF824230BD30B5041E27
:1008300071F1000404DB4FF00044404264EB01011D
:10084000141E73F1000405DB1C464FF000435242B6
:1008500063EB0403994208BF904230BD064C074D3C
:1008600006E0E06840F0010394E807009847103480
:10087000AC42F6D3FFF79EFC106F0008306F000803
:10088000704700000146014801F01EB9906B02203C
:1008900010B5044801F02AF9042801D0012010BD48
:1008A000002010BD906B022038B501208DF80000AB
:1008B0009DF80000012801D0012038BD064801F054
:1008C0000BFA040006D14FF40061034800F0D2FF98
:1008D00000B10124204638BD906B0220134610B5AC
:1008E0000A4601460024034801F0D0FA00B1012471
:1008F000204610BD906B022001490120886070479E
:1009000004000020134610B50A460146002403489F
:1009100001F03EFB00B10124204610BD906B022087
:10092000014901204860704704000020FEE70000F4
:1009300008B5742803D8BDE8084000F00DB8044994
:10094000044B00918422C91A01F054FD08BD000037
:10095000F86A0220C06A02002DE9F843DFF87C80C3
:100960001F4E204FD8F800108146002579B9842207
:100970003B46F11B1046009601F03CFDC8F8000014
:10098000002827D0C5670146C0F880501AE001F161
:10099000800000900C467C230422484601F02AFD8A
:1009A000002817D1E16F0029F1D184223B460E497E
:1009B0001046009601F01EFD01000DD0CD67C1F874
:1009C0008050E16701F1800000907C2304224846BA
:1009D00001F010FDBDE8F8830020FBE700000020D7
:1009E000F86A0220C06A020038000020014800F0C6
:1009F00051B90000146C0220014800F04BB900000E
:100A0000746C022001681823CAB2103AB2FBF3F2E8
:100A1000054B6FF30901032A9B5CC36500D9091DCF
:100A200081650846704700003C6A000810B5014621
:100A300000208B698A6A4FF0C07453B1B3F5005F30
:100A400015D072B1012A0CD0022A0AD0032A09D18A
:100A500004E01AB1012A06D0022A03D1C96AC901E9
:100A600000D5012010BDC96AA142FAD010BD002AEC
:100A7000F7D0012AF2D0022AF3D0032AF3D010BD16
:100A800030B50468256825F4802525600468636016
:100A90008368402B036803D099600068C26030BD52
:100AA0009A600068C16030BD70470022AFF30080DB
:100AB00030B50E4B054601205C7A002C14D1587AD3
:100AC0001C54587A03EB800045605D7A03F10800FE
:100AD0002A54587A421C5A72303008703A204870B2
:100AE0002F208870CC70002030BD0000346D0220B3
:100AF0002DE9F8431D4EDFF87880DFF878903468F0
:100B0000254654B3A04226D304F17C01884222D862
:100B1000091D00917C230422214600F02FF80700D4
:100B200016D1D4F8800098B93068844203D1E06FC0
:100B3000306005E00546E86FA042FBD1E06FE86752
:100B40004B4684220C492046CDF8008000F016F870
:100B50003846BDE8F883E46FD3E74B468422064964
:100B6000CDF8008000F00AF8F3E700000000002054
:100B7000F86A0220C06A020038000020F0B5059F24
:100B800028B3411AB1FBF2F0B1FBF2F1C00801F059
:100B90000701802607E0A543491CC9B23D54082936
:100BA00001D30021401C26FA01F43D5C254206D009
:100BB000B3FBF2FC0CF1070CB0EBDC0FEBD3B3FB97
:100BC000F2F1C91DB0EBD10F01D20020F0BD012020
:100BD000F0BD0168C07809BA21F0FF0108437047F1
:100BE000D0E90010484370472DE9F0411E461746F2
:100BF000884605460024DFED0C0A0EE02246394601
:100C0000284600F013F8B0EE401A3246214640461E
:100C100000F00CF841EE000A641C6868A042EDD8B0
:100C2000B0EE600ABDE8F0810000000003688B426E
:100C30000AD94368934207D94B4300EB830000EB8A
:100C4000820090ED020A7047BFEE000A7047036809
:100C50008B4209D94368934206D94B4300EB83008A
:100C600000EB8200083070474FF0FF30704790F87B
:100C70003510022903D080214165012070470521EC
:100C800080F835100068016821F001010160002042
:100C9000704700002DE9F84304464FF00009CDF8F5
:100CA000009063484FF41651A56D0068B0FBF1F752
:100CB0002E6894F85C10082000FA01F131420FD040
:100CC00021680A6852070BD50A6822F004020A60FC
:100CD00094F85C108840A860606D40F00100606589
:100CE00094F85C104FF0010808FA01F0304208D087
:100CF00021684969090604D5A860606D40F00200CA
:100D0000606594F85C1004208840304208D0216867
:100D10000968890704D5A860606D40F0040060652B
:100D200094F85C1010208840304218D0216809687F
:100D3000090714D5A86020680168490304D5006834
:100D4000000308D5A16C07E00168C90503D4016858
:100D500021F008010160216C09B12046884794F810
:100D60005C1020208840304231D021680968C906D3
:100D70002DD5A86094F8350005282068016806D0B4
:100D8000490347D5006800031DD4616C1CE021F0C5
:100D9000160101602068416921F080014161206CE9
:100DA00008B9A06C20B12068016821F00801016039
:100DB00094F85C103F208840A86084F8349084F850
:100DC0003580216D1FE0E16B09B120468847606DD9
:100DD00000282BD0606DC00714D0052084F83500A2
:100DE0002068016821F0010101600098401C00901A
:100DF000B84203D820680068C007F6D184F8349060
:100E000084F83580E16C002910D001B02046BDE89F
:100E1000F04308470168C905D5D4016821F01001E5
:100E2000016084F8349084F83580CCE7BDE8F8831D
:100E3000240000202DE9F041044600F099F906460F
:100E40005CB1002584F83450022084F83500206815
:100E5000016821F0010101600DE00120BDE8F08191
:100E600000F086F9801B052805D920206065032045
:100E700084F83500F2E720680068C007F0D12268E6
:100E8000116820480140D4E901031843D4E903362E
:100E90003343184363691843A3691843E36918434C
:100EA000236A18430843616A042903D1D4E90B1368
:100EB00019430843106020684069666A20F0070102
:100EC00030460E43012704280CD1A06A0643E06A8D
:100ED00040B12046FFF7AAFD20B14020606584F8AC
:100EE0003570BAE7206846612046FFF78BFD94F81D
:100EF0005C203F2191408160656584F83570002059
:100F0000ACE700003F8010F02DE9F0410446866D0B
:100F100090F83400002501280DD0012084F8340019
:100F200094F835700020012F07D084F83400022592
:100F30002846BDE8F0810220FBE7022784F83570DF
:100F400060652046FFF79CFD94F85C103F208840C8
:100F5000B0602068016841F01601016020684169B5
:100F600041F080014161206C20B12068016841F0AE
:100F7000080101602068016841F001010160D7E7C4
:100F800070B5044600F0F4F80546601C02D0044831
:100F90000078044400F0ECF8401BA042FAD370BD86
:100FA000180000202DE9F84FDFF890B100224FF033
:100FB00001084FF0030A4FF00F090BF1040E00BFB8
:100FC0000B6808FA02F42340A3426ED14D68022D4B
:100FD00001D0122D0ED1D50800EB850CDCF8205085
:100FE0005607F70E09FA07F6B5430E69BE402E43C1
:100FF000CCF82060066855000F790AFA05FC07F066
:10100000030726EA0C06AF40374307604E68012EFF
:1010100005D0022E03D0112E01D0122E0ED18768DA
:10102000CE6827EA0C07AE403E4386604668A6437A
:101030000C79C4F30014944034434460C4688E684F
:1010400024EA0C04AE402643C6604C68E4006FD529
:101050003B4C256845F480452560246822F0030553
:1010600004F480440094374C2E19D6F808489507AC
:101070002F0F09FA07F5AC43334DA84201D10025E3
:101080002EE0324DA84201D1012529E0304DA84281
:1010900001D1022524E02F4DA84201D103251FE0F4
:1010A0002D4DA84202D104251AE041E02B4DA84263
:1010B00001D1052514E02A4DA84201D106250FE0F3
:1010C000284DA84201D107250AE0274DA84201D1A9
:1010D000082505E0254DA84201D1092500E00A2593
:1010E000BD402543C6F80858DBF800405D464E6811
:1010F0009C43F60300D51C432C60DEF80040754687
:101100004E689C43B60300D51C432C600B4D08353C
:101110002C684E689C43F60200D51C432C60074D9A
:101120000C352C684E689C43B60200D51C432C60DD
:10113000521C102AFFF444AFBDE8F88F003C014078
:1011400044380240003001400000024000040240E8
:1011500000080240000C024000100240001402404F
:1011600000180240001C02400020024000240240FF
:10117000014880687047000018000020024881681C
:101180000278114481607047180000200B4810B5A8
:10119000016841F400710160016841F480610160FF
:1011A000016841F480710160032000F097F800208D
:1011B00000F006F800F024F8002010BD003C0240CA
:1011C00070B50D4D04464FF47A712878B1FBF0F0FC
:1011D0000A490968B1FBF0F000F061FF48B9102C32
:1011E00007D200222146501E00F058F800206C6003
:1011F00070BD012070BD00001800002024000020F8
:101200001F4808B5016841F480410160006800F49E
:10121000804000901A48001F016841F08051016031
:10122000006800F080500090032000F057F8002282
:1012300011466FF00B0000F031F8002211466FF0FC
:101240000A0000F02BF8002211466FF0090000F0B0
:1012500025F800221146501F00F020F80022114608
:10126000101F00F01BF800221146901E00F016F827
:101270000022BDE808401146501E00F00FB80000E3
:101280004438024000F01F020121914040098000D3
:1012900000F1E020C0F8001170470000F0B40E4BE0
:1012A0001B680C46C3F30223C3F10705042D00D9C4
:1012B0000425191D072901D2002300E0DB1E0126A9
:1012C00006FA05F1491E214099409E40761E1640BF
:1012D0003143F0BC01F057BA0CED00E0064900F0D4
:1012E000070208684FF6FF03184040EA0220034A4D
:1012F00010430860704700000CED00E00000FA05A4
:101300002DE9F8431748016841F0805101600068F9
:10131000154F00F08050012600903E64FFF728FF33
:1013200005464FF47A78114C05E000BFFFF720FF27
:10133000401B40450DD86068C003F7D57E64FFF7B9
:1013400017FF0546464607E0FFF712FF401BB04275
:1013500002D90320BDE8F88360688003F4D500203B
:10136000F8E700004038024000000E4200700040E4
:101370002DE9F0470E46050065D0DFF81481D8F856
:101380000000F7B200F00F00B04207D288F80070FA
:10139000D8F8000000F00F00B04254D128683D4C4E
:1013A000810712D5400703D5206840F4E050206043
:1013B0002878000703D5206840F46040206020684A
:1013C000A96820F0F000084320602878C0072DD0DD
:1013D000304968680839012812D0022813D0032840
:1013E00011D00968890700292DDA216821F003014D
:1013F00001432160FFF7BCFE814641F2883A0EE0CE
:1014000009688903EFE709688901ECE7FFF7B0FE97
:10141000A0EB0901514502D90320BDE8F0872068FF
:10142000696800F00C00B0EB810FEFD1D8F8001024
:10143000404601F00F01B14207D90770006800F083
:101440000F00B04201D00120E7E72878400705D51A
:101450002068E96820F4E0500843206028780007FD
:1014600006D52068296920F4604040EAC100206068
:1014700000F03CF82168084AC1F30311515CC840F0
:10148000064908600020FFF79BFE0020C5E700002A
:10149000003C024008380240446A00082400002052
:1014A00001480068704700002400002004480549F6
:1014B00000680968044AC1F38221515CC840704742
:1014C0002400002008380240546A000804480549F6
:1014D00000680968044AC1F34231515CC840704752
:1014E0002400002008380240546A0008154810B54E
:1014F000006810F00C02144813D01449042A0FD0CD
:10150000082A0ED10F4C241F2268236802F03F02E4
:101510005B0207D52068C0F38810A0FB010106E03C
:10152000084610BD2168C1F38811A1FB000100230A
:10153000FEF758FE2168C1F30141491C4900B0FB88
:10154000F1F010BD083802400024F40040787D011D
:101550002DE9F84F050076D02878DFF8F8B2BE4CB8
:10156000C00749D0DBF800105846C1F381010129BA
:1015700008D00068C0F3810002280AD1201D00684D
:10158000400206D52068800336D568680028E2D07E
:1015900032E06868B0F5803F10D0B0F5A02F206829
:1015A00010D020F480302060206820F4802020605B
:1015B0006868A0B1FFF7DCFD06460CE0206840F447
:1015C0008030F4E740F480202060F7E7FFF7D0FD9B
:1015D000801B642873D820688003F7D50CE0FFF7E0
:1015E000C7FD064605E000BFFFF7C2FD801B64286B
:1015F000F0D820688003F7D42878DFF8608280076D
:101600004FF000093ED5DBF80010584611F00C0FE2
:1016100009D00068C0F3810002280BD18D48001F5B
:101620000068400206D42068800715D5E8680128C4
:1016300009D111E0E868B8B10120C8F80000FFF74F
:1016400097FD064605E002E1FFF792FD801B0228A8
:10165000C0D820688007F7D52068296920F0F800F5
:1016600040EAC10020600DE0C8F80090FFF780FD5F
:10167000064604E0FFF77CFD801B02281FD8206887
:101680008007F7D42878000722D5724E744869691C
:101690006C3671B101210160FFF76AFD074604E075
:1016A000FFF766FDC01B022809D830688007F7D510
:1016B0000EE0C0F80090FFF75BFD074605E083E011
:1016C000FFF756FDC01B02287ED830688007F7D48C
:1016D0002878400768D5DFF87CA100270AF1380A8E
:1016E000DAF80000C0000BD4DAF8001041F08051A5
:1016F000CAF80010DAF80000012700F080500090CE
:10170000584E3068C00510D4306840F480703060A6
:10171000FFF72EFD009005E0FFF72AFD0099401A23
:10172000022851D83068C005F6D54A4EA8686836F8
:1017300001280FD00528306810D020F0010030605B
:10174000306820F004003060A868B8B1FFF710FDE1
:1017500000900FE0306840F00100F4E740F0040032
:101760003060F7E7FFF704FD0099411A41F2883035
:10177000814264D830688007F4D50EE0FFF7F8FCAA
:10178000009007E0FFF7F4FC0099411A41F288301D
:10179000814254D830688007F4D42FB1DAF80010B1
:1017A00021F08051CAF80010A869C0B3DBF800101E
:1017B000C1F3810102294AD00228484607D0C8F85F
:1017C0006000FFF7D5FC00E039E005463AE0474607
:1017D000C8F86000FFF7CCFC064604E0FFF7C8FC41
:1017E000801B02282BD820688001F7D4D5E9070197
:1017F0000843A96A1C4A490802EB01416A6A41EAA6
:101800008211084395F82C1040EA01611148001F2D
:10181000016001203866FFF7ABFC054605E014E0E7
:10182000FFF7A6FC401B022809D820688001F7D5E5
:101830000BE000BFFFF79CFC401B022802D90320ED
:10184000BDE8F88F20688001F4D40020F8E701207B
:10185000F6E7000008380240003802400000474226
:10186000800E4742007000400000FFFF10B5FFF7F8
:1018700007F810BDFEB5044603200D4684F8340079
:10188000606C032820D0B5F5805F1DD0B5F5006FE2
:1018900005D045B1A06B40F00060A06309E0204690
:1018A00001F0F0FC02E0204601F0C5FCA16B014311
:1018B000A163A06B012658B1216840F2FF508863F4
:1018C00084F834600120FEBDA06B40F08050E4E756
:1018D000211DD4E905700EC90095CDE9017020687D
:1018E00000F0BEFF84F834600020FEBD7047F0B504
:1018F000426E120E93090B70C2F383034B7002F019
:1019000003028A70426E120CCA70B0F86420120A88
:101910000A7190F864204A71826E4FF6FF73120EBE
:1019200003EA0212CA80826ECB88C2F3074243EAFE
:101930001213CB8002F00F020A72B0F86820C2F3D3
:101940000722D3094B72C2F380138B72C2F3401388
:10195000CB72C2F300130B7300264E73446C4FF42A
:10196000007701236CB1012C43D0026840F2FF5193
:101970009163816B41F08051816380F834300120A4
:10198000F0BD9207120D0A6190F868200C6944EAD4
:1019900082020A61C26E0C69120E44EA92140C6152
:1019A000C2F3C2040C7502F007024A75C26EC2F39C
:1019B000074254098C75C2F38204CC759207520F0A
:1019C0000A76B0F86C20C2F307240A7E42EAD412E9
:1019D0000A760A69521C42650D7EAD1CAA4042651A
:1019E0000D7A03FA05F585656D0A6A43C0E9172784
:1019F0001CE090F868209206920A0A61C26E0C6997
:101A0000120E44EA02220A61C26E0C69C2F3074256
:101A100014430C61B0F86C20C2F307240A69521C0D
:101A20004FEA82224265C0E916720766C4F380124B
:101A300001F8192F4FEA84624FEA52624A7010F897
:101A40006C2F4C7844EAD2144C7002F07F028A70FA
:101A500042684FEA12624FEAD214CC70C2F34114CA
:101A60000C71C2F382044C714FEA82724FEA127217
:101A70008A7142688C79C2F3074244EA92148C71ED
:101A8000C2F34014CC710E7202F001024A728288D5
:101A9000C2F307224FEAD2148C72C2F38014CC72C4
:101AA000C2F340140C73C2F300144C73C2F38104EC
:101AB0008C7302F00302CA7300794FEA5000087475
:101AC0004B744FF00000F0BD426C0A60826C4A60BB
:101AD000C26C8A60026DCA60426D0A61826D4A61A1
:101AE000C26D8A61006EC8610020704770B50446FF
:101AF000B0F8500000250104206801F030F818B15A
:101B0000A16B0143A16304E00021206800F09CFE6A
:101B10000546C5F3432070BD70B504460068416BAF
:101B20004FF00105CA0540F23A3149D52A028263D5
:101B30002068C26B8A43C263206B0007206B22D5EA
:101B4000800702D4206B800609D5206801F038F8A0
:101B500028B1A16B0143A1632046FFF7C7FE2168AE
:101B600040F2FF50886384F83450206BC00702D1E4
:101B7000206B800703D5204600F002FA70BD204696
:101B800000F002FA70BD0006FCD5206B800609D576
:101B9000206801F015F828B1A16B0143A16320462C
:101BA000FFF7A4FE206BC007ECD1206B8007E9D4BF
:101BB0002068C16A21F00801C16284F83450DEE770
:101BC000426B520410D54FF480418163266A002590
:101BD00006EB8501206800F06CFE6D1C082DF7D324
:101BE000206A2030206270BD426B120410D54FF481
:101BF00000418163A66A0025206800F047FE46F890
:101C000025006D1C082DF7D3A06A2030A06270BD9E
:101C1000426B40F23A231A42F9D0426B920703D545
:101C2000A26B42F00202A263426B120703D5A26BC1
:101C300042F00802A263426B920603D5A26B42F007
:101C40002002A263426BD20603D5A26B42F01002BF
:101C5000A263426B920503D5A26B42F00802A26315
:101C600040F2FF7282632068C26B8A43C263206BBA
:101C7000000623D5206C58B115490165206CFEF78C
:101C8000F6FF0028C3D0206CBDE8704001F081B998
:101C9000E06B58B10F490165E06BFEF7E8FF0028E3
:101CA000B5D0E06BBDE8704001F048B90020A063FA
:101CB00084F834502046FFF7D9FD70BD206B000733
:101CC000FBD584F834502046FFF710FE70BD0000AD
:101CD000932F00083D2F000870B5040004D094F83D
:101CE0003400002510B105E0012070BD25772046A5
:101CF00000F038F8032084F83400204600F008F89B
:101D0000A5632563012084F83400002070BD000025
:101D1000FEB50025044676200095CDE901502B46FE
:101D20002A462946206800F09BFD0D4E46F8A05F2C
:101D3000206800F0A7FD012535600220FFF720F99B
:101D4000204601F027FA20B9204601F0B0F900281A
:101D500005D084F83450A16B0143A1630120FEBD7E
:101D6000008025422DE9F04F054600683D4987B0C7
:101D7000884274D13C4800683B4940F400600860E8
:101D80000868022400F4006005904FF4F850CDE993
:101D9000000402AA002003264FF00C0882E841014B
:101DA00069463248FFF7FEF802AA002082E84101A6
:101DB0000427CDE9007469462D48FFF7F3F82E4C4F
:101DC0002C484FF00068C4E9000800204FF48069F7
:101DD000A060C4E90309B8024FF4804BC4E9050BC5
:101DE000C4E909764FF0200A0020C4E907A07E0567
:101DF000B7102046C4E90B67FFF71CF818B1832120
:101E00001EA001F0B5FDEC63A5631B4C19486034BE
:101E10004830C4E900084020A0600020C4E903095C
:101E2000C4E907A00420606204F12802032082E8CC
:101E3000C1004FF48051C4E9051B2046FEF7FAFFAC
:101E400018B198210DA001F093FD2C6400221146D9
:101E50003120A563FFF722FA3120FFF713FA07B00C
:101E6000BDE8F08F002C01404438024000080240D9
:101E7000000C024058640240146C02202E2E2F5396
:101E800072632F7364696F2E630000002DE9F043C5
:101E9000154687B01F460A00044607D094F8340060
:101EA000012807D0022007B0BDE8F083A06B40F006
:101EB000006008E00020A063E36DE919994204D9AD
:101EC000A06B40F00070A06351E0032184F834104F
:101ED00021688146C8622168CB6B43F49573CB635C
:101EE000E36B24494FEA4728D963E36B2249D9645D
:101EF000E16B4FEA980308652168E06B8031FFF7DA
:101F000003F81E4801260660606C012800D06D02AF
:101F10004FF0FF30CDE90008902002900220059696
:101F2000CDE903096946206800F078FC4FF40071A0
:101F3000206800F0F7FC40F2FF5880B9012F06D965
:101F4000822020632946206800F07AFD05E0812088
:101F500020632946206800F08CFD0028A3D0226869
:101F6000C2F83880A16B0143A16384F8346001207A
:101F700099E70000FF2E0008A92E00088C85254255
:101F800010B5FEF7B9FC10BD10B5FEF7C9FC10BDC9
:101F90002DE9F04F87B01F4615465FEA010B044656
:101FA00007D094F83400012807D0022007B0BDE81C
:101FB000F08FA06B40F0006008E00020A063E26DAD
:101FC000E919914204D9A06B40F00070A06339E098
:101FD000032184F8341021688046C8622168CA6BE6
:101FE00042F01A02CA63226C2349D163226C23494E
:101FF000D164216C0865606C012800D06D024FF43B
:102000000071206800F08EFC012640F2FF5988B96B
:102010004FF0900A012F06D9A0202063294620689E
:1020200000F0E8FD05E0C4F830A02946206800F083
:10203000FAFD48B12268C2F83890A16B0143A16350
:1020400084F834600120B1E70D48066022687D0203
:10205000AB0859468032206CFEF756FF4FF0FF3038
:102060008DE82104CDE90486CDF80C80694620680E
:1020700000F0D4FB002099E7852F0008A92E000866
:102080008C8525424FF0E0210428086903D020F018
:1020900004000861704740F00400FAE7704710B58B
:1020A000401EB0F1807F01D3012010BD4FF0E0242D
:1020B00060610F21601700F066FB0020A06107201F
:1020C0002061002010BD10B5FFF7E8FF10BD70B50E
:1020D000040004D094F83900002510B106E0012076
:1020E00070BD84F83850204600F022F8242084F88F
:1020F00039002068C16821F40051C160204601F018
:10210000ADFA2068016921F49041016120684169BC
:1021100021F02A0141612068C16841F40051C16089
:10212000E563202084F8390084F83A00002070BD6F
:1021300000B500680E4987B0884217D10D48016884
:1021400041F0100101600068694600F01000059040
:102150004FF4C06000900220019001200290032003
:102160000390072004900448FEF71CFF07B000BD51
:102170000010014044380240000002402DE9F843BD
:10218000044690F839001F4616460D46202850D1C7
:10219000A5B19EB194F8380001284AD0012084F8F6
:1021A00038004FF00008C4F83C80212084F8390042
:1021B000FEF7DEFFA6848146E68426E00120BDE826
:1021C000F883E08C401EE084A0684B46B0F5805F49
:1021D0004FF000024FF080012046009703D001F03D
:1021E00093FBE8B90DE001F08FFBC8B9288821689E
:1021F000C0F308004860206908B16D1C05E0AD1C03
:1022000003E0216815F8010B4860E08C0028D8D164
:102210004B46002240212046009701F075FB08B193
:102220000320CCE7202084F8390084F8388000208F
:10223000C5E70220C3E70000462202A107A001F083
:10224000A9FBFEE72E2E2F5372632F73746D33326A
:10225000663478785F69742E630000000D0A486167
:1022600072644661756C745F48616E646C6572205F
:102270003A2573202C25640D0A0000002DE9F04753
:102280000E46044601699A461546304688478146FF
:10229000A36B294630469847E26A804651469047EC
:1022A00005460146E2694846904796ED000A226BD2
:1022B0000746B8EE400A03219047226B0221B0EE98
:1022C000000A384690474846FEF712FC4046FEF7A3
:1022D0000FFC2846FEF70CFC5046FEF709FC38467A
:1022E000BDE8F0870D4808B5016841F48001016040
:1022F0000068002200F48000009011463B20FEF7A9
:10230000CDFF3B20FEF7BEFF002211464520FEF721
:10231000C5FFBDE808404520FEF7B4BF3038024095
:1023200010B504490448FEF7C0FB0249491E087075
:1023300010BD000011000020286A0008114808B5EF
:10234000016841F080010160016801F080010091A5
:10235000016841F004010160016801F0040100918D
:10236000016841F001010160016801F00101009183
:10237000016841F008010160006800F00800009069
:1023800008BD0000303802400648054901600021C0
:1023900041608160C16001614161816170470000FD
:1023A000002C0140906B02200D4810B50B490160D4
:1023B0004FF4E1314160002181600C22C160C0E92D
:1023C00004128161C161FFF782FE002805D0BDE8DB
:1023D00010404C2103A001F0CBBA10BD0010014009
:1023E000D46C02202E2E2F5372632F75736172747A
:1023F0002E6300002DE9FF4F9946B0FBF2F3002653
:1024000002FB1303002BB0FBF2F3DDF804E0DDF870
:1024100034B035463446314602D0DB1C002719E083
:102420009B1CFBE71BF805A0002000BF4FF08008B5
:1024300028FA00F81AEA080F01D19EB119E0002627
:10244000B9FBF2FC7F1CBC4508D0401CC0B2082878
:10245000ECD36D1CB9FBF2F0B842E3D8002004B015
:10246000BDE8F08F019900EBC50404FB021E2C4669
:102470000146761C9E42E3D18020022B0ED0491CDF
:10248000C9B2082901D10021641C20FA01F61BF809
:10249000045035430BF804505B1EEEE70EEB0200D0
:1024A000DDE7FEE72DE9FE4F81460E464FF40D7045
:1024B000FEF73EFA02904FF40C70FEF739FA0090E6
:1024C00000241420FEF734FA019405464FF40074FA
:1024D0002046FEF72DFA0746012279A1029802F064
:1024E00011FF012277A1009802F038FF50B10122BC
:1024F00074A1009802F032FF01461A2374A27DA055
:1025000001F048FA01AB22463946009803F02EF854
:1025100058B101AB22463946009803F027F801462E
:102520001B236BA273A001F035FA3846FEF751FB6E
:10253000381DFEF74EFB07F10800FEF74AFB804608
:1025400007F10C00FEF745FB0446009802F0BCFDC5
:102550003846FEF7CDFA04FB08F000FB09F1103114
:10256000019100FB06FA0146304603F0EFFD834679
:102570005046FEF7DDF9070004D1282254A167A0D8
:1025800001F008FA01224FA1009802F0E7FE50B1D5
:1025900001224CA1009802F0E1FE01462A234CA240
:1025A00054A001F0F7F9DDE9000102F0A1FD48B106
:1025B000DDE9000102F09CFD01462B2344A24DA061
:1025C00001F0E8F901AB52463946009802F0CEFF1F
:1025D00058B101AB52463946009802F0C7FF014698
:1025E0002C233BA243A001F0D5F93946584603F00D
:1025F000BBFCC5F800B0009802F066FD3846FEF757
:1026000077FA09F1080001900121304603F09EFDA0
:1026100081463046FEF78CF9070004D136222CA102
:102620004AA001F0B7F9012254A1009802F096FEE9
:1026300050B1012251A1009802F090FE01463823CA
:1026400023A22CA001F0A6F9DDE9000102F050FD63
:1026500048B1DDE9000102F04BFD014639231CA21F
:1026600024A001F097F901AB32463946009802F0F8
:102670007DFF58B101AB32463946009802F076FF33
:1026800001463A2312A21BA001F084F939464846BC
:1026900003F06AFCC5F80490009802F015FD384676
:1026A000FEF726FAC5F81080C5E902640298FEF725
:1026B0001FFA0098FEF71CFA2846BDE8FE8F0000BE
:1026C000303A000066656174757265310000000083
:1026D0002E2E5C2E2E5C4D7946756E5C6D696E6992
:1026E00073745F726561645C6D696E6973742E6387
:1026F000000000004572726F723A204461746120DC
:102700003D2025640D0A66696C65203A25732020FA
:102710006C696E65203A25640D0A0000C9EAC7EBB2
:10272000B1A3B4E6CCD8D5F7CAFDBEDDBBBAB4E6DA
:10273000CAA7B0DC0D0A66696C65203A25732020B3
:10274000726F7773203A25640D0A0000C9EAC7EB5F
:10275000B1A3B4E6BDE1B9FBCAFDBEDDBBBAB4E6C8
:10276000CAA7B0DC0D0A66696C65203A2573202083
:10277000726F7773203A25640D0A00006C61626500
:102780006C73310070470907090E002806DA00F063
:102790000F0000F1E02080F8141D704700F1E020E8
:1027A00080F800147047704770B50646002514A0E5
:1027B00001F0F0F81BE013A001F0ECF800240FE0AA
:1027C000684306EB800000EB84008068FDF751FE53
:1027D00041EC100B0CA053EC102B01F0DBF8641C47
:1027E0007068A042ECD80AA001F0D4F86D1C3068E3
:1027F000A842E0D8BDE8704007A001F0CBB80000C7
:102800007B0D0A005B00000025662C09000000001B
:102810005D2C0D0A000000007D0D0A000A6842626E
:102820004A688262D1E902231A43D1E904310B4399
:10283000C16A1A4321F0F7011143C16200207047B9
:10284000006800F00300704708B508441430009099
:10285000006808BD0148FFF75FB90000906B0220D7
:1028600070B50DF1100C11439CE87000234319431F
:1028700029434268314347F6FF639A430A43426063
:10288000002070BD0321016000207047D0F8800057
:1028900070470A688260D1E901231A43D1E9033104
:1028A0000B43C1681A436FF30B011143C160002051
:1028B00070470968C0F880100020704710B586B0D6
:1028C00004463720CDE900104020029000200390FC
:1028D0004FF48060049069462046FFF7DAFF41F22A
:1028E00088323721204600F0B7F906B010BD00004D
:1028F00010B504460A4886B001432920CDE90010EE
:1029000040200290002003904FF4806004906946BC
:102910002046FFF7BEFF204600F054FA06B010BD77
:102920000000108010B586B004461020CDE90010DC
:1029300040200290002003904FF48060049069468C
:102940002046FFF7A6FF41F288321021204600F012
:1029500083F906B010BD10B586B004460620CDE957
:10296000001040200290002003904FF480600490FB
:1029700069462046FFF78DFF41F288320621204646
:1029800000F06AF906B010BD30B585B000240546E8
:10299000009401944FF480600294CDE903406946AD
:1029A0002846FFF776FF0B484FF4FA510068B0FB5A
:1029B000F1F041F288314843401E03D24FF000400D
:1029C00005B030BD696B0906F6D540F2FF50A8632B
:1029D0002046F5E72400002070B585B004464FF48A
:1029E000D570009008204026CDE901060025C001E1
:1029F000CDE9035069462046FFF74BFF0F484FF4DF
:102A0000FA510068B0FBF1F041F288314843401EB2
:102A100002D24FF000450DE0616B11F0450FF6D08A
:102A2000606B400702D5A663042503E0606B400697
:102A300000D5A66305B0284670BD00002400002024
:102A400010B586B004461220CDE900104020029057
:102A5000002003904FF48060049069462046FFF701
:102A600018FF41F288321221204600F0F5F806B036
:102A700010BD10B586B004461120CDE900104020ED
:102A80000290002003904FF4806004906946204635
:102A9000FFF7FFFE41F288321121204600F0DCF8FA
:102AA00006B010BD10B586B004460720CDE9002061
:102AB00040200290002003904FF48060049069460B
:102AC0002046FFF7E6FE41F288320721204600F05B
:102AD000C3F806B010BD10B586B004460021022030
:102AE000CDE90010C020CDE902014FF480600490D0
:102AF00069462046FFF7CDFE204600F03BF906B0C0
:102B000010BD10B586B004460920CDE90010C020E4
:102B10000290002003904FF48060049069462046A4
:102B2000FFF7B7FE204600F025F906B010BD10B53E
:102B300086B0044600213320CDE900104020CDE9C5
:102B400002010001049069462046FFF7A2FE41F20F
:102B500088323321204600F07FF806B010BD10B552
:102B600086B004460D20CDE90010402002900020E0
:102B700003904FF48060049069462046FFF789FE79
:102B800041F288320D21204600F066F806B010BDF3
:102B900030B585B00C46054600210320CDE9001074
:102BA0004020CDE902010001049069462846FFF764
:102BB00070FE22460321284600F024F905B030BDFE
:102BC00010B586B0044600210C20CDE9001040204D
:102BD000CDE902010001049069462046FFF759FE45
:102BE000034A0C21204600F037F806B010BD000063
:102BF00000E1F50510B586B004461920CDE90010B6
:102C000040200290002003904FF4806004906946B9
:102C10002046FFF73EFE41F288321921204600F09F
:102C20001BF806B010BD10B586B004461820CDE9DB
:102C3000001040200290002003904FF48060049028
:102C400069462046FFF725FE41F2883218212046CA
:102C500000F002F806B010BD444B10B51B684FF4ED
:102C6000FA54B3FBF4F353435B1E02D24FF000401F
:102C700010BD426B12F0450FF6D0426B520703D5E0
:102C800004218163084610BD426BD20702D00121A6
:102C9000816303E00269D2B28A4201D0012010BDF3
:102CA00040F2FF5181630021FFF7CEFD3049084219
:102CB00001D1002010BD002802DA4FF0007010BDD5
:102CC000410001D5402010BD810001D5802010BDFC
:102CD000C10002D54FF4807010BD010102D54FF440
:102CE000007010BD410102D54FF4806010BDC101DC
:102CF00002D54FF4006010BD010202D54FF48050A0
:102D000010BD410202D54FF4005010BD810202D522
:102D10004FF4804010BDC10202D54FF4004010BDF9
:102D2000410302D54FF4003010BD810302D54FF4AA
:102D3000802010BDC10302D54FF4002010BD010456
:102D400002D54FF4801010BD410402D54FF400109D
:102D500010BD810402D54FF4800010BD000702D5DC
:102D60004FF4000010BD4FF4803010BD240000204F
:102D700008E0FFFD12494FF4FA520968B1FBF2F185
:102D800041F288325143491E02D24FF00040704751
:102D9000426B12F0450FF6D0416B490703D5042171
:102DA000816308467047416BC90703D001218163E5
:102DB0000846704740F2FF518163002070470000D1
:102DC000240000200E494FF4FA520968B1FBF2F1D9
:102DD00041F288325143491E02D24FF00040704701
:102DE000426B12F0450FF6D0416B490703D5042121
:102DF00081630846704740F2FF51816300207047AD
:102E0000240000201F4B10B51B684FF4FA54B3FB8D
:102E1000F4F341F2883463435B1E02D24FF000406A
:102E200010BD446B14F0450FF6D0436B5B0703D520
:102E300004218163084610BD436BDB0702D00121EA
:102E4000816303E00369DBB28B4201D0012010BD36
:102E500040F2FF5181630021FFF7F6FC10F4604F50
:102E600004D0410406D54FF4005010BD000C108072
:102E7000002010BD000402D54FF4805010BD4FF467
:102E8000803010BD2400002010B5064C01202070B9
:102E9000FDF7FEFC18B9207820F0010020702078A2
:102EA00010BD00000400002010B5846BE06B406D85
:102EB000012803D0206C406D01281CD1216840F20C
:102EC000FF5088632068C16B21F49D71C163A06BC2
:102ED00040F08040A0632046FEF708FE062801D09F
:102EE000052805D12068FFF76BFEA16B0843A0639E
:102EF000012084F834002046FEF7F8FC10BD10B520
:102F0000846B206B822809D12068FFF759FE28B115
:102F1000A16B0143A1632046FEF7E8FC2068C16A6B
:102F200021F00801C162216840F2FF50886301204E
:102F300084F834002046FFF723F810BD70B5846B89
:102F40000025E06B00B1E563206C002816D1204617
:102F5000FEF7CCFDA563012184F83410062801D0CA
:102F600005280BD12068FFF72BFEA16B0843A06357
:102F7000A06B0028204602D0FEF778FC70BDFEF75B
:102F8000B5FC70BD806B0068C16B41F48071C1639A
:102F9000704770B5846B0025206C00B12564E06B30
:102FA000002816D12046FEF7A1FDA563012184F873
:102FB0003410062801D005280BD12068FFF700FE49
:102FC000A16B0843A063A06B0028204602D0FEF747
:102FD0004DFC70BDFEF78AFC70BD2DE9F04F89B045
:102FE0000E460446FEF7C4F8002583460095019579
:102FF0002F4608212068FFF795FC002834D1B4F84B
:10300000500001042068FFF759FC00282CD1401E15
:103010004FF00808CDE9020830204FF00209CDE951
:1030200004090120CDE9067002A92068FFF7F6FB2C
:103030002068FFF77CFD002816D1EA4640F22A47B7
:103040002068416B394212D1416B890204D5FFF7E8
:103050001DFC4AF825006D1CFEF78AF8A0EB0B005A
:10306000401CEDD14FF0004009B0BDE8F08F416B3E
:10307000090703D5C0F838800820F5E7416B8907B8
:1030800003D5C0F838900220EEE7416B890603D5DE
:10309000202181630846E7E740F2FF5181630098F1
:1030A00000BA7060019800BA30600020DCE710B50B
:1030B00090B004460120ADF838002068FFF7C0FB4F
:1030C000002864D0606C032842D02068FFF703FD1D
:1030D00000285AD100212068FFF7B6FB6067042161
:1030E0002068FFF7B1FBA06708212068FFF7ACFB61
:1030F000E0670C212068FFF7A7FBC4F88000606C34
:10310000032825D00EA92068FFF742FD00283CD1F6
:10311000606C03281CD0BDF83800206501042068CD
:10312000FFF7EFFC002830D100212068FFF78CFB6F
:10313000606604212068FFF787FBA06608212068ED
:10314000FFF782FBE0660C212068FFF77DFB20671C
:1031500004212068FFF778FB000DE06403A92046F6
:10316000FEF7C5FBB4F85000002302042068FFF707
:1031700099FC002809D104F1100007C88DE8070068
:1031800094E80F00FFF76CFB002010B010BD4FF06B
:103190008060FAE72DE9F8430025044600950068B1
:1031A000FFF7F2FB00281AD12068FFF715FC4FF05B
:1031B00080784FF6FF76D8B14FF08057A56400981D
:1031C000411C0091B0421AD000212068FFF776FB25
:1031D00020B900212068FFF78BFB10B13846BDE80D
:1031E000F88300212068FFF72FFBC00FE7D01FE016
:1031F0000127A7640098411C0091B04201D14046CC
:10320000EDE700212068FFF759FB0028E7D14FF0D8
:1032100080412068FFF76CFB0028E0D10021206886
:10322000FFF712FBC10FE5D0400001D5676400E055
:1032300065640020D3E71CB504460020009001908F
:1032400000212068FFF700FB800102D54FF40060E9
:103250001CBD69462046FFF7C0FE0028F8D1019842
:10326000C0030CD5B4F8500001042068FFF726FB1A
:103270000028EDD100212068FFF76DFB1CBD4FF049
:1032800080601CBD1CB50446002000900190002108
:103290002068FFF7D9FA800102D54FF400601CBD09
:1032A00069462046FFF799FE0028F8D101984003AF
:1032B0000CD5B4F8500001042068FFF7FFFA00288D
:1032C000EDD102212068FFF746FB1CBD4FF0806066
:1032D0001CBD000070B5064C054601202070FDF7AE
:1032E000E3FA18B92846FFF7CFFD2070207870BDAB
:1032F0000400002010B5124888B014460078C007BA
:1033000002D0032008B010BDC1B1012905D00229A7
:1033100008D003290CD00420F4E76846FDF7B2FA80
:1033200006980AE06846FDF7ADFA0798208005E0A8
:103330006846FDF7A7FA0798400A20600020E1E7F9
:10334000040000202DE9F041184C4FF0000816460B
:1033500008460125C4F808801A463146FDF7BEFA32
:10336000F0B9FDF705FF064647F23057A06820B9CF
:10337000FDF7FEFE801BB842F8D3A06828B1C4F860
:103380000880FDF7F5FE044605E0012508E000BFD2
:10339000FDF77EFA38B1FDF7EBFE001BB842F7D31C
:1033A0002846BDE8F0810025FAE70000040000206F
:1033B000FFF76ABD2DE9F041184C4FF000081646A2
:1033C00008460125C4F804801A463146FDF79AFAEA
:1033D000F0B9FDF7CDFE064647F23057606820B9D8
:1033E000FDF7C6FE801BB842F8D3606828B1C4F868
:1033F0000480FDF7BDFE044605E0012508E000BF9E
:10340000FDF746FA38B1FDF7B3FE001BB842F7D31B
:103410002846BDE8F0810025FAE7000004000020FE
:10342000704710B5FDF7AAFEBDE81040FEF74BBE91
:1034300070B5294892B00025016841F080510160C3
:10344000006800F0805011902448016841F4404128
:1034500001600068022400F44040119001200090B7
:10346000000401908001CDE906400F260896D8207F
:10347000CDE9090408200B906846FEF769F808B109
:10348000CA2113E0FDF73CFF08B1D1210EE04FF453
:10349000A050CDE90E504FF48050CDE90C6410904F
:1034A00005210CA8FDF764FF18B1DF210CA000F086
:1034B0005FFAFDF7F5FF4FF47A71B0FBF1F0FEF71C
:1034C000EEFD0420FEF7DEFD00221146501EFDF742
:1034D000E5FE12B070BD00004038024000700040B0
:1034E0002E2E2F5372632F6D61696E2E63000000C4
:1034F0001048016841F4700101600F48016841F013
:10350000010101600C4A00210832116002680B4B76
:103510001A400260031D0A4A1A60026822F48022DF
:10352000026005480C300160024958068039086085
:103530007047000088ED00E000380240FFFFF6FE13
:10354000103000242DE9F0410D46064617460321B0
:103550009FED0C0A284602F0A5FC0121286803F023
:103560003AF8044601460122284602F0D3FE0546F9
:103570002046FDF7BDFA39462846B446BDE8F0417D
:103580006047000000007F432DE9F04F16462DED07
:10359000028B81B0B0EE408ADDE90CA70C46814673
:1035A00000250A6B9B4603219FED180A3046904781
:1035B000626930680121904780460146236A0122F2
:1035C0003046984700904046FDF792FA13E05B467C
:1035D000524620460099C847226B06460221B0EEAB
:1035E000480A9047636B012231465046984730465F
:1035F000FDF77EFA6D1CBD42E9D30098FDF778FA1D
:1036000001B05046BDEC028BBDE8F08F00007F4357
:103610002DE9F0410F462DED028B82B00446C16BBF
:10362000B0EE408A1E46DDF82880104688470546E1
:10363000CDE90068B0EE480A2B463A4621460648D6
:10364000FFF7A2FF2846FDF753FA02B03046BDEC63
:10365000028BBDE8F08100007D2200082DE9F041D9
:1036600004460068016921F44052E1681143016198
:103670002168C86849F20C6290432369A268E56931
:103680001A4363692B431A430243CA60216848699D
:1036900020F44072A06910434861E1696425B1F5E6
:1036A000004F9748974A21684FF032083FD0914227
:1036B00001D081427CD1FDF709FF00EBC00101EB95
:1036C000001061688900B0FBF1F6FDF7FFFE00EB2A
:1036D000C00101EB001061688900B0FBF1F0B0FBA4
:1036E000F5F06FF01801484306EB800108EB01107C
:1036F000B0FBF5F000F0F006FDF7E8FE00EBC001CE
:1037000001EB001061688900B0FBF1F0B0FBF5F04F
:1037100006EB0016FDF7DAFE00EBC00101EB00102E
:1037200061688900B0FBF1F7FDF7D0FED2E091426D
:1037300001D081423DD1FDF7C9FE00EBC00101EB94
:10374000001061684900B0FBF1F0B0FBF5F0060134
:10375000FDF7BCFE00EBC00101EB00106168490001
:10376000B0FBF1F7FDF7B2FE00EBC00101EB00107A
:1037700061684900B0FBF1F0B0FBF5F06FF01801A3
:10378000484307EB800108EBC100B0FBF5F000F007
:10379000F80006EB4006FDF799FE00EBC00101EBD7
:1037A000001061684900B0FBF1F7FDF78FFE3CE0C7
:1037B00055E0FDF77BFE00EBC00101EB00106168F6
:1037C0004900B0FBF1F0B0FBF5F00601FDF76EFE2D
:1037D00000EBC00101EB001061684900B0FBF1F79C
:1037E000FDF764FE00EBC00101EB001061684900C9
:1037F000B0FBF1F0B0FBF5F06FF01801484307EBB8
:10380000800108EBC100B0FBF5F000F0F80006EB1A
:103810004006FDF74BFE00EBC00101EB00106168B4
:103820004900B0FBF1F7FDF741FE00EBC00101EBF1
:10383000001061684900B0FBF1F0B0FBF5F06FF0EB
:103840001801484307EB800108EBC100B0FBF5F01D
:1038500000F00700216830448860BDE8F081FDF782
:1038600025FE00EBC00101EB001061688900B0FB90
:10387000F1F6FDF71BFE00EBC00101EB00106168E3
:103880008900B0FBF1F0B0FBF5F06FF01801484390
:1038900006EB800108EB0110B0FBF5F000F0F0063C
:1038A000FDF704FE00EBC00101EB00106168890028
:1038B000B0FBF1F0B0FBF5F006EB0016FDF7F6FDFE
:1038C00000EBC00101EB001061688900B0FBF1F76B
:1038D000FDF7ECFD00EBC00101EB00106168890011
:1038E000B0FBF1F0B0FBF5F06FF01801484307EBC7
:1038F000800108EB0110B0FBF5F000F00F00A9E724
:1039000000140140001001402DE9F041984617468F
:103910000E460446069D1DE0681C1BD02DB1FDF728
:1039200027FCA0EB0800A84214D92068C16821F444
:10393000D071C1602068416921F0010141612020FE
:1039400084F8390084F83A00002084F83800032015
:10395000BDE8F0812068006836EA000004D000204D
:10396000B842D9D00020F3E70120F9E7FEE70000D4
:103970000A46014601A000F00DF8FEE746494C4515
:10398000203A2573202C6C696E65203A2025640D41
:103990000A0000000FB4054B10B503A9044A0298B1
:1039A00000F04EFB10BC5DF814FB0000CD5A00087F
:1039B0003000002003B401984100009850EAC12073
:1039C00018BF04204A0D18BF40F0010040F2FF72FA
:1039D000B2EB515F08BF40F00200012808BF05208C
:1039E00002B070470000000070B52DED020B2DED08
:1039F0000A8B82B00D98C40F20F00045AE48854276
:103A000048D3AE48854219D30C99C5F31300084337
:103A100009D09DED0C0B02B0BDEC0A8B02B0BDE8E5
:103A2000704000F009BA002C14BF9FEDA50B9DED6E
:103A30000C0B02B0BDEC0A8B02B070BD9FEDA20B67
:103A400053EC102B9DED0C0B51EC100BFCF7EEFE24
:103A50000AD2022000F02CFA02B0BDEC0A8B02B0B0
:103A6000BDE8704000F0F4B99FED990B53EC102BBA
:103A70009DED0C0B51EC100BFCF7C0FE0AD202209E
:103A800000F016FA02B0BDEC0A8B02B0BDE870403F
:103A900000F0EEB990489FED92BBA8425CD29248EC
:103AA000854219D29148784400EBC40090ED000B98
:103AB00053EC102B9DED0C0B51EC100BFCF764FC40
:103AC00041EC1A0B8A48784400EBC40090ED009B4F
:103AD000C4F10100041B36E09FED870B53EC102B63
:103AE0009DED0C0B51EC100BFCF7CDFD41EC100BD8
:103AF0008348784400EBC40090ED001B51EC100BA0
:103B000053EC112BFCF79FFBFCF740FE0446FCF73F
:103B10002CFE41EC180B9FED7C0B53EC102BFCF7AB
:103B2000B2FD9DED0C1B53EC112BFCF730FC41EC6E
:103B30001A0B9FED770B51EC180B53EC102BFCF785
:103B4000A2FD41EC190B51EC1A0B53EC192BFCF7AD
:103B50001BFCCDE90C011BE06F48854217D29FED9D
:103B6000700B53EC102B9DED0C0B51EC100BFCF774
:103B70006AFB53EC1B2BFCF759FE08D29DED0C0B96
:103B800053EC1B2B51EC100BFCF75DFB6EE000249B
:103B90009DED0C0B53EC102B51EC100BFCF773FD4F
:103BA00041EC180B60480521B0EE480AF0EE680AB7
:103BB000784400F0C5F853EC182B51EC100BFCF7CF
:103BC00062FD9DED0C1B53EC112BFCF7E0FB41EC6F
:103BD000180B9FED570B5CB353EC182B51EC100BEB
:103BE000FCF7D2FB9DED0C0B41EC1C0B53EC182B9E
:103BF00051EC100BFCF747FD53EC1C2BFCF7CAFBF8
:103C000053EC192BFCF7C3FB53EC1A2BFCF7BCFB52
:103C100053EC1B2BFCF7BBFBCDE900016FF47F706D
:103C2000844226DB01EB045001909DED000B00E780
:103C300053EC102B51EC180BFCF7A6FB9DED0C0B75
:103C400041EC190B53EC182B51EC100BFCF71BFD3E
:103C500053EC192BFCF79EFB9DED0C1B53EC112B29
:103C6000FCF792FB53EC1B2BFCF791FB41EC100B88
:103C7000DFE608464FF07A5101EB04519FED2E0B21
:103C8000084453EC102B01909DED000B51EC100BF0
:103C9000FCF7F9FC0D4645EC100B044651EC100BFB
:103CA000FFF788FE042808BF00F0E2F845EC104B4F
:103CB000BFE6000000000000422E86400000F07FBA
:103CC0000000000000000000EF39FAFE422E86409E
:103CD00051302DD5104987C0422ED63F000000003C
:103CE000000000000000F03FB2A2F03F1E340000D0
:103CF0000E34000000000000FE822B654715F73FE0
:103D0000C2330000000000000000E0FE422EE63F4B
:103D1000763C7935EF39EA3D0000303E0000000086
:103D20009C7500883CE4377E3433000000000000BE
:103D300000000000000000400000000000007001D2
:103D400070B504462DED028B4D1E00EBC500B0EEA4
:103D5000408AF0EE608A90ED000B35F0060017D037
:103D600053EC182B51EC100BFCF78DFC41EC100BB5
:103D70006D1E04EBC50090ED001B51EC100B53ECD5
:103D8000112BFCF760FA41EC100B35F00600E7D17F
:103D9000022D36D0042D1CD0062D1CBFBDEC028B8D
:103DA00070BD53EC182B51EC100BFCF76CFC94ED30
:103DB0000A1B53EC112BFCF746FA53EC182BFCF7BB
:103DC00062FC94ED081B53EC112BFCF73CFA41EC20
:103DD000100B53EC182B51EC100BFCF754FC94ED2A
:103DE000061B53EC112BFCF72EFA53EC182BFCF7A7
:103DF0004AFC94ED040B53EC102BFCF724FA41EC35
:103E0000100B53EC182B51EC100BFCF73CFC94ED11
:103E1000021B53EC112BFCF716FA53EC182BFCF792
:103E200032FC94ED001B53EC112BFCF70CFABDECAB
:103E3000028B41EC100B70BD10B553EC102B51EC04
:103E4000100BFCF700FA41EC100B10BD0000000055
:103E50009FED050B10B553EC102B51EC100BFCF73C
:103E600012FC41EC100B10BD0000000000000070BF
:103E70009FED050B10B553EC102B51EC100BFCF71C
:103E800002FC41EC100B10BD00000000000000100F
:103E900002E008C8121F08C1002AFAD17047704713
:103EA000002001E001C1121F002AFBD17047000071
:103EB0000149086070470000340000202DE9FF5FD1
:103EC00082B00021DDE90430020DDDF840B003438B
:103ED00018D044F61050A2F2FF3242431514119844
:103EE00001281FD0A5EB0B00401C5FEA000A4FF031
:103EF00000064E4FDFF83891B046504615D5CAF14E
:103F0000000413E0119801244AA3012801D16FEAAB
:103F10000B010298119AC0E90031C0E9024206B0D3
:103F2000BDE8F09FCBF10000DFE704460021404AE6
:103F3000491842EB0450CDE9001012E0E00707D029
:103F400032463B4640464946FCF79DFB8046894643
:103F500032463B4610461946FCF795FB06460F468F
:103F60006410002CEAD1DDE90401DDE90023BAF197
:103F7000000F06DAFCF787FB42464B46FCF783FB53
:103F800005E0FCF707FA42464B46FCF703FA044605
:103F90000E460022284BFCF749FC03D84FF0FF30B7
:103FA000014607E00022254B20463146FCF74BF93D
:103FB000FCF70BFC102409E0002C0ADB0A2200238A
:103FC000FCF710F9039B30321A55641E50EA0102C7
:103FD000F2D1641C039AC4F111031444119A012A0A
:103FE00003D0012208430DD10AE0084304D0002089
:103FF0004FF0110B119072E7A3EB0B056D1E0DE056
:104000005B4504DD4FF0000205F1010504E003DA31
:104010004FF00002A5F10105002AECD00298119999
:10402000C0E90231C0E9004579E700000000144012
:104030000000F03F300000000000F0430000E03FCF
:104040002DE9FF4F95B09B468946064600250FE2B5
:10405000252877D100242746F84A0121059400E05D
:10406000044316F8013F203B01FA03F01042F7D158
:1040700030782A2811D06FF02F033078A0F1300269
:10408000092A16D8059A44F0020402EB820203EBD7
:1040900042021044761C0590EFE759F8042B059274
:1040A000002A03DA504244F40054059044F002041C
:1040B000761C30782E2816D116F8010F44F004042F
:1040C0002A280DD06FF02F023078A0F13003092B91
:1040D00009D807EB870302EB4303C718761CF3E705
:1040E00059F8047B761C30786C280FD006DC4C28FD
:1040F00017D068280DD06A2814D104E0742810D095
:104100007A280FD10DE044F400140AE044F480143E
:1041100001E044F440147278824202D104F5801424
:10412000761C761C307866280BD013DC582877D0A4
:1041300009DC002875D04528F6D04628F4D0472859
:104140001AD19DE118E0632835D0642879D065281C
:1041500012D195E1702873D008DC6728F1D0692866
:104160006FD06E280DD06F2806D1B5E073282CD003
:10417000752875D0782874D05A46179990476D1CC9
:1041800075E1C4F30250022809D003280DD0D9F8F4
:10419000001004280DD00D6009F1040967E1D9F879
:1041A0000010EA17C1E90052F6E7D9F800100D80B7
:1041B000F2E70D70F0E719F8041B8DF800100020ED
:1041C0008DF80100EA46012003E059F804AB4FF0F6
:1041D000FF3061074FF0000102D40DE008F101014A
:1041E0008846B9420FDA8045F8DB1AF80810002932
:1041F000F4D108E008F1010188468142FADB1AF89F
:1042000008100029F6D105985B46A0EB0807214667
:104210003846179A00F094FA284400EB080507E0A6
:104220004DE029E10DE01AF8010B5A461799904725
:10423000B8F10108F7D25B4621463846179A13E1D8
:1042400042E00A220092C4F302524FF0000A022A0E
:1042500008D059F804CB032A4FEAEC710AD00DE0DC
:1042600029E02AE009F1070121F00702F2E802C182
:10427000914609E00FFA8CFC4FEAEC71042A03D155
:104280004FFA8CFC4FEAEC71002907DA0A4600214C
:10429000DCF1000C61EB02012D2202E0220504D5C5
:1042A0002B228DF80420012203E0E20701D0202216
:1042B000F7E7904659E00A2102E010220DE01021B4
:1042C0004FF0000A00910BE010224FF0000A44F07A
:1042D00004040827009203E008224FF0000A00922D
:1042E000C4F30252022A05D059F804CB0021032A54
:1042F00008D009E009F1070121F00702F2E802C144
:10430000914605E01FFA8CFC042A01D10CF0FF0C49
:104310004FF00008220728D5702806D0009B83F0B4
:10432000100353EA0A0305D00EE040228DF8042062
:10433000012208E05CEA010206D030228DF8042058
:104340008DF8050002229046009B83F0080353EA93
:104350000A030AD15CEA010201D1620705D53022C5
:104360008DF804204FF001087F1E582804D034A097
:1043700003900EA802900DE036A0F9E75346604680
:10438000009AFBF72FFF84460398825C0298401E38
:10439000029002705CEA0100F0D1029806A9081AA6
:1043A00000F1200A600702D524F4803400E00127E0
:1043B000574502DDA7EB0A0000E0002000EB0A01F0
:1043C000009005984144401A0590E00306D45B46EE
:1043D0002146179A059800F0B3F90544002706E036
:1043E00001A85A46C05D179990476D1C7F1C474530
:1043F000F6DBE0030CD55B462146179A059800F0E2
:104400009FF9054404E030205A46179990476D1CE7
:104410000099481E00900029F5DC08E002980299F6
:104420005A460078491C0291179990476D1CBAF1C1
:104430000001AAF1010AF1DC65E100000928010090
:10444000303132333435363738396162636465660A
:1044500000000000303132333435363738394142CC
:10446000434445460000000000F058F90544761C1E
:10447000307800287FF4ECAD19B02846BDE8F08F05
:10448000620700D4062709F1070222F0070CFCE8B6
:104490000223E14603F000485FEA080C02D00FF265
:1044A000702C0DE05FEA045C02D50FF2682C07E087
:1044B0005FEAC47C02D00FF2602C01E0AFF2700C16
:1044C0004FF0FF3823F00043CDF850C065280CD0E2
:1044D00006DC452809D046281DD047283DD13DE0BF
:1044E000662818D067287ED138E00021112F01DB23
:1044F000112000E0781CCDE9000106A90EA8FFF705
:10450000DDFCDDE90F010E9A03910021009207F115
:10451000010A04914DE04FF000400097CDE90110F1
:1045200006A90EA8FFF7CAFCDDE90F0203920E9B55
:1045300011990022DDF80CA00093049211B9791CA6
:1045400000EB010AB7EB0A0004D4C0F1FF3007F119
:10455000010A0490AAEB0700019044E0012F00DA61
:1045600001270021112F01DD112000E03846CDE99F
:10457000000106A90EA8FFF7A1FCDDE90F010E9AC4
:104580000391002104910092BA4621070CD40399AB
:10459000514500DA8A46BAF1010F05DD009AAAF109
:1045A0000101515C302908D0B84202DA10F1040F41
:1045B00006DA0121CDE9011015E0AAF10101E9E7D0
:1045C000002805DC049901440491AAEB000102E0F3
:1045D000411C514500DD8A460499401A401C019057
:1045E0004FF000400290200704D40198504501DBB1
:1045F000CDF8048000208DF84F0002980DF14F0790
:10460000B0F1004F25D02B200E9002984FF00208F9
:1046100000280CDA404202902D200E9007E00A217B
:104620000298FBF755FF3031029007F8011DB8F1F1
:104630000001A8F10108F2DC02980028EFD1791EF0
:104640000E980870307800F0200040F0450007F820
:10465000020D12A8C01B00F107081498007800B1E1
:10466000012000EB0A01019801EBE071059841443B
:10467000401A401E0590E00306D45B462146179A77
:10468000059800F05DF805441498007818B15A4672
:10469000179990476D1CE00324D55B462146179A75
:1046A000059800F04DF805441CE00498002807DB4D
:1046B000DDE90301884203DD0098405C179901E0C1
:1046C000179930205A469047049805F10105401C7F
:1046D00004900198401E019004D12E205A4617994B
:1046E00090476D1CBAF10001AAF1010ADDDC05E07A
:1046F00017F8010B5A46179990476D1CB8F1000145
:10470000A8F10108F4DC5B462146179A0598ABE650
:104710002D0000002B000000200000002DE9F041DA
:10472000044600251E461746880404D405E0394691
:104730002020B0476D1C641EF9D52846BDE8F081E5
:104740002DE9F041044600251E469046C80301D5D8
:10475000302700E02027880404D505E0414638468C
:10476000B0476D1C641EF9D52846BDE8F0810000F5
:1047700010B504460020E070401E2063204601F082
:1047800068FF08B1042010BD04F2322001F0C8FA1D
:10479000A0F52A41553901D0032010BD94F834000A
:1047A000E92805D0EB2814D194F83600902810D1D0
:1047B00004F16A0001F0A9FA0749B1EB002F06D015
:1047C00004F1860001F0A1FA0449884201D10020D9
:1047D00010BD022010BD0000004641544641543334
:1047E00000E0401C02780AB18A42FAD1D0B2704788
:1047F000F0B50022144D134605EB021426685EB195
:104800000768BE4209D166688768BE4205D1A468C0
:104810004669B44204D000E00123521C022AEBD3C3
:10482000022A01D069B904E04BB9022907D012204D
:10483000F0BD05EB02108089B0F5807F01D000202B
:10484000F0BD1020F0BD0000146D022030B5002135
:10485000054B0C4603EB01121568854200D114602C
:10486000491C0229F6D330BD146D02200268490AA2
:10487000C06A5289B1FBF2F1001D04C81AB191421D
:1048800003D3891AF8E7002070470068084470478E
:104890008269891E921E8A4201D800207047C26A2E
:1048A000408901FB002070472DE9F05F82460C46ED
:1048B00001F11A0001F034FA78BB2078012700F0EA
:1048C0003F00401E00EB8001DFF8589001EBC0056F
:1048D00000264FF6FF7B00BF19F80600204401F0C8
:1048E0001FFA80466FB1192D17D200F04BFF074613
:1048F0003AF815006D1C00F045FF87420DD1474680
:1049000001E0D84509D1761C0D2EE5D3207840066C
:1049100006D52FB13AF8150010B10020BDE8F09F80
:104920000120FBE78A6E00082DE9F04105680F00C1
:10493000804606D001F016F9022809D20120BDE810
:10494000F0812E6916B1A869B04207D8012605E0AA
:10495000411CF4D0A9698142F1D83E463446A86989
:10496000641CA04202D80224022E0AD321464046EB
:1049700001F0F8F838B10128E1D0411CDFD0B44291
:10498000EDD10020DBE74FF0FF36324621462846C6
:1049900001F0BEFE30B957B122463946284601F033
:1049A000B7FE20B101280FD001242046C7E72C61B3
:1049B000D5E90501891E884201D8401E6861287921
:1049C00040F001002871F0E73446EEE72DE9F84F9A
:1049D000824600680E680024C76888462546705DD8
:1049E0006D1C20281AD32F2813D05C2811D0192C25
:1049F00039D2012100F0AAFE5FEA000933D0B9F1F3
:104A0000800F12D201466DA0FFF7EAFE58BB0CE002
:104A10006D1C715D2F29FBD05C29F9D07219C8F883
:104A20000020202805D204250FE027F81490641CEC
:104A3000D5E7002509E000BF07EB440030F8020C81
:104A4000202801D02E2802D1641E002CF4D1002091
:104A500027F814003CB10B2220210AF1240001F0B8
:104A6000F1FD002603E00620BDE8F88F761C37F83C
:104A700016002028FAD02E28F8D01EB145F00305E4
:104A800000E0641E2CB107EB440030F8020C2E2825
:104A9000F7D14FF000094FF0080BCDF8009000BFA0
:104AA00037F8160006F101065FEA000824D0B8F1D5
:104AB000200F04D0B8F12E0F04D1A64202D045F049
:104AC0000305EDE70098584501D2A64219D1BBF184
:104AD0000B0F0FD0A64201D045F003050CD84FF0C4
:104AE000080000904FEA896026464FF00B0B4FEA12
:104AF0001069D5E745F003059AF82400E52838D079
:104B00003AE04046B8F1800F10D3002100F01EFEBD
:104B10005FEA000805D02C4901EB080010F8800C72
:104B2000804645F00205B8F1000F04D0014627A0E9
:104B3000FFF756FE20B14FF05F0845F003050FE088
:104B4000A8F14100192802D849F0020908E0A8F1AB
:104B50006100192804D8413049F001091FFA80F892
:104B6000009A0AEB020181F824800098401C009012
:104B700096E705218AF82410BBF1080F03D14FEA0C
:104B800089604FEA1069C9F38100032803D06FEAF6
:104B90000901890701D145F00205A90709D409F0E7
:104BA0000301012901D145F01005012801D145F08B
:104BB00008058AF82F50002056E70000222A3A3CC8
:104BC0003E3F7C7F000000000A6E00082B2C3B3D1E
:104BD0005B5D0000401E022812D20A4901EB001161
:104BE0008889B0F5807F05D008B1401E80B28881E9
:104BF00010B103E00020FAE70020086000207047B1
:104C000002207047146D02202DE9F0470446002170
:104C1000D0F8009000F0CCF900285BD1FF25471EAA
:104C2000A84627634846E16901F013FD060050D10C
:104C3000216A087850B1CA7AE52802F03F02A271D1
:104C40003FD0130704D50F2A3BD105E0042640E0EE
:104C50000F2A01D0E5B120E094F82F20520632D47B
:104C6000420606D591F80D8000F0BF006269054646
:104C70002263A84209D14A7B424506D1D9F80C00EB
:104C8000FFF712FE08B16D1E00E0FF25EDB21AE03D
:104C9000084601F035FE40451BD094F82F00C007B0
:104CA0000FD1D4F8201004F124000B2211F8013B9D
:104CB00010F8015B5B1B521E02D0002BF6D000E007
:104CC0003BB1FF2527630021204600F005F80600D0
:104CD000A8D03046BDE8F0872DE9F0470546476982
:104CE0000468C0698946203710B1B7F5001F02D3A8
:104CF0000420BDE8F087F90560D1401CE861A9698E
:104D00004FF0000829B16089401E10EA572F05D0E6
:104D100054E02089B0EB571F1DD94FE0284600F022
:104D200021FF064601281BD9701C33D0A069B04270
:104D30003ED8B9F1000F0ED02846A969FFF7F4FD5F
:104D400006000BD0012E0BD0701C23D0204601F0A2
:104D500029FEF8B906E0C5F81C80C9E70720C8E7B6
:104D60000220C6E74FF40072002104F1340001F084
:104D700069FC4FF0000831462046FFF789FD4FF0EF
:104D8000010920630DE000BF84F80390204601F084
:104D900009FE08B10120ACE7206B08F10108401CB6
:104DA000206361894145EFD8216BA1EB08002063A6
:104DB00031462046AE61FFF76BFDE861C7F308009E
:104DC000204434306F612862002092E72DE9F04FD3
:104DD0000446D0F8009090F82F0089B010F0A00F92
:104DE00003D0062009B0BDE8F08F0025D9F80C00EB
:104DF00000E06D1C30F815100029FAD104F12401EF
:104E00000C226846039101F013FC9DF80B00C007CB
:104E100019D0402084F82F00012633466946D9F87E
:104E20000C20039800F05EFE2046FFF7EDFE10B95F
:104E3000761C642EF1D3642E0FD00428D2D19DF8B5
:104E40000B0084F82F009DF80B00800707D50D207C
:104E50000C35B5FBF0F56D1C02E00720C2E701251B
:104E600000212046276800F0A3F888B900263846BC
:104E7000E16901F0EEFB58B9206A0078E5280AD014
:104E800048B1002601212046FFF726FF0028EED07A
:104E9000042812D012E0761C2846AE42F2D1451EFC
:104EA000059567D06169684201EB4011204600F02A
:104EB0007FF85FEA000803D076E00720804673E0C1
:104EC000039801F01DFD4FF6FF7B07904846E1690E
:104ED00001F0BFFB5FEA000866D1D9F80C0006902C
:104EE0000598D4F82080C0B20490079988F80D1076
:104EF0000F2188F80B10002188F80C1008F11A0017
:104F000001F0FAFC0498DFF8A4A0401E00EB800139
:104F100001EBC006002701E05D4503D0069830F89C
:104F20001650761C1AF8071001EB0800294601F00C
:104F3000E3FC05B95D467F1C0D2FEDD35D4505D023
:104F4000069830F8160008B1049803E0049840F081
:104F50004000049088F80000012189F80310002126
:104F60002046FFF7B9FE5FEA00081DD10598401EF4
:104F70000590ABD14846E16901F06BFB5FEA0008A0
:104F800012D120220021206A01F05CFB0B22206A52
:104F9000039901F04DFB94F82F00216A00F01800EE
:104FA0000873012089F8030040461BE78A6E000859
:104FB0002DE9F04107680E460546B1F5001F36D2CF
:104FC000F00634D16E61AC6824B93878032805D373
:104FD000BC6A1CB178894FEA402812E03889B0EBEE
:104FE000561F24D9B86A12E0284600F0BBFD0446DB
:104FF000401C1AD0022C1AD3B869A04217D9A6EBCC
:10500000080646452146EFD23846FFF741FCC5E980
:10501000064060B100EB5620E861C6F30800384452
:10502000343028620020BDE8F0810120FBE7022037
:10503000F9E70000084910B50B5C002253B90122C2
:105040000A540A1801EB8000127A40680168104681
:1050500088470246104610BD346D022030B4054C1E
:10506000231804EB80001B7A406804691846A446A4
:1050700030BC6047346D022030B4054D2C1805EB70
:105080008000247A406885682046AC4630BC604782
:10509000346D0220044A111802EB8000097A40683E
:1050A0004268084610470000346D022030B4054DB8
:1050B0002C1805EB8000247A4068C5682046AC4671
:1050C00030BC6047346D022038B5044600F0F7FA72
:1050D00000280CD16946204601F08DFC002806D13D
:1050E0002069FFF777FD002801D10021216038BD3C
:1050F0002DE9FE4F0D460446694601F07CFC070091
:1051000064D1677D002FFBD1E06A4FF0020A4FF0B7
:10511000010804F1300B00286AD0691C29D0E0682E
:10512000A84200D20546A561002D4FD02046691E39
:10513000FFF79CFB0146E0610098FFF7A9FB002800
:1051400075D000996D1E4A89521E02EA5522151823
:10515000208BC005E9D0226AAA42E6D0207D000655
:105160003BD5487801235946FFF7A0FF00286ED1B0
:105170002FE002C80191A16883460225F1B1002603
:10518000AD1C029189462046761C00F0EBFC0146DE
:1051900001284CD9481C5AD009F101008142F1D0B4
:1051A0000198854206D8CBF800600BF10400029A02
:1051B00004C08346009880698842E0D8E06A0560B0
:1051C0000198854203D80021CBF8001097E0112701
:1051D00095E0207D00F07F002075009801232A468D
:1051E00040785946FFF748FF002830D1256286E015
:1051F000E068A84203D2217D890700D405464FF01C
:105200000009A069C4F8189005B3009949894E02B5
:1052100070B1691EB1FBF6F2401EB0FBF6F18A4296
:1052200006D3711E8843A0612D1AE1690DE04FE09D
:10523000A16849B900212046FFF776FB0146012805
:1052400046D0481C55D0A160E161D9B927E050E0B3
:10525000A069AD1B3044A061207D8007204605D5A4
:10526000FFF762FB010004D100250DE000F07AFC9D
:105270000146481C3DD001292AD9009880698842FE
:1052800026D9E161B542E3D8A0692844A061E805C8
:1052900005D00098FFF7FCFAD0B100EB5529E16882
:1052A000A069884204D9E060217D41F04001217568
:1052B000C00524D0226A4A4521D0207D000610D5A1
:1052C0000098012359464078FFF7F0FE88B904E0C2
:1052D00084F815A00220BDE8FE8F207D00F07F003D
:1052E0002075009801234A4640785946FFF7C4FECE
:1052F00018B184F815800120EDE7C4F820903846F5
:10530000E9E700002DE9F74181B09046029800904E
:10531000684600F088FC040003D50B2004B0BDE80B
:10532000F0810D4E002756F824501DB12846FFF796
:105330008DFA2F700198002800D0077046F82400DD
:1053400002D0B8F1010F01D00020E7E7002201A947
:1053500002A800F057FAE1E72C0000202DE9F743FE
:10536000A0B005000BD002F03F063246694621A8E6
:1053700000F048FA04004FF0000804D0EEE00920E5
:1053800023B0BDE8F083009813A90190C16001A883
:10539000219900F061FB04000ED19DF83300000656
:1053A00001D5062408E0700801D0012100E00021A9
:1053B00001A8FFF71DFA044616F01C0F5DD04FF050
:1053C0000109C4B1042C10D10020674902E0401C3F
:1053D000022804D201EB00121268002AF7D1022839
:1053E00007D001A8FFF7F2FC044646F008065CB1BE
:1053F000B4E01224B2E09DF80A0010F0110F47D17A
:10540000700701D50824A9E0300747D500F009FC52
:105410000746099839460E3001F066FA0998394670
:10542000163001F061FA09992020C8720999009894
:1054300000F058FC074600220999009801F040FA54
:10544000099800211C3001F04FFA009981F803906F
:1054500017B3D1F830900022394601A801F0CDF9F8
:1054600004007BD14946009801F0F3F8040000984D
:10547000A7F1010707610DD070E0ECBB9DF80A00B1
:10548000C10601D5042469E0B10703D5C00701D0E6
:10549000072463E0300701D546F040060098006B12
:1054A00068620998A862700801D0012100E000211B
:1054B00001A800F0D7FB2861B8B30999009800F063
:1054C00011FCA86009981C3000F01FFCC5F82C8066
:1054D000E86000992960009905F130004FF40072EE
:1054E000C988A9802E7585F81580C5F8208000210F
:1054F0008146C5F8188000E030E001F0A3F8B0065E
:105500002ED5EE6866B3AE610098A968408947025F
:105510000FE0284600F026FB0146012800D80224AF
:10552000481C03D0F61B24B105E01BE00124F61B48
:1055300001E0BE42EDD8E96184B9F00510D00098D1
:10554000FFF7A6F970B100EB56222A6200980123FA
:1055500049464078FFF790FD10B10124C5F800805E
:1055600020460DE70224F9E7146D02202DE9FE4FD5
:1055700088460021196099461546044602A901F0A3
:105580003AFA002812D1607D00280FD1207DC00793
:105590000BD0E168A0690127081A4FF0020A04F154
:1055A000300B854200D9054684E00720BDE8FE8F18
:1055B000A169C80566D102984089401E10EA5126AB
:1055C00011D129B1E06A28B12046FFF74FF905E073
:1055D000A06803E02046E16900F0C4FA02281BD36A
:1055E000411C4AD0E061E1690298FFF751F998B196
:1055F00030440190680A009025D0029932184889F9
:10560000824201D9801B0090DDE900324878414692
:10561000FFF732FD88BB03E084F815A00220C5E740
:10562000207D00060CD5216A0198081A009988424D
:1056300006D208EB40204FF40072594600F0F8FF04
:10564000009846022CE0226A0198824218D0207D00
:1056500000060AD50298012359464078FFF726FD37
:1056600058B9207D00F07F0020750298012359462B
:105670004078019AFFF700FD10B16775012095E7AA
:1056800001982062208BC0F30800C0F50076AE427E
:1056900000D92E46011932464046303100F0C8FF8D
:1056A000A069B0443044A061D9F800008119AD1B55
:1056B000C9F80010002D7FF47BAF002076E7F8B525
:1056C0000446694601F097F900280ED1217D4A066B
:1056D0000BD508060ED50098226A0123407804F104
:1056E0003001FFF7E3FC08B10120F8BD207D00F098
:1056F0007F00207500F095FA0646616A009800F078
:10570000A8FF0028F1D1A56A2946E87A40F02000D8
:10571000E872A268206801F0D3F805F11C00E16886
:1057200001F0E2F8314605F1160001F0DDF8002144
:1057300005F1120001F0E0F800980121C17001F0BC
:10574000EDF8217D01F0BF012175F8BD802804D35B
:105750000B4A51B1FF2801D90020704702EB4000ED
:10576000A0F58050B0F8000F704732F81130834236
:1057700003D0491C89B28029F7D38031C8B2704761
:105780005C6A000830B5B0F5805F01D21B4900E0CB
:105790001B4931F8022B002A15D0904213D331F85F
:1057A000024B230AE5B252FA84F4844221D9092B30
:1057B00009D2DFE803F005090E11131517191B00B4
:1057C000801A31F8100030BD811A01F00101401A31
:1057D00000E0103880B230BD2038FBE73038F9E700
:1057E0001A38F7E70830F5E75038F3E7A0F5E3504B
:1057F000F0E7002BCDD101EB4501CAE75C6B000857
:105800004E6D00082DE9FF41002790460E460F60BF
:1058100000F009FA050003D50B2004B0BDE8F081C3
:105820008A4850F825409CB13460207808F0FE0684
:1058300020B16078FFF72EFCC1070BD02770E8B2CB
:10584000B8466070FFF7F6FBC10708D00320E4E715
:105850000C20E2E70EB1400704D40020DDE71EB1C2
:10586000400701D50A20D8E7002631462046FEF73A
:105870007FFF022822D100254FEA0D0704EB051017
:1058800090F8F61100F5F97019B1083000F03DFA02
:1058900000E0002047F825006D1C042DEED3002504
:1058A00057F8256036B131462046FEF761FF0228E1
:1058B00001D203E003206D1C042DF1D3042809D08C
:1058C00002286DD204F13F0000F02AFAB0F5007F03
:1058D00066D101E00120A0E704F14A0000F020FABF
:1058E00018B904F1580000F010FAE06194F844503F
:1058F000A570012D01D0022D52D1454394F84100ED
:105900006081E8B3411E08424AD104F1450000F02D
:1059100007FA2081000743D104F1470000F000FAA4
:10592000070004D104F1540000F0EFF9074604F138
:10593000420000F0F5F9010032D02389481900EB4C
:10594000131297422CD3B81A6789B0FBF7F0B8B19D
:1059500003274FF6F57C604500D8022740F6F57C1A
:10596000604500D80127801C3244E2623144A061C6
:10597000C4E90861032F15D013B12944A16200E0E6
:105980000EE0022F1FD000F0010100EB400001EB00
:10599000500000BFE16900F2FF10B1EB502F14D2AC
:1059A0000D203AE704F15E0000F0BAF90028F7D1C3
:1059B00020890028F4D104F1600000F0A6F9A0626B
:1059C000A0698000E6E74000E4E74FF0FF30606147
:1059D000206180202071032F2CD104F1640000F09D
:1059E0009FF9012826D1711C204600F032FE08BB29
:1059F00084F8048004F2322000F092F9A0F52A41E4
:105A0000553917D104F1340000F07FF9104988426C
:105A100010D104F5067000F078F90E49884209D1DA
:105A200004F5077000F071F9606104F5087000F08A
:105A30006CF9206105492770091F0888401C0880FF
:105A4000E0802046FEF702FF07E700002C00002060
:105A5000525261417272416173B504460568019802
:105A600001E0401C019001782F29FAD05C29F8D080
:105A70000021A16001980078202806D2802084F8B7
:105A80002F002046FFF794FA7CBD01A92046FEF7BF
:105A90009DFF0028F8D12046FFF7B6F894F82F10A4
:105AA00028B10428F0D14907EED405207CBD490770
:105AB000FCD4A079C006F8D5A08AC0F3080041192B
:105AC0002846343100F00EF9A060DEE713B54FF63A
:105AD000FF73012269460248FCF750FB00981CBD89
