:020000040800F2
:1000000018750220C1010008B9230008F721000873
:10001000B723000819080008C534000800000000D4
:10002000000000000000000000000000393000085F
:100030009509000800000000DB230008913000084B
:10004000DB010008DB010008DB010008DB01000820
:10005000DB010008DB010008DB010008DB01000810
:10006000DB010008DB010008DB010008DB01000800
:10007000DB010008DB010008DB010008DB010008F0
:10008000DB010008DB010008DB010008DB010008E0
:10009000DB010008DB010008DB010008DB010008D0
:1000A000DB010008DB010008DB010008DB010008C0
:1000B000DB010008DB010008DB010008DB010008B0
:1000C000DB010008DB010008DB010008DB010008A0
:1000D000DB010008DB010008DB010008DB01000890
:1000E000DB010008DB010008DB010008DB01000880
:1000F000DB010008DB010008DB010008DB01000870
:10010000DB0100086D240008DB010008DB010008AA
:10011000DB010008DB010008DB010008DB0100084F
:10012000DB010008DB010008DB010008D90800083A
:10013000DB010008DB010008DB010008DB0100082F
:10014000DB010008DB010008DB010008DB0100081F
:10015000DB010008E5080008DB010008DB010008FE
:10016000DB010008DB010008DB010008DB010008FF
:10017000DB010008DB010008DB01000800000000D3
:10018000DB010008DB010008DB010008DB010008DF
:10019000DB010008DB010008DB010008DB010008CF
:1001A000DB010008DB010008DB010008DFF80CD0F0
:1001B00000F05CFA00480047F93D0008187502207D
:1001C0000648804706480047FEE7FEE7FEE7FEE7F1
:1001D000FEE7FEE7FEE7FEE7FEE7FEE76131000827
:1001E000AD0100082DE9F05F0546002092469B46D0
:1001F00088460646814640241BE02846414647463D
:10020000224600F06AF853465A46C01A914110D36C
:1002100011461846224600F051F82D1A67EB0108E6
:100220004F4622460120002100F048F817EB000954
:100230004E41201EA4F10104DFDC484631462A4627
:100240004346BDE8F09F40EA01039B0703D009E065
:1002500008C9121F08C0042AFAD203E011F8013BB2
:1002600000F8013B521EF9D2704700F0004230F016
:1002700000400AD0C10D01F56071C0F3160042EADA
:100280000151C208400711437047002001467047E2
:1002900030B50B46014600202022012409E021FA56
:1002A00002F59D4205D303FA02F5491B04FA02F553
:1002B0002844151EA2F10102F1DC30BD202A04DB26
:1002C000203A00FA02F1002070479140C2F1200369
:1002D00020FA03F3194390407047202A04DB203AA8
:1002E00021FA02F00021704721FA02F3D040C2F156
:1002F000200291400843194670472DE9FE4F804681
:1003000081EA0300C00F0C46009021F0004123F069
:100310000045B8EB0200A94105D24046214690466F
:100320001C460B46024623F00040104347D0270DE1
:10033000C7F30A00C3F30A510290401A0190402803
:100340006BDAC3F3130040F4801B0098924620B18F
:100350000023D2EB030A63EB0B0B01985946C0F163
:1003600040025046FFF7AAFF06460D465046594642
:10037000019A00F08DF910EB08006141002487EA32
:10038000115284EAE7731A4340D0009A62B3019A8B
:10039000012A4FEA075215DC001B61EB02014FF006
:1003A000004202EA0752CDE90042001C41F58011EB
:1003B00032462B4600F08DF903B0BDE8F08F404681
:1003C0002146F9E7001B61EB0201001C41F5801397
:1003D00000185B412018A2F5001747EB030140EA23
:1003E000D570B6196D4111E06D084FEA360645EA41
:1003F000C0754FEA0752001B61EB0201001C41F57A
:10040000801149084FEA30000019514132462B460D
:1004100003B0BDE8F04F00F04DB900980122400054
:100420000023D0EB020263EBE073009821464FEA11
:10043000E074B8EB000061EB0401E9E783F00043EE
:100440005BE781F0004158E72DE9FE4F81EA0304A4
:1004500004F0004421F0004100944FF0000B23F021
:10046000004350EA01045ED052EA03045BD0C3F3B8
:100470000A54C1F30A552C44A4F2F3340194A0FBAE
:100480000254C1F3130141F48011C3F3130343F485
:10049000801301FB024400FB034E840A970A44EADE
:1004A000815447EA8357A4FB076802958D0A05FB30
:1004B00007854FEA932C04FB0C542705029D4FEA55
:1004C000065847EA1637B5EB08056EEB070C870EA2
:1004D000920E47EA811742EA8312A7FB0201B6EBAC
:1004E0000B0164EB00042B0D43EA0C335E1844EB64
:1004F0001C50DA465146E7FB0201C5F313044FEAEC
:100500000B3343EA14534FEA0432019C43EA0603D7
:10051000A4F10C040294009CCDE900B400F0D9F8D9
:1005200003B0BDE8F08F00200146F9E72DE9F04D5A
:1005300081EA030404F0004B21F0004514464FF01B
:10054000000A23F0004150EA050220D054EA0102DB
:100550001DD0C5F30A570246C5F31303C1F31300B8
:10056000C1F30A5640F4801543F48013A7EB060844
:10057000101BD64608F2FD3873EB050002D308F1D4
:10058000010801E092185B41B8F1000F03DA002086
:100590000146BDE8F08D00204FF4801106468446E8
:1005A0000EE0171B73EB050705D3121B63EB050366
:1005B00006434CEA010C49084FEA300092185B41AF
:1005C00050EA0107EDD152EA030012D082EA04009A
:1005D00083EA0501084305D0101BAB4106D2012276
:1005E000002306E000224FF0004302E06FF001021A
:1005F00053101AEB06004CEB085110EB0A0041EBCC
:100600000B01BDE8F04D00F055B8C1F30A52C1F33B
:10061000130140F2FF3341F480119A4202DA0020C4
:100620000146704740F233439A42A2F2334202DC61
:100630005242FFF752BEFFF741BE000030B5041E24
:1006400071F1000404DB4FF00044404264EB01010F
:10065000141E73F1000405DB1C464FF000435242A8
:1006600063EB0403994208BF904230BD064C074D2E
:1006700006E0E06840F0010394E807009847103472
:10068000AC42F6D3FFF796FD5042000870420008D6
:10069000202A06DBCB17203A41FA02F043EAE07346
:1006A00006E041FA02F3D040C2F120029140084333
:1006B0001946704710B5141E73F1000408DA401C87
:1006C00041F1000192185B411A4301D120F0010071
:1006D00010BD2DE9F04D92469B4611B1B1FA81F261
:1006E00002E0B0FA80F220329046FFF7E7FD0446C0
:1006F0000F4640EA0A0041EA0B0153465A460843B6
:1007000013D0114653EA010019D0C8F140025046F7
:10071000FFF7E3FD05460E46504659464246FFF7B1
:10072000CDFD084305D0012004E020463946BDE850
:10073000F08D0020054346EAE0762C4337430A98C3
:100740006305E40AA0EB08000022FD0A44EA4754CE
:100750000A3002D500200146E9E701051019694178
:10076000DDE9084500196941BDE8F04DA2E7704791
:100770000146014801F088B9846B022010B5044895
:1007800001F094F9042801D0012010BD002010BD13
:10079000846B022038B501208DF800009DF8000020
:1007A000012801D0012038BD064801F075FA040087
:1007B00006D14FF40061034801F03CF800B1012478
:1007C000204638BD846B0220134610B50A46014608
:1007D0000024034801F03AFB00B10124204610BD7B
:1007E000846B0220014901208860704704000020CA
:1007F000134610B50A4601460024034801F0A8FB41
:1008000000B10124204610BD846B02200149012063
:100810004860704704000020FEE7000008B5742817
:1008200003D8BDE8084000F00DB80449044B00911E
:100830008422C91A01F068FD08BD0000EC6A02209C
:10084000C06A02002DE9F843DFF87C801F4E204F7C
:10085000D8F800108146002579B984223B46F11B67
:100860001046009601F050FDC8F80000002827D07F
:10087000C5670146C0F880501AE001F18000009081
:100880000C467C230422484601F03EFD002817D187
:10089000E16F0029F1D184223B460E4910460096B3
:1008A00001F032FD01000DD0CD67C1F88050E16745
:1008B00001F1800000907C230422484601F024FDD1
:1008C000BDE8F8830020FBE700000020EC6A02206E
:1008D000C06A02002C000020014800F0BBB90000F3
:1008E000086C0220014800F0B5B90000686C0220D5
:1008F00001681823CAB2103AB2FBF3F2054B6FF34A
:100900000901032A9B5CC36500D9091D816508465E
:10091000704700003042000810B5014600208B6986
:100920008A6A4FF0C07453B1B3F5005F15D072B14D
:10093000012A0CD0022A0AD0032A09D104E01AB1F4
:10094000012A06D0022A03D1C96AC90100D50120B3
:1009500010BDC96AA142FAD010BD002AF7D0012A01
:10096000F2D0022AF3D0032AF3D010BD30B50468C8
:10097000256825F480252560046863608368402B22
:10098000036803D099600068C26030BD9A60006857
:10099000C16030BD70470022AFF3008030B50E4B10
:1009A000054601205C7A002C14D1587A1C54587AE0
:1009B00003EB800045605D7A03F108002A54587A01
:1009C000421C5A72303008703A2048702F208870CC
:1009D000CC70002030BD0000086D02202DE9F041F0
:1009E0001E461746884605469FED0C0A002410E077
:1009F00022463946284600F006F9D0ED000A324674
:100A00002146404600F0FFF890ED001A641C00EE0D
:100A1000810A6868A042EBD8BDE8F08100000000C0
:100A20002DE9F0411E461746884605469FED0D0A02
:100A3000002412E022463946284600F0E4F890ED02
:100A4000001A32462146404600F0DDF8D0ED000A9B
:100A5000641CF8EEE00A01EE200A6868A042E9D8BA
:100A6000BDE8F081000000002DE9F0411E46174668
:100A7000884605469FED0E0A002413E022463946BB
:100A8000284600F0C0F890ED001A32462146404654
:100A900000F0B9F80078641C00EE900AF8EE600AE5
:100AA00001EE200A6868A042E8D8BDE8F0810000A5
:100AB000000000002DE9F0411E4617468846054615
:100AC0009FED0D0A002412E022463946284600F028
:100AD0009AF8D0ED000A32462146F8EEE00A404688
:100AE00000F091F890ED001A641C00EE810A68682D
:100AF000A042E9D8BDE8F081000000002DE9F047F0
:100B00000025984691468A4606462C460EE0224627
:100B10004946304600F077F807684246214650467D
:100B200000F071F80068641C07FB00557068A04273
:100B3000EDD82846BDE8F0872DE9F0470025984616
:100B400091468A4606462C460EE0224649463046E5
:100B500000F059F8076842462146504600F053F825
:100B60000078641C07FB00557068A042EDD8284649
:100B7000BDE8F0872DE9F0411E4617468846054638
:100B80009FED0E0A002413E022463946284600F065
:100B90003AF80078324600EE900A21464046F8EED8
:100BA000600A00F030F890ED001A641C00EE810A33
:100BB0006868A042E8D8BDE8F081000000000000AD
:100BC0002DE9F0470025984691468A4606462C4670
:100BD0000EE022464946304600F015F807784246B6
:100BE0002146504600F00FF80068641C07FB0055D2
:100BF0007068A042EDD82846BDE8F08708B104200F
:100C000070470120704710B50346006888420CD930
:100C10005868904209D9187AFFF7F0FF5C680C33E6
:100C200001FB042100FB013010BD002010BD90F835
:100C30003510022903D0802141650120704705212C
:100C400080F835100068016821F001010160002082
:100C5000704700002DE9F84304464FF00009CDF835
:100C6000009063484FF41651A56D0068B0FBF1F792
:100C70002E6894F85C10082000FA01F131420FD080
:100C800021680A6852070BD50A6822F004020A603C
:100C900094F85C108840A860606D40F001006065C9
:100CA00094F85C104FF0010808FA01F0304208D0C7
:100CB00021684969090604D5A860606D40F002000A
:100CC000606594F85C1004208840304208D02168A8
:100CD0000968890704D5A860606D40F0040060656C
:100CE00094F85C1010208840304218D021680968C0
:100CF000090714D5A86020680168490304D5006875
:100D0000000308D5A16C07E00168C90503D4016898
:100D100021F008010160216C09B12046884794F850
:100D20005C1020208840304231D021680968C90613
:100D30002DD5A86094F8350005282068016806D0F4
:100D4000490347D5006800031DD4616C1CE021F005
:100D5000160101602068416921F080014161206C29
:100D600008B9A06C20B12068016821F00801016079
:100D700094F85C103F208840A86084F8349084F890
:100D80003580216D1FE0E16B09B120468847606D19
:100D900000282BD0606DC00714D0052084F83500E2
:100DA0002068016821F0010101600098401C00905A
:100DB000B84203D820680068C007F6D184F83490A0
:100DC00084F83580E16C002910D001B02046BDE8E0
:100DD000F04308470168C905D5D4016821F0100126
:100DE000016084F8349084F83580CCE7BDE8F8835E
:100DF000240000202DE9F041044600F099F9064650
:100E00005CB1002584F83450022084F83500206855
:100E1000016821F0010101600DE00120BDE8F081D1
:100E200000F086F9801B052805D920206065032085
:100E300084F83500F2E720680068C007F0D1226826
:100E4000116820480140D4E901031843D4E903366E
:100E50003343184363691843A3691843E36918438C
:100E6000236A18430843616A042903D1D4E90B13A8
:100E700019430843106020684069666A20F0070142
:100E800030460E43012704280CD1A06A0643E06ACD
:100E900040B12046FFF740FD20B14020606584F856
:100EA0003570BAE7206846612046FFF721FD94F8C7
:100EB0005C203F2191408160656584F83570002099
:100EC000ACE700003F8010F02DE9F0410446866D4C
:100ED00090F83400002501280DD0012084F834005A
:100EE00094F835700020012F07D084F834000225D3
:100EF0002846BDE8F0810220FBE7022784F8357020
:100F000060652046FFF732FD94F85C103F20884072
:100F1000B0602068016841F01601016020684169F5
:100F200041F080014161206C20B12068016841F0EE
:100F3000080101602068016841F001010160D7E704
:100F400070B5044600F0F4F80546601C02D0044871
:100F50000078044400F0ECF8401BA042FAD370BDC6
:100F6000180000202DE9F84FDFF890B100224FF073
:100F700001084FF0030A4FF00F090BF1040E00BFF8
:100F80000B6808FA02F42340A3426ED14D68022D8B
:100F900001D0122D0ED1D50800EB850CDCF82050C5
:100FA0005607F70E09FA07F6B5430E69BE402E4301
:100FB000CCF82060066855000F790AFA05FC07F0A6
:100FC000030726EA0C06AF40374307604E68012E40
:100FD00005D0022E03D0112E01D0122E0ED187681B
:100FE000CE6827EA0C07AE403E4386604668A643BB
:100FF0000C79C4F30014944034434460C4688E6890
:1010000024EA0C04AE402643C6604C68E4006FD569
:101010003B4C256845F480452560246822F0030593
:1010200004F480440094374C2E19D6F808489507EC
:101030002F0F09FA07F5AC43334DA84201D1002523
:101040002EE0324DA84201D1012529E0304DA842C1
:1010500001D1022524E02F4DA84201D103251FE034
:101060002D4DA84202D104251AE041E02B4DA842A3
:1010700001D1052514E02A4DA84201D106250FE033
:10108000284DA84201D107250AE0274DA84201D1E9
:10109000082505E0254DA84201D1092500E00A25D3
:1010A000BD402543C6F80858DBF800405D464E6851
:1010B0009C43F60300D51C432C60DEF800407546C7
:1010C0004E689C43B60300D51C432C600B4D08357D
:1010D0002C684E689C43F60200D51C432C60074DDB
:1010E0000C352C684E689C43B60200D51C432C601E
:1010F000521C102AFFF444AFBDE8F88F003C0140B9
:101100004438024000300140000002400004024028
:1011100000080240000C024000100240001402408F
:1011200000180240001C024000200240002402403F
:10113000014880687047000018000020024881685C
:101140000278114481607047180000200B4810B5E8
:10115000016841F400710160016841F4806101603F
:10116000016841F480710160032000F097F80020CD
:1011700000F006F800F024F8002010BD003C02400A
:1011800070B50D4D04464FF47A712878B1FBF0F03C
:101190000A490968B1FBF0F000F061FF48B9102C72
:1011A00007D200222146501E00F058F800206C6043
:1011B00070BD012070BD0000180000202400002038
:1011C0001F4808B5016841F480410160006800F4DF
:1011D000804000901A48001F016841F08051016072
:1011E000006800F080500090032000F057F80022C3
:1011F00011466FF00B0000F031F8002211466FF03D
:101200000A0000F02BF8002211466FF0090000F0F0
:1012100025F800221146501F00F020F80022114648
:10122000101F00F01BF800221146901E00F016F867
:101230000022BDE808401146501E00F00FB8000023
:101240004438024000F01F02012191404009800013
:1012500000F1E020C0F8001170470000F0B40E4B20
:101260001B680C46C3F30223C3F10705042D00D904
:101270000425191D072901D2002300E0DB1E0126E9
:1012800006FA05F1491E214099409E40761E1640FF
:101290003143F0BC01F091B80CED00E0064900F0DC
:1012A000070208684FF6FF03184040EA0220034A8D
:1012B00010430860704700000CED00E00000FA05E4
:1012C0002DE9F8431748016841F08051016000683A
:1012D000154F00F08050012600903E64FFF728FF74
:1012E00005464FF47A78114C05E000BFFFF720FF68
:1012F000401B40450DD86068C003F7D57E64FFF7FA
:1013000017FF0546464607E0FFF712FF401BB042B5
:1013100002D90320BDE8F88360688003F4D500207B
:10132000F8E700004038024000000E420070004024
:101330002DE9F0470E46050065D0DFF81481D8F896
:101340000000F7B200F00F00B04207D288F800703A
:10135000D8F8000000F00F00B04254D128683D4C8E
:10136000810712D5400703D5206840F4E050206083
:101370002878000703D5206840F46040206020688A
:10138000A96820F0F000084320602878C0072DD01D
:10139000304968680839012812D0022813D0032880
:1013A00011D00968890700292DDA216821F003018D
:1013B00001432160FFF7BCFE814641F2883A0EE00E
:1013C00009688903EFE709688901ECE7FFF7B0FED8
:1013D000A0EB0901514502D90320BDE8F087206840
:1013E000696800F00C00B0EB810FEFD1D8F8001065
:1013F000404601F00F01B14207D90770006800F0C4
:101400000F00B04201D00120E7E72878400705D55A
:101410002068E96820F4E05008432060287800073D
:1014200006D52068296920F4604040EAC1002060A8
:1014300000F03CF82168084AC1F30311515CC84030
:10144000064908600020FFF79BFE0020C5E700006A
:10145000003C0240083802403842000824000020C6
:101460000148006870470000240000200448054936
:1014700000680968044AC1F38221515CC840704782
:10148000240000200838024048420008044805496A
:1014900000680968044AC1F34231515CC840704792
:1014A000240000200838024048420008154810B5C2
:1014B000006810F00C02144813D01449042A0FD00D
:1014C000082A0ED10F4C241F2268236802F03F0225
:1014D0005B0207D52068C0F38810A0FB010106E07D
:1014E000084610BD2168C1F38811A1FB000100234B
:1014F000FEF778FE2168C1F30141491C4900B0FBA9
:10150000F1F010BD083802400024F40040787D015D
:101510002DE9F84F050076D02878DFF8F8B2BE4CF8
:10152000C00749D0DBF800105846C1F381010129FA
:1015300008D00068C0F3810002280AD1201D00688D
:10154000400206D52068800336D568680028E2D0BE
:1015500032E06868B0F5803F10D0B0F5A02F206869
:1015600010D020F480302060206820F4802020609B
:101570006868A0B1FFF7DCFD06460CE0206840F487
:101580008030F4E740F480202060F7E7FFF7D0FDDB
:10159000801B642873D820688003F7D50CE0FFF720
:1015A000C7FD064605E000BFFFF7C2FD801B6428AB
:1015B000F0D820688003F7D42878DFF860828007AD
:1015C0004FF000093ED5DBF80010584611F00C0F23
:1015D00009D00068C0F3810002280BD18D48001F9C
:1015E0000068400206D42068800715D5E868012805
:1015F00009D111E0E868B8B10120C8F80000FFF790
:1016000097FD064605E002E1FFF792FD801B0228E8
:10161000C0D820688007F7D52068296920F0F80035
:1016200040EAC10020600DE0C8F80090FFF780FD9F
:10163000064604E0FFF77CFD801B02281FD82068C7
:101640008007F7D42878000722D5724E744869695C
:101650006C3671B101210160FFF76AFD074604E0B5
:10166000FFF766FDC01B022809D830688007F7D550
:101670000EE0C0F80090FFF75BFD074605E083E051
:10168000FFF756FDC01B02287ED830688007F7D4CC
:101690002878400768D5DFF87CA100270AF1380ACE
:1016A000DAF80000C0000BD4DAF8001041F08051E5
:1016B000CAF80010DAF80000012700F0805000900E
:1016C000584E3068C00510D4306840F480703060E7
:1016D000FFF72EFD009005E0FFF72AFD0099401A64
:1016E000022851D83068C005F6D54A4EA868683639
:1016F00001280FD00528306810D020F0010030609C
:10170000306820F004003060A868B8B1FFF710FD21
:1017100000900FE0306840F00100F4E740F0040072
:101720003060F7E7FFF704FD0099411A41F2883075
:10173000814264D830688007F4D50EE0FFF7F8FCEA
:10174000009007E0FFF7F4FC0099411A41F288305D
:10175000814254D830688007F4D42FB1DAF80010F1
:1017600021F08051CAF80010A869C0B3DBF800105E
:10177000C1F3810102294AD00228484607D0C8F89F
:101780006000FFF7D5FC00E039E005463AE0474647
:10179000C8F86000FFF7CCFC064604E0FFF7C8FC81
:1017A000801B02282BD820688001F7D4D5E90701D7
:1017B0000843A96A1C4A490802EB01416A6A41EAE6
:1017C0008211084395F82C1040EA01611148001F6E
:1017D000016001203866FFF7ABFC054605E014E028
:1017E000FFF7A6FC401B022809D820688001F7D526
:1017F0000BE000BFFFF79CFC401B022802D903202E
:10180000BDE8F88F20688001F4D40020F8E70120BB
:10181000F6E7000008380240003802400000474266
:10182000800E4742007000400000FFFF10B5FEF739
:101830009EFF10BDFEB5044603200D4684F834001B
:10184000606C032820D0B5F5805F1DD0B5F5006F22
:1018500005D045B1A06B40F00060A06309E02046D0
:1018600001F01CFB02E0204601F0F1FAA16B0143FC
:10187000A163A06B012658B1216840F2FF50886334
:1018800084F834600120FEBDA06B40F08050E4E796
:10189000211DD4E905700EC90095CDE901702068BD
:1018A00000F0EAFD84F834600020FEBD7047F0B51A
:1018B000426E120E93090B70C2F383034B7002F059
:1018C00003028A70426E120CCA70B0F86420120AC9
:1018D0000A7190F864204A71826E4FF6FF73120EFF
:1018E00003EA0212CA80826ECB88C2F3074243EA3F
:1018F0001213CB8002F00F020A72B0F86820C2F314
:101900000722D3094B72C2F380138B72C2F34013C8
:10191000CB72C2F300130B7300264E73446C4FF46A
:10192000007701236CB1012C43D0026840F2FF51D3
:101930009163816B41F08051816380F834300120E4
:10194000F0BD9207120D0A6190F868200C6944EA14
:1019500082020A61C26E0C69120E44EA92140C6192
:10196000C2F3C2040C7502F007024A75C26EC2F3DC
:10197000074254098C75C2F38204CC759207520F4A
:101980000A76B0F86C20C2F307240A7E42EAD41229
:101990000A760A69521C42650D7EAD1CAA4042655A
:1019A0000D7A03FA05F585656D0A6A43C0E91727C4
:1019B0001CE090F868209206920A0A61C26E0C69D7
:1019C000120E44EA02220A61C26E0C69C2F3074297
:1019D00014430C61B0F86C20C2F307240A69521C4E
:1019E0004FEA82224265C0E916720766C4F380128C
:1019F00001F8192F4FEA84624FEA52624A7010F8D8
:101A00006C2F4C7844EAD2144C7002F07F028A703A
:101A100042684FEA12624FEAD214CC70C2F341140A
:101A20000C71C2F382044C714FEA82724FEA127257
:101A30008A7142688C79C2F3074244EA92148C712D
:101A4000C2F34014CC710E7202F001024A72828815
:101A5000C2F307224FEAD2148C72C2F38014CC7204
:101A6000C2F340140C73C2F300144C73C2F381042C
:101A70008C7302F00302CA7300794FEA50000874B5
:101A80004B744FF00000F0BD426C0A60826C4A60FB
:101A9000C26C8A60026DCA60426D0A61826D4A61E1
:101AA000C26D8A61006EC8610020704770B504463F
:101AB000B0F8500000250104206800F05CFE18B169
:101AC000A16B0143A16304E00021206800F0C8FC81
:101AD0000546C5F3432070BD70B504460068416BF0
:101AE0004FF00105CA0540F23A3149D52A02826316
:101AF0002068C26B8A43C263206B0007206B22D52B
:101B0000800702D4206B800609D5206800F064FEAF
:101B100028B1A16B0143A1632046FFF7C7FE2168EE
:101B200040F2FF50886384F83450206BC00702D124
:101B3000206B800703D5204600F002FA70BD2046D6
:101B400000F002FA70BD0006FCD5206B800609D5B6
:101B5000206800F041FE28B1A16B0143A16320463B
:101B6000FFF7A4FE206BC007ECD1206B8007E9D4FF
:101B70002068C16A21F00801C16284F83450DEE7B0
:101B8000426B520410D54FF480418163266A0025D0
:101B900006EB8501206800F098FC6D1C082DF7D33A
:101BA000206A2030206270BD426B120410D54FF4C1
:101BB00000418163A66A0025206800F073FC46F8A6
:101BC00025006D1C082DF7D3A06A2030A06270BDDF
:101BD000426B40F23A231A42F9D0426B920703D586
:101BE000A26B42F00202A263426B120703D5A26B02
:101BF00042F00802A263426B920603D5A26B42F048
:101C00002002A263426BD20603D5A26B42F01002FF
:101C1000A263426B920503D5A26B42F00802A26355
:101C200040F2FF7282632068C26B8A43C263206BFA
:101C3000000623D5206C58B115490165206CFEF7CC
:101C4000F6FF0028C3D0206CBDE8704000F0ADBFA7
:101C5000E06B58B10F490165E06BFEF7E8FF002823
:101C6000B5D0E06BBDE8704000F074BF0020A06309
:101C700084F834502046FFF7D9FD70BD206B000773
:101C8000FBD584F834502046FFF710FE70BD0000ED
:101C9000AB2B0008552B000870B5040004D094F855
:101CA0003400002510B105E0012070BD25772046E5
:101CB00000F038F8032084F83400204600F008F8DB
:101CC000A5632563012084F83400002070BD000066
:101CD000FEB50025044676200095CDE901502B463F
:101CE0002A462946206800F0C7FB0D4E46F8A05F43
:101CF000206800F0D3FB012535600220FFF720F9B2
:101D0000204601F053F820B9204600F0DCFF0028FF
:101D100005D084F83450A16B0143A1630120FEBDBE
:101D2000008025422DE9F04F054600683D4987B007
:101D3000884274D13C4800683B4940F40060086028
:101D40000868022400F4006005904FF4F850CDE9D3
:101D5000000402AA002003264FF00C0882E841018B
:101D600069463248FFF7FEF802AA002082E84101E6
:101D70000427CDE9007469462D48FFF7F3F82E4C8F
:101D80002C484FF00068C4E9000800204FF4806937
:101D9000A060C4E90309B8024FF4804BC4E9050B05
:101DA000C4E909764FF0200A0020C4E907A07E05A7
:101DB000B7102046C4E90B67FFF71CF818B1832160
:101DC0001EA001F081FBEC63A5631B4C1948603435
:101DD0004830C4E900084020A0600020C4E903099D
:101DE000C4E907A00420606204F12802032082E80D
:101DF000C1004FF48051C4E9051B2046FEF7FAFFED
:101E000018B198210DA001F05FFB2C64002211464F
:101E10003120A563FFF722FA3120FFF713FA07B04C
:101E2000BDE8F08F002C0140443802400008024019
:101E3000000C024058640240086C02202E2E2F53E2
:101E400072632F7364696F2E630000002DE9F04305
:101E5000154687B01F460A00044607D094F83400A0
:101E6000012807D0022007B0BDE8F083A06B40F046
:101E7000006008E00020A063E36DE919994204D9ED
:101E8000A06B40F00070A06351E0032184F834108F
:101E900021688146C8622168CB6B43F49573CB639C
:101EA000E36B24494FEA4728D963E36B2249D9649D
:101EB000E16B4FEA980308652168E06B8031FFF71A
:101EC00003F81E4801260660606C012800D06D02F0
:101ED0004FF0FF30CDE900089020029002200596D7
:101EE000CDE903096946206800F0A4FA4FF40071B7
:101EF000206800F023FB40F2FF5880B9012F06D97B
:101F0000822020632946206800F0A6FB05E081209E
:101F100020632946206800F0B8FB0028A3D022687F
:101F2000C2F83880A16B0143A16384F834600120BA
:101F300099E70000172B0008C12A00088C8525426C
:101F400010B5FEF74FFC10BD10B5FEF75FFC10BDDD
:101F50002DE9F04F87B01F4615465FEA010B044696
:101F600007D094F83400012807D0022007B0BDE85C
:101F7000F08FA06B40F0006008E00020A063E26DED
:101F8000E919914204D9A06B40F00070A06339E0D8
:101F9000032184F8341021688046C8622168CA6B26
:101FA00042F01A02CA63226C2349D163226C23498E
:101FB000D164216C0865606C012800D06D024FF47B
:101FC0000071206800F0BAFA012640F2FF5988B982
:101FD0004FF0900A012F06D9A020206329462068DF
:101FE00000F014FC05E0C4F830A02946206800F099
:101FF00026FC48B12268C2F83890A16B0143A16366
:1020000084F834600120B1E70D48066022687D0243
:10201000AB0859468032206CFEF756FF4FF0FF3078
:102020008DE82104CDE90486CDF80C80694620684E
:1020300000F000FA002099E79D2B0008C12A000853
:102040008C8525424FF0E0210428086903D020F058
:1020500004000861704740F00400FAE7704710B5CB
:10206000401EB0F1807F01D3012010BD4FF0E0246D
:1020700060610F21601700F0A0F90020A061072027
:102080002061002010BD10B5FFF7E8FF10BD70B54E
:10209000040004D094F83900002510B106E00120B6
:1020A00070BD84F83850204600F022F8242084F8CF
:1020B00039002068C16821F40051C160204601F058
:1020C00079F82068016921F4904101612068416933
:1020D00021F02A0141612068C16841F40051C160CA
:1020E000E563202084F8390084F83A00002070BDB0
:1020F00000B500680E4987B0884217D10D480168C5
:1021000041F0100101600068694600F01000059080
:102110004FF4C06000900220019001200290032043
:102120000390072004900448FEF71CFF07B000BD91
:102130000010014044380240000002402DE9F843FD
:10214000044690F839001F4616460D46202850D107
:10215000A5B19EB194F8380001284AD0012084F836
:1021600038004FF00008C4F83C80212084F8390082
:10217000FEF7DEFFA6848146E68426E00120BDE866
:10218000F883E08C401EE084A0684B46B0F5805F89
:102190004FF000024FF080012046009703D001F07D
:1021A0005FF9E8B90DE001F05BF9C8B9288821684A
:1021B000C0F308004860206908B16D1C05E0AD1C43
:1021C00003E0216815F8010B4860E08C0028D8D1A5
:1021D0004B46002240212046009701F041F908B10A
:1021E0000320CCE7202084F8390084F838800020D0
:1021F000C5E70220C3E7FEE70D4808B5016841F4D2
:10220000800101600068002200F480000090114607
:102210003B20FFF723F83B20FFF714F8002211467C
:102220004520FFF71BF8BDE808404520FFF70AB836
:102230003038024010B504490448FEF7ACFB0249AF
:10224000491E087010BD0000110000201C4200084B
:10225000114808B5016841F080010160016801F092
:1022600080010091016841F004010160016801F002
:1022700004010091016841F001010160016801F071
:1022800001010091016841F008010160006800F05F
:102290000800009008BD000030380240064805499B
:1022A0000160002141608160C16001614161816123
:1022B00070470000002C0140846B02200D4810B5CF
:1022C0000B4901604FF4E1314160002181600C2233
:1022D000C160C0E904128161C161FFF7D8FE002826
:1022E00005D0BDE810404C2103A001F0EDB810BDB1
:1022F00000100140C86C02202E2E2F5372632F75E0
:10230000736172742E6300002DE9FF4F9946B0FB94
:10231000F2F3002602FB1303002BB0FBF2F3DDF80F
:1023200004E0DDF834B035463446314602D0DB1CDB
:10233000002719E09B1CFBE71BF805A0002000BF4D
:102340004FF0800828FA00F81AEA080F01D19EB170
:1023500019E00026B9FBF2FC7F1CBC4508D0401CEC
:10236000C0B20828ECD36D1CB9FBF2F0B842E3D838
:10237000002004B0BDE8F08F019900EBC50404FB18
:10238000021E2C460146761C9E42E3D18020022B81
:102390000ED0491CC9B2082901D10021641C20FAC1
:1023A00001F61BF8045035430BF804505B1EEEE7B2
:1023B0000EEB0200DDE7FEE770470907090E002873
:1023C00006DA00F00F0000F1E02080F8141D7047DD
:1023D00000F1E02080F800147047704770B50646A1
:1023E00000250FA001F082F811E00EA001F07EF8A8
:1023F000002405E022462946304600F01FFE641CFA
:102400007068A042F6D808A001F070F86D1C306822
:10241000A842EAD8BDE8704005A001F067B8000006
:102420007B0D0A00095B20005D2C0D0A00000000F6
:102430007D0D0A000A6842624A688262D1E902237D
:102440001A43D1E904310B43C16A1A4321F0F70161
:102450001143C16200207047006800F0030070471C
:1024600008B5084414300090006808BD0148FFF723
:1024700033BB0000846B022070B50DF1100C1143CA
:102480009CE870002343194329434268314347F6CF
:10249000FF639A430A434260002070BD032101603C
:1024A00000207047D0F8800070470A688260D1E948
:1024B00001231A43D1E903310B43C1681A436FF377
:1024C0000B011143C160002070470968C0F88010FB
:1024D0000020704710B586B004463720CDE90010C3
:1024E00040200290002003904FF4806004906946E1
:1024F0002046FFF7DAFF41F288323721204600F00C
:10250000B7F906B010BD000010B504460A4886B001
:1025100001432920CDE900104020029000200390C3
:102520004FF48060049069462046FFF7BEFF2046C6
:1025300000F054FA06B010BD0000108010B586B04F
:1025400004461020CDE900104020029000200390A6
:102550004FF48060049069462046FFF7A6FF41F2E1
:1025600088321021204600F083F906B010BD10B566
:1025700086B004460620CDE90010402002900020DD
:1025800003904FF48060049069462046FFF78DFF6A
:1025900041F288320621204600F06AF906B010BDEB
:1025A00030B585B000240546009401944FF4806056
:1025B0000294CDE9034069462846FFF776FF0B48B1
:1025C0004FF4FA510068B0FBF1F041F28831484312
:1025D000401E03D24FF0004005B030BD696B0906C4
:1025E000F6D540F2FF50A8632046F5E7240000200E
:1025F00070B585B004464FF4D57000900820402691
:10260000CDE901060025C001CDE903506946204609
:10261000FFF74BFF0F484FF4FA510068B0FBF1F0A1
:1026200041F288314843401E02D24FF000450DE090
:10263000616B11F0450FF6D0606B400702D5A663C1
:10264000042503E0606B400600D5A66305B028466C
:1026500070BD00002400002010B586B00446122092
:10266000CDE9001040200290002003904FF48060DC
:10267000049069462046FFF718FF41F28832122184
:10268000204600F0F5F806B010BD10B586B004463F
:102690001120CDE9001040200290002003904FF45B
:1026A0008060049069462046FFF7FFFE41F28832C1
:1026B0001121204600F0DCF806B010BD10B586B040
:1026C00004460720CDE9002040200290002003901E
:1026D0004FF48060049069462046FFF7E6FE41F221
:1026E00088320721204600F0C3F806B010BD10B5AF
:1026F00086B0044600210220CDE90010C020CDE9BB
:1027000002014FF48060049069462046FFF7CDFE39
:10271000204600F03BF906B010BD10B586B0044667
:102720000920CDE90010C0200290002003904FF452
:102730008060049069462046FFF7B7FE204600F00F
:1027400025F906B010BD10B586B00446002133202F
:10275000CDE900104020CDE9020100010490694656
:102760002046FFF7A2FE41F288323321204600F0D6
:102770007FF806B010BD10B586B004460D20CDE937
:10278000001040200290002003904FF480600490DD
:1027900069462046FFF789FE41F288320D21204626
:1027A00000F066F806B010BD30B585B00C460546A1
:1027B00000210320CDE900104020CDE902010001F5
:1027C000049069462846FFF770FE224603212846FA
:1027D00000F024F905B030BD10B586B004460021E4
:1027E0000C20CDE900104020CDE902010001049049
:1027F00069462046FFF759FE034A0C21204600F0A7
:1028000037F806B010BD000000E1F50510B586B040
:1028100004461920CDE900104020029000200390CA
:102820004FF48060049069462046FFF73EFE41F277
:1028300088321921204600F01BF806B010BD10B5F3
:1028400086B004461820CDE90010402002900020F8
:1028500003904FF48060049069462046FFF725FE00
:1028600041F288321821204600F002F806B010BD6F
:10287000444B10B51B684FF4FA54B3FBF4F35343C5
:102880005B1E02D24FF0004010BD426B12F0450FAC
:10289000F6D0426B520703D504218163084610BD70
:1028A000426BD20702D00121816303E00269D2B2F8
:1028B0008A4201D0012010BD40F2FF518163002106
:1028C000FFF7CEFD3049084201D1002010BD00289D
:1028D00002DA4FF0007010BD410001D5402010BD5C
:1028E000810001D5802010BDC10002D54FF4807059
:1028F00010BD010102D54FF4007010BD410102D599
:102900004FF4806010BDC10102D54FF4006010BDCE
:10291000010202D54FF4805010BD410202D54FF4A0
:10292000005010BD810202D54FF4804010BDC1029D
:1029300002D54FF4004010BD410302D54FF40030E2
:1029400010BD810302D54FF4802010BDC10302D514
:102950004FF4002010BD010402D54FF4801010BDCB
:10296000410402D54FF4001010BD810402D54FF48C
:10297000800010BD000702D54FF4000010BD4FF4D9
:10298000803010BD2400002008E0FFFD12494FF404
:10299000FA520968B1FBF2F141F288325143491E03
:1029A00002D24FF000407047426B12F0450FF6D054
:1029B000416B490703D50421816308467047416B89
:1029C000C90703D0012181630846704740F2FF51D7
:1029D0008163002070470000240000200E494FF45E
:1029E000FA520968B1FBF2F141F288325143491EB3
:1029F00002D24FF000407047426B12F0450FF6D004
:102A0000416B490703D5042181630846704740F2B2
:102A1000FF51816300207047240000201F4B10B538
:102A20001B684FF4FA54B3FBF4F341F28834634368
:102A30005B1E02D24FF0004010BD446B14F0450FF6
:102A4000F6D0436B5B0703D504218163084610BDB4
:102A5000436BDB0702D00121816303E00369DBB232
:102A60008B4201D0012010BD40F2FF518163002153
:102A7000FFF7F6FC10F4604F04D0410406D54FF484
:102A8000005010BD000C1080002010BD000402D5C5
:102A90004FF4805010BD4FF4803010BD2400002052
:102AA00010B5064C01202070FDF768FE18B920789B
:102AB00020F001002070207810BD000004000020EC
:102AC00010B5846BE06B406D012803D0206C406D25
:102AD00001281CD1216840F2FF5088632068C16B37
:102AE00021F49D71C163A06B40F08040A06320463B
:102AF000FEF7DCFF062801D0052805D12068FFF786
:102B00006BFEA16B0843A063012084F834002046CB
:102B1000FEF7CCFE10BD10B5846B206B822809D166
:102B20002068FFF759FE28B1A16B0143A16320463D
:102B3000FEF7BCFE2068C16A21F00801C16221686D
:102B400040F2FF508863012084F834002046FFF7EC
:102B5000F7F910BD70B5846B0025E06B00B1E5633B
:102B6000206C002816D12046FEF7A0FFA5630121A6
:102B700084F83410062801D005280BD12068FFF70F
:102B80002BFEA16B0843A063A06B0028204602D057
:102B9000FEF74CFE70BDFEF789FE70BD806B0068CD
:102BA000C16B41F48071C163704770B5846B0025BF
:102BB000206C00B12564E06B002816D12046FEF79A
:102BC00075FFA563012184F83410062801D005287B
:102BD0000BD12068FFF700FEA16B0843A063A06B38
:102BE0000028204602D0FEF721FE70BDFEF75EFEF3
:102BF00070BD2DE9F04F89B00E460446FEF798FAF5
:102C000000258346009501952F4608212068FFF78F
:102C100095FC002834D1B4F8500001042068FFF777
:102C200059FC00282CD1401E4FF00808CDE90208BD
:102C300030204FF00209CDE904090120CDE90670EA
:102C400002A92068FFF7F6FB2068FFF77CFD00284B
:102C500016D1EA4640F22A472068416B394212D128
:102C6000416B890204D5FFF71DFC4AF825006D1C55
:102C7000FEF75EFAA0EB0B00401CEDD14FF00040D8
:102C800009B0BDE8F08F416B090703D5C0F8388063
:102C90000820F5E7416B890703D5C0F8389002207A
:102CA000EEE7416B890603D5202181630846E7E7FB
:102CB00040F2FF518163009800BA7060019800BA39
:102CC00030600020DCE710B590B004460120ADF87C
:102CD00038002068FFF7C0FB002864D0606C032830
:102CE00042D02068FFF703FD00285AD10021206858
:102CF000FFF7B6FB606704212068FFF7B1FBA06710
:102D000008212068FFF7ACFBE0670C212068FFF783
:102D1000A7FBC4F88000606C032825D00EA92068AA
:102D2000FFF742FD00283CD1606C03281CD0BDF8A1
:102D30003800206501042068FFF7EFFC002830D13F
:102D400000212068FFF78CFB606604212068FFF7F4
:102D500087FBA06608212068FFF782FBE0660C2154
:102D60002068FFF77DFB206704212068FFF778FBD0
:102D7000000DE06403A92046FEF799FDB4F8500069
:102D8000002302042068FFF799FC002809D104F110
:102D9000100007C88DE8070094E80F00FFF76CFBF0
:102DA000002010B010BD4FF08060FAE72DE9F84325
:102DB0000025044600950068FFF7F2FB00281AD1B1
:102DC0002068FFF715FC4FF080784FF6FF76D8B1FA
:102DD0004FF08057A5640098411C0091B0421AD072
:102DE00000212068FFF776FB20B900212068FFF75B
:102DF0008BFB10B13846BDE8F88300212068FFF74F
:102E00002FFBC00FE7D01FE00127A7640098411CEB
:102E10000091B04201D14046EDE700212068FFF764
:102E200059FB0028E7D14FF080412068FFF76CFB89
:102E30000028E0D100212068FFF712FBC10FE5D088
:102E4000400001D5676400E065640020D3E71CB54D
:102E5000044600200090019000212068FFF700FB4D
:102E6000800102D54FF400601CBD69462046FFF783
:102E7000C0FE0028F8D10198C0030CD5B4F850006A
:102E800001042068FFF726FB0028EDD1002120680F
:102E9000FFF76DFB1CBD4FF080601CBD1CB50446E8
:102EA00000200090019000212068FFF7D9FA8001EE
:102EB00002D54FF400601CBD69462046FFF799FE1D
:102EC0000028F8D1019840030CD5B4F85000010453
:102ED0002068FFF7FFFA0028EDD102212068FFF7F4
:102EE00046FB1CBD4FF080601CBD000070B5064C59
:102EF000054601202070FDF74DFC18B92846FFF764
:102F0000CFFD2070207870BD0400002010B512485D
:102F100088B014460078C00702D0032008B010BD66
:102F2000C1B1012905D0022908D003290CD0042001
:102F3000F4E76846FDF71CFC06980AE06846FDF7D2
:102F400017FC0798208005E06846FDF711FC0798FC
:102F5000400A20600020E1E7040000202DE9F04154
:102F6000184C4FF00008164608460125C4F80880A2
:102F70001A463146FDF728FCF0B9FEF7D9F80646A7
:102F800047F23057A06820B9FEF7D2F8801BB8424C
:102F9000F8D3A06828B1C4F80880FEF7C9F8044641
:102FA00005E0012508E000BFFDF7E8FB38B1FEF7BA
:102FB000BFF8001BB842F7D32846BDE8F0810025D2
:102FC000FAE7000004000020FFF76ABD2DE9F04198
:102FD000184C4FF00008164608460125C4F8048036
:102FE0001A463146FDF704FCF0B9FEF7A1F8064693
:102FF00047F23057606820B9FEF79AF8801BB84254
:10300000F8D3606828B1C4F80480FEF791F804464C
:1030100005E0012508E000BFFDF7B0FB38B1FEF781
:1030200087F8001BB842F7D32846BDE8F081002599
:10303000FAE70000040000207047000010B5037A92
:103040008BB1012B13D0022B19D1FDF7DCFD0068E9
:10305000FDF70BF941EC100BBDE8104053EC102BC1
:1030600007A000F043BAFDF7CEFD017802E0FDF7BE
:10307000CAFD0168BDE8104003A000F037BA10BDDA
:1030800025662C090000000025642C0900000000C2
:1030900010B5FEF753F8BDE81040FEF7F4BF00008E
:1030A00070B5294892B00025016841F08051016057
:1030B000006800F0805011902448016841F44041BC
:1030C00001600068022400F440401190012000904B
:1030D000000401908001CDE906400F260896D82013
:1030E000CDE9090408200B906846FEF711FA08B1F3
:1030F000C72113E0FEF7E4F808B1CE210EE04FF44B
:10310000A050CDE90E504FF48050CDE90C641090E2
:1031100005210CA8FEF70CF918B1DC210CA000F079
:10312000D3F9FEF79DF94FF47A71B0FBF1F0FEF799
:1031300096FF0420FEF786FF00221146501EFEF780
:103140008DF812B070BD00004038024000700040A1
:103150002E2E2F5372632F6D61696E2E6300000057
:103160001048016841F4700101600F48016841F0A6
:10317000010101600C4A00210832116002680B4B0A
:103180001A400260031D0A4A1A60026822F4802273
:10319000026005480C300160024958068039086019
:1031A0007047000088ED00E000380240FFFFF6FEA7
:1031B000103000242DE9F04104460068016921F433
:1031C0004052E168114301612168C86849F20C620C
:1031D00090432369A268E5691A4363692B431A4344
:1031E0000243CA602168486920F44072A069104314
:1031F0004861E1696425B1F5004F9748974A216815
:103200004FF032083FD0914201D081427CD1FEF78D
:103210003DF900EBC00101EB001061688900B0FBD3
:10322000F1F6FEF733F900EBC00101EB0010616825
:103230008900B0FBF1F0B0FBF5F06FF018014843E6
:1032400006EB800108EB0110B0FBF5F000F0F00692
:10325000FEF71CF900EBC00101EB0010616889006A
:10326000B0FBF1F0B0FBF5F006EB0016FEF70EF93F
:1032700000EBC00101EB001061688900B0FBF1F7C1
:10328000FEF704F9D2E0914201D081423DD1FEF730
:10329000FDF800EBC00101EB001061684900B0FBD4
:1032A000F1F0B0FBF5F00601FEF7F0F800EBC0011D
:1032B00001EB001061684900B0FBF1F7FEF7E6F89A
:1032C00000EBC00101EB001061684900B0FBF1F0B8
:1032D000B0FBF5F06FF01801484307EB800108EBF5
:1032E000C100B0FBF5F000F0F80006EB4006FEF779
:1032F000CDF800EBC00101EB001061684900B0FBA4
:10330000F1F7FEF7C3F83CE055E0FEF7AFF800EB4D
:10331000C00101EB001061684900B0FBF1F0B0FBA7
:10332000F5F00601FEF7A2F800EBC00101EB00107A
:1033300061684900B0FBF1F7FEF798F800EBC001B7
:1033400001EB001061684900B0FBF1F0B0FBF5F053
:103350006FF01801484307EB800108EBC100B0FB98
:10336000F5F000F0F80006EB4006FEF77FF800EB02
:10337000C00101EB001061684900B0FBF1F7FEF7F6
:1033800075F800EBC00101EB001061684900B0FB6B
:10339000F1F0B0FBF5F06FF01801484307EB800146
:1033A00008EBC100B0FBF5F000F0070021683044E5
:1033B0008860BDE8F081FEF759F800EBC00101EB31
:1033C000001061688900B0FBF1F6FEF74FF800EBE2
:1033D000C00101EB001061688900B0FBF1F0B0FBA7
:1033E000F5F06FF01801484306EB800108EB01107F
:1033F000B0FBF5F000F0F006FEF738F800EBC00186
:1034000001EB001061688900B0FBF1F0B0FBF5F052
:1034100006EB0016FEF72AF800EBC00101EB0010E6
:1034200061688900B0FBF1F7FEF720F800EBC001FE
:1034300001EB001061688900B0FBF1F0B0FBF5F022
:103440006FF01801484307EB800108EB0110B0FB57
:10345000F5F000F00F00A9E7001401400010014052
:103460002DE9F041984617460E460446069D1DE09C
:10347000681C1BD02DB1FDF75BFEA0EB0800A84235
:1034800014D92068C16821F4D071C16020684169F5
:1034900021F001014161202084F8390084F83A00CC
:1034A000002084F838000320BDE8F081206800681F
:1034B00036EA000004D00020B842D9D00020F3E75B
:1034C0000120F9E7FEE700000A46014601A000F0EE
:1034D0000DF8FEE746494C45203A2573202C6C69CF
:1034E0006E65203A2025640D0A0000000FB4054BDC
:1034F00010B503A9044A029800F0DAF810BC5DF890
:1035000014FB0000E13D00082800002002E008C88C
:10351000121F08C1002AFAD170477047002001E04D
:1035200001C1121F002AFBD1704700002DE9FF5F87
:1035300082B00021DDE90430020DDDF840B0034324
:1035400018D044F61050A2F2FF32424315141198DD
:1035500001281FD0A5EB0B00401C5FEA000A4FF0CA
:1035600000064E4FDFF83891B046504615D5CAF1E7
:10357000000413E0119801244AA3012801D16FEA45
:103580000B010298119AC0E90031C0E9024206B06D
:10359000BDE8F09FCBF10000DFE704460021404A80
:1035A000491842EB0450CDE9001012E0E00707D0C3
:1035B00032463B4640464946FCF746FF8046894630
:1035C00032463B4610461946FCF73EFF06460F467C
:1035D0006410002CEAD1DDE90401DDE90023BAF131
:1035E000000F06DAFCF730FF42464B46FCF72CFF93
:1035F00005E0FCF79BFF42464B46FCF797FF04466D
:103600000E460022284BFDF719F803D84FF0FF3083
:10361000014607E00022254B20463146FCF76DFEAF
:10362000FCF7F3FF102409E0002C0ADB0A22002338
:10363000FCF7D8FD039B30321A55641E50EA010294
:10364000F2D1641C039AC4F111031444119A012AA3
:1036500003D0012208430DD10AE0084304D0002022
:103660004FF0110B119072E7A3EB0B056D1E0DE0EF
:103670005B4504DD4FF0000205F1010504E003DACB
:103680004FF00002A5F10105002AECD00298119933
:10369000C0E90231C0E9004579E7000000001440AC
:1036A0000000F03F300000000000F0430000E03F69
:1036B0002DE9FF4F95B09B468946064600250FE24F
:1036C000252877D100242746F84A0121059400E0F7
:1036D000044316F8013F203B01FA03F01042F7D1F2
:1036E00030782A2811D06FF02F033078A0F1300203
:1036F000092A16D8059A44F0020402EB820203EB71
:1037000042021044761C0590EFE759F8042B05920D
:10371000002A03DA504244F40054059044F00204B5
:10372000761C30782E2816D116F8010F44F00404C8
:103730002A280DD06FF02F023078A0F13003092B2A
:1037400009D807EB870302EB4303C718761CF3E79E
:1037500059F8047B761C30786C280FD006DC4C2896
:1037600017D068280DD06A2814D104E0742810D02E
:103770007A280FD10DE044F400140AE044F48014D8
:1037800001E044F440147278824202D104F58014BE
:10379000761C761C307866280BD013DC582877D03E
:1037A00009DC002875D04528F6D04628F4D04728F3
:1037B0001AD19DE118E0632835D0642879D06528B6
:1037C00012D195E1702873D008DC6728F1D0692800
:1037D0006FD06E280DD06F2806D1B5E073282CD09D
:1037E000752875D0782874D05A46179990476D1C63
:1037F00075E1C4F30250022809D003280DD0D9F88E
:10380000001004280DD00D6009F1040967E1D9F812
:103810000010EA17C1E90052F6E7D9F800100D8050
:10382000F2E70D70F0E719F8041B8DF80010002086
:103830008DF80100EA46012003E059F804AB4FF08F
:10384000FF3061074FF0000102D40DE008F10101E3
:103850008846B9420FDA8045F8DB1AF808100029CB
:10386000F4D108E008F1010188468142FADB1AF838
:1038700008100029F6D105985B46A0EB0807214601
:103880003846179A00F094FA284400EB080507E040
:103890004DE029E10DE01AF8010B5A4617999047BF
:1038A000B8F10108F7D25B4621463846179A13E172
:1038B00042E00A220092C4F302524FF0000A022AA8
:1038C00008D059F804CB032A4FEAEC710AD00DE076
:1038D00029E02AE009F1070121F00702F2E802C11C
:1038E000914609E00FFA8CFC4FEAEC71042A03D1EF
:1038F0004FFA8CFC4FEAEC71002907DA0A460021E6
:10390000DCF1000C61EB02012D2202E0220504D55E
:103910002B228DF80420012203E0E20701D02022AF
:10392000F7E7904659E00A2102E010220DE010214D
:103930004FF0000A00910BE010224FF0000A44F013
:1039400004040827009203E008224FF0000A0092C6
:10395000C4F30252022A05D059F804CB0021032AED
:1039600008D009E009F1070121F00702F2E802C1DD
:10397000914605E01FFA8CFC042A01D10CF0FF0CE3
:103980004FF00008220728D5702806D0009B83F04E
:10399000100353EA0A0305D00EE040228DF80420FC
:1039A000012208E05CEA010206D030228DF80420F2
:1039B0008DF8050002229046009B83F0080353EA2D
:1039C0000A030AD15CEA010201D1620705D530225F
:1039D0008DF804204FF001087F1E582804D034A031
:1039E00003900EA802900DE036A0F9E7534660461A
:1039F000009AFCF7F7FB84460398825C0298401E0D
:103A0000029002705CEA0100F0D1029806A9081A3F
:103A100000F1200A600702D524F4803400E0012779
:103A2000574502DDA7EB0A0000E0002000EB0A0189
:103A3000009005984144401A0590E00306D45B4687
:103A40002146179A059800F0B3F90544002706E0CF
:103A500001A85A46C05D179990476D1C7F1C4745C9
:103A6000F6DBE0030CD55B462146179A059800F07B
:103A70009FF9054404E030205A46179990476D1C81
:103A80000099481E00900029F5DC08E00298029990
:103A90005A460078491C0291179990476D1CBAF15B
:103AA0000001AAF1010AF1DC65E10000092801002A
:103AB00030313233343536373839616263646566A4
:103AC0000000000030313233343536373839414266
:103AD000434445460000000000F058F90544761CB8
:103AE000307800287FF4ECAD19B02846BDE8F08F9F
:103AF000620700D4062709F1070222F0070CFCE850
:103B00000223E14603F000485FEA080C02D00FF2FE
:103B1000702C0DE05FEA045C02D50FF2682C07E020
:103B20005FEAC47C02D00FF2602C01E0AFF2700CAF
:103B30004FF0FF3823F00043CDF850C065280CD07B
:103B400006DC452809D046281DD047283DD13DE058
:103B5000662818D067287ED138E00021112F01DBBC
:103B6000112000E0781CCDE9000106A90EA8FFF79E
:103B7000DDFCDDE90F010E9A03910021009207F1AF
:103B8000010A04914DE04FF000400097CDE901108B
:103B900006A90EA8FFF7CAFCDDE90F0203920E9BEF
:103BA00011990022DDF80CA00093049211B9791C40
:103BB00000EB010AB7EB0A0004D4C0F1FF3007F1B3
:103BC000010A0490AAEB0700019044E0012F00DAFB
:103BD00001270021112F01DD112000E03846CDE939
:103BE000000106A90EA8FFF7A1FCDDE90F010E9A5E
:103BF0000391002104910092BA4621070CD4039945
:103C0000514500DA8A46BAF1010F05DD009AAAF1A2
:103C10000101515C302908D0B84202DA10F1040FDA
:103C200006DA0121CDE9011015E0AAF10101E9E769
:103C3000002805DC049901440491AAEB000102E08C
:103C4000411C514500DD8A460499401A401C0190F0
:103C50004FF000400290200704D40198504501DB4A
:103C6000CDF8048000208DF84F0002980DF14F0729
:103C7000B0F1004F25D02B200E9002984FF0020893
:103C800000280CDA404202902D200E9007E00A2115
:103C90000298FCF7FDFA3031029007F8011DB8F1E7
:103CA0000001A8F10108F2DC02980028EFD1791E8A
:103CB0000E980870307800F0200040F0450007F8BA
:103CC000020D12A8C01B00F107081498007800B17B
:103CD000012000EB0A01019801EBE07105984144D5
:103CE000401A401E0590E00306D45B462146179A11
:103CF000059800F05DF805441498007818B15A460C
:103D0000179990476D1CE00324D55B462146179A0E
:103D1000059800F04DF805441CE00498002807DBE6
:103D2000DDE90301884203DD0098405C179901E05A
:103D3000179930205A469047049805F10105401C18
:103D400004900198401E019004D12E205A461799E4
:103D500090476D1CBAF10001AAF1010ADDDC05E013
:103D600017F8010B5A46179990476D1CB8F10001DE
:103D7000A8F10108F4DC5B462146179A0598ABE6EA
:103D80002D0000002B000000200000002DE9F04174
:103D9000044600251E461746880404D405E039462B
:103DA0002020B0476D1C641EF9D52846BDE8F0817F
:103DB0002DE9F041044600251E469046C80301D572
:103DC000302700E02027880404D505E04146384626
:103DD000B0476D1C641EF9D52846BDE8F08100008F
:103DE00013B54FF6FF73012269460248FEF7A6F9A4
:103DF00000981CBDC86C02208EB0FDF7A7F9FFF734
:103E00004FF9FEF725FAFEF7F7F9FEF757FAFEF736
:103E100045FAFEF70FFA22A0FFF768FB23A118224C
:103E2000D1E90001CDE90C0122496846FCF70BFA03
:103E300020491822183106A8FCF705FA00220221B1
:103E4000032000F0ADF906460CA900F001F9304658
:103E5000FEF7C4FA02220321104600F0A1F905463C
:103E6000694600F0F5F82846FEF7B8FA0222114636
:103E7000032000F095F9044606A900F0E9F8204671
:103E8000FEF7ACFA2146304600F016F8FEF7A6FA27
:103E90002146284600F0EEF8FEF7A0FAFEE7000003
:103EA0000D0A73746172743A0D0A00000102030472
:103EB00005060000EC4100082DE9F04789468046E0
:103EC00000680968884276D1D8F80410D9F804202F
:103ED000914270D198F808200025022A08D099F85C
:103EE0000820022A04D0012200F05AF9044688E092
:103EF0000222F9E700267FE0207A022898F80800DD
:103F000008D001285FD0324629464046FCF77BFEA8
:103F1000077880E002281DD0012832462946404615
:103F20004AD0FCF770FE007800EE100AB8EE400AA6
:103F3000324629464846FCF766FED0ED000A30EED0
:103F4000200A6068684304EB800000EB860080ED87
:103F5000030A50E099F80800022816D001283246DA
:103F60002946404619D0FCF74EFED0ED000A3246F5
:103F700029464846FCF747FE007800EE100AB8EEE6
:103F8000400A00BF30EE800ADBE732462946404651
:103F9000FCF739FE90ED000ACAE7FCF734FED0EDDD
:103FA000000A324629464846FCF72DFE90ED000AED
:103FB000B8EEC00AE6E735E0FCF725FE90ED000A12
:103FC000B8EEC00AB4E799F808003246012829463D
:103FD00040461DD0FCF717FE076832462946484682
:103FE000FCF711FE007839186068684304EB800024
:103FF00000EB8600C160761C6068B0423FF67CAF83
:104000006D1C2068A8423FF675AF2046BDE8F087DA
:10401000FCF7F9FD0768324629464846FCF7F3FDF0
:104020000068E0E702A0FFF761FA4FF0FF30EDE72C
:10403000B4EDCEF3A3BAC1BDB8F6BED8D5F3D0D097
:10404000C1D0CAFDB2BBCFE0B5C8210D0A00000047
:1040500010B50246007AFCF7D1FDF2E80334634361
:104060004343002002E00C5C1454401C9842FAD3F5
:1040700010BD00002DE9F0410E4607464068096872
:10408000884270D1387A4FF0000802280AD0307A7E
:10409000022807D071680122D7F8000000F080F8EC
:1040A000044656E0716802223868F7E700254BE0C5
:1040B000207A0228387A08D0012833D02B4642468D
:1040C00031463846FCF77CFD35E0022811D0012846
:1040D0002B4642463146384621D0FCF74BFD6068FE
:1040E00000FB08F004EB800000EB850080ED030A84
:1040F00029E0307A022808D001282B464246314672
:10410000384609D0FCF7B0FCE9E72B464246314679
:104110003846FCF763FCE2E7FCF782FCDFE7FCF7DC
:10412000C9FCDCE7307A2B46012842463146384646
:1041300015D0FCF701FD616801FB08F104EB81017A
:1041400001EB8501C8606D1C7068A842B0D808F109
:10415000010839684145A9D82046BDE8F081FCF73F
:10416000CDFCE8E7FFE703A0FFF7C0F94FF0FF3011
:10417000F3E70000B4EDCEF3A3BA41B5C4C1D0CA91
:10418000FDD3EB42B5C4D0D0CAFDB2BBCFE0B5C8B9
:10419000A3ACB2BBC4DCD7F6B3CBB7A80D0A000002
:1041A00070B504460D4616461046FCF727FD04FB85
:1041B00005F148430C30FCF731FB18B1C0E900456C
:1041C000067270BD02A0FFF791F9002070BD0000DB
:1041D0004552524F523AB6AFCCACC4DAB4E6C9EA53
:1041E000C7EBCAA7B0DC0D0A000000000000404089
:1041F0000000803F000000400000A0C000008040A0
:10420000CDCC8C3F000000000000A04000004040EA
:1042100000000040000020410000003FED2E00089B
:10422000C92F00085D2F0008CD2F00080D2F0008B2
:104230000006101600061016000000000000000026
:10424000010203040607080900000000010203043C
:1042500070420008000000202C0000000C3500080F
:104260009C4200082C000020EC7402001C35000861
:10427000000000000100000000000000000000003D
:10428000000000000000000001000000100000001D
:0C429000000000000024F400000000000A
:04000005080001AD41
:00000001FF
