:020000040800F2
:1000000020760220C1010008E52F0008E525000840
:10001000312900082D090008F14300080000000004
:100020000000000000000000000000007D3C00080F
:10003000F50A00080000000007300008B93C00087D
:10004000DB010008DB010008DB010008DB01000820
:10005000DB010008DB010008DB010008DB01000810
:10006000DB010008DB010008DB010008DB01000800
:10007000DB010008DB010008DB010008DB010008F0
:10008000DB010008DB010008DB010008DB010008E0
:10009000DB010008DB010008DB010008DB010008D0
:1000A000DB010008DB010008DB010008DB010008C0
:1000B000DB010008DB010008DB010008DB010008B0
:1000C000DB010008DB010008DB010008DB010008A0
:1000D000DB010008D1430008DB010008DB01000858
:1000E000DB010008DB010008DB010008DB01000880
:1000F000DB010008DB010008DB010008DB01000870
:10010000DB010008B1300008DB010008DB0100085A
:10011000DB010008DB010008DB010008DB0100084F
:10012000DB010008DB0100082D0A0008390A00087D
:10013000DB010008DB010008DB010008DB0100082F
:10014000DB010008DB010008DB010008DB0100081F
:10015000DB010008450A0008DB010008DB0100089C
:10016000DB010008DB010008DB010008DB010008FF
:10017000DB010008DB010008DB01000800000000D3
:10018000DB010008DB010008DB010008DB010008DF
:10019000DB010008DB010008DB010008DB010008CF
:1001A000DB010008DB010008DB010008DFF80CD0F0
:1001B00000F054FB00480047296300082076022025
:1001C0000648804706480047FEE7FEE7FEE7FEE7F1
:1001D000FEE7FEE7FEE7FEE7FEE7FEE78D3D0008EF
:1001E000AD0100082DE9F05F0546002092469B46D0
:1001F00088460646814640241BE02846414647463D
:10020000224600F08AF953465A46C01A914110D34B
:1002100011461846224600F071F92D1A67EB0108C5
:100220004F4622460120002100F068F917EB000933
:100230004E41201EA4F10104DFDC484631462A4627
:100240004346BDE8F09F2DE9FE4F804681EA03005A
:10025000C00F0C46009021F0004123F00045B8EBA0
:100260000200A94105D24046214690461C460B4655
:10027000024623F00040104347D0270DC7F30A0081
:10028000C3F30A510290401A019040286BDAC3F37D
:10029000130040F4801B0098924620B10023D2EB5B
:1002A000030A63EB0B0B01985946C0F1400250461C
:1002B00000F024F906460D4650465946019A00F0D2
:1002C0003CF910EB08006141002487EA115284EAEE
:1002D000E7731A4340D0009A62B3019A012A4FEAA9
:1002E000075215DC001B61EB02014FF0004202EAED
:1002F0000752CDE90042001C41F5801132462B46E1
:1003000000F073F903B0BDE8F08F40462146F9E7ED
:10031000001B61EB0201001C41F5801300185B41DA
:100320002018A2F5001747EB030140EAD570B61973
:100330006D4111E06D084FEA360645EAC0754FEA97
:100340000752001B61EB0201001C41F580114908B6
:100350004FEA30000019514132462B4603B0BDE848
:10036000F04F00F033B90098012240000023D0EB99
:10037000020263EBE073009821464FEAE074B8EBA9
:10038000000061EB0401E9E783F000435BE781F0E3
:10039000004158E72DE9F04D81EA030404F0004BD9
:1003A00021F0004514464FF0000A23F0004150EAC6
:1003B000050220D054EA01021DD0C5F30A570246B7
:1003C000C5F31303C1F31300C1F30A5640F48015BB
:1003D00043F48013A7EB0608101BD64608F2FD383D
:1003E00073EB050002D308F1010801E092185B41AC
:1003F000B8F1000F03DA00200146BDE8F08D0020BF
:100400004FF48011064684460EE0171B73EB050778
:1004100005D3121B63EB050306434CEA010C4908A4
:100420004FEA300092185B4150EA0107EDD152EAE1
:10043000030012D082EA040083EA0501084305D0D4
:10044000101BAB4106D20122002306E000224FF030
:10045000004302E06FF0010253101AEB06004CEB70
:10046000085110EB0A0041EB0B01BDE8F04D00F024
:10047000ADB800F0004230F000400AD0C10D01F5E7
:100480006071C0F3160042EA0151C20840071143EF
:10049000704700200146704701F0004330B421F05E
:1004A000004150EA010206D00A0DA2F56072C1F3C4
:1004B0001301002A02DC30BC00207047440F44EADC
:1004C000C104C100E01830BC00EBC25000F047B8D6
:1004D00030B50B46014600202022012409E021FA14
:1004E00002F59D4205D303FA02F5491B04FA02F511
:1004F0002844151EA2F10102F1DC30BD202A04DBE4
:10050000203A00FA02F1002070479140C2F1200326
:1005100020FA03F3194390407047202A04DB203A65
:1005200021FA02F00021704721FA02F3D040C2F113
:1005300020029140084319467047202A06DBCB175A
:10054000203A41FA02F043EAE07306E041FA02F38E
:10055000D040C2F12002914008431946704700295B
:10056000A8BF7047401C490008BF20F00100704739
:1005700010B4B0FA80FC00FA0CF050EA010404BF99
:1005800010BC704749B1CCF1200421FA04F411FAEF
:100590000CF118BF012121430843A3EB0C01CB1D33
:1005A0004FEA00614FEA102042BF002010BC7047A4
:1005B00000EBC35010440029A4BF10BC7047401C7E
:1005C000490008BF20F0010010BC704710B5141E90
:1005D00073F1000408DA401C41F1000192185B41FC
:1005E0001A4301D120F0010010BD2DE9F04D9246D3
:1005F0009B4611B1B1FA81F202E0B0FA80F22032EA
:100600009046FFF77BFF04460F4640EA0A0041EAA6
:100610000B0153465A46084313D0114653EA0100D2
:1006200019D0C8F140025046FFF777FF05460E4645
:10063000504659464246FFF761FF084305D0012066
:1006400004E020463946BDE8F08D0020054346EA27
:10065000E0762C4337430A986305E40AA0EB0800D0
:100660000022FD0A44EA47540A3002D50020014620
:10067000E9E7010510196941DDE9084500196941FB
:10068000BDE8F04DA2E72DE9FE4F81EA030404F036
:10069000004421F0004100944FF0000B23F0004390
:1006A00050EA01045ED052EA03045BD0C3F30A545B
:1006B000C1F30A552C44A4F2F3340194A0FB025474
:1006C000C1F3130141F48011C3F3130343F4801306
:1006D00001FB024400FB034E840A970A44EA81545A
:1006E00047EA8357A4FB076802958D0A05FB078537
:1006F0004FEA932C04FB0C542705029D4FEA065841
:1007000047EA1637B5EB08056EEB070C870E920E1D
:1007100047EA811742EA8312A7FB0201B6EB0B01FD
:1007200064EB00042B0D43EA0C335E1844EB1C50C1
:10073000DA465146E7FB0201C5F313044FEA0B33D7
:1007400043EA14534FEA0432019C43EA0603A4F13E
:100750000C040294009CCDE900B4FFF746FF03B0FF
:10076000BDE8F08F00200146F9E70EB5C10F80EA21
:10077000E0700844CA07002140F233438DE80E00C0
:100780000A460B46FFF731FF03B000BD70B5C1F359
:100790000A5201F000450024C1F3130140F2FF3377
:1007A00041F480119A4201DA002070BD40F23343D7
:1007B0009A42A2F2334203DC5242FFF7AEFE00E05F
:1007C00090402C43F1D0404270BDC1F30A52C1F3B6
:1007D000130140F2FF3341F480119A4202DA002003
:1007E0000146704740F233439A42A2F2334202DCA0
:1007F0005242FFF792BEFFF781BE000030B5041EE3
:1008000071F1000404DB4FF00044404264EB01014D
:10081000141E73F1000405DB1C464FF000435242E6
:1008200063EB04038B4208BF824230BD30B5041E27
:1008300071F1000404DB4FF00044404264EB01011D
:10084000141E73F1000405DB1C464FF000435242B6
:1008500063EB0403994208BF904230BD064C074D3C
:1008600006E0E06840F0010394E807009847103480
:10087000AC42F6D3FFF79EFCB0730008D0730008BB
:10088000704700000146014801F0ECB90C6C0220F1
:1008900010B5044801F0F8F9042801D0012010BD7A
:1008A000002010BD0C6C022038B501208DF800002E
:1008B0009DF80000012801D0012038BD064801F054
:1008C000D9FA040006D14FF40061034801F0A0F802
:1008D00000B10124204638BD0C6C0220134610B52F
:1008E0000A4601460024034801F09EFB00B10124A2
:1008F000204610BD0C6C0220014901208860704721
:1009000018000020134610B50A460146002403488B
:1009100001F00CFC00B10124204610BD0C6C02203B
:100920000149012048607047180000206C2202A194
:1009300007A003F0A1FDFEE72E2E2F5372632F7345
:10094000746D3332663478785F69742E630000000A
:100950000D0A4275734661756C745F48616E646C14
:100960006572203A2573202C25640D0A00000000D2
:1009700008B5742803D8BDE8084000F00DB8044954
:10098000044B00918422C91A01F07AFF08BD0000CF
:100990000C6B0220C06A02002DE9F843DFF87C806E
:1009A0001F4E204FD8F800108146002579B98422C7
:1009B0003B46F11B1046009601F062FFC8F80000AC
:1009C000002827D0C5670146C0F880501AE001F121
:1009D000800000900C467C230422484601F050FF22
:1009E000002817D1E16F0029F1D184223B460E493E
:1009F0001046009601F044FF01000DD0CD67C1F80C
:100A00008050E16701F1800000907C230422484679
:100A100001F036FFBDE8F8830020FBE7000000206E
:100A20000C6B0220C06A02004C000020014800F05C
:100A3000FFB90000906D0220014800F0F9B90000F4
:100A4000906C0220014800F0F3B90000F06C022025
:100A500001681823CAB2103AB2FBF3F2054B6FF3E8
:100A60000901032A9B5CC36500D9091D81650846FD
:100A7000704700002072000810B5014600208B6905
:100A80008A6A4FF0C07453B1B3F5005F15D072B1EC
:100A9000012A0CD0022A0AD0032A09D104E01AB193
:100AA000012A06D0022A03D1C96AC90100D5012052
:100AB00010BDC96AA142FAD010BD002AF7D0012AA0
:100AC000F2D0022AF3D0032AF3D010BD30B5046867
:100AD000256825F480252560046863608368402BC1
:100AE000036803D099600068C26030BD9A600068F6
:100AF000C16030BD70470022AFF3008030B50E4BAF
:100B0000054601205C7A002C14D1587A1C54587A7E
:100B100003EB800045605D7A03F108002A54587A9F
:100B2000421C5A72303008703A2048702F2088706A
:100B3000CC70002030BD0000106E02202DE9F8437B
:100B40001D4EDFF87880DFF878903468254654B37E
:100B5000A04226D304F17C01884222D8091D0091CD
:100B60007C230422214600F02FF8070016D1D4F888
:100B7000800098B93068844203D1E06F306005E0AE
:100B80000546E86FA042FBD1E06FE8674B46842240
:100B90000C492046CDF8008000F016F83846BDE834
:100BA000F883E46FD3E74B4684220649CDF80080F2
:100BB00000F00AF8F3E70000000000200C6B0220B0
:100BC000C06A02004C000020F0B5059F28B3411A0E
:100BD000B1FBF2F0B1FBF2F1C00801F00701802691
:100BE00007E0A543491CC9B23D54082901D300219F
:100BF000401C26FA01F43D5C254206D0B3FBF2FC12
:100C00000CF1070CB0EBDC0FEBD3B3FBF2F1C91D19
:100C1000B0EBD10F01D20020F0BD0120F0BD016882
:100C2000C07809BA21F0FF0108437047F0B50025EC
:100C30000F460646DFED0E0A2C4613E022463946E3
:100C4000304600F07CF8B4EEE00AF1EE10FA07DD71
:100C500022463946304600F072F8F0EE400A25464A
:100C6000641CE4B27068A042E8D82846F0BD0000D9
:100C700000000000D0E90010484370472DE9F04122
:100C80001E461746884605460024DFED0C0A0EE096
:100C900022463946284600F052F8B0EE401A324655
:100CA0002146404600F04BF841EE000A641C68689B
:100CB000A042EDD8B0EE600ABDE8F081000000006F
:100CC0002DE9F0411E4690460F460546DFED0C0A21
:100CD00000240EE042462146284600F030F8B0EEEF
:100CE000401A32462146384600F029F841EE000A03
:100CF000641C2868A042EDD8B0EE600ABDE8F0811F
:100D00000000000030B5002213466FF02F050CE004
:100D1000521CD2B2845C202CFAD003EB8303E4B2E1
:100D200005EB4303521C2344D2B2845C2C2C01D02B
:100D30000D2CEFD11044401C0860184630BD0368EC
:100D40008B420AD94368934207D94B4300EB830097
:100D500000EB820090ED020A7047BFEE000A704778
:100D600003688B4209D94368934206D94B4300EB91
:100D7000830000EB820008307047002070472DE9A7
:100D8000F0410446876D00F0C1FA064694F835003C
:100D90000025022806D08020606584F834500120A8
:100DA000BDE8F0812068016821F01601016020682B
:100DB000416921F080014161206C08B9A06C20B12B
:100DC0002068016821F0080101602068016821F0B5
:100DD000010101600BE000F099FA801B052806D99B
:100DE0002020606504F8345F03206070D8E7206835
:100DF0000068C007EFD194F85C103F208840B860CD
:100E000004F8345F012060700020C9E790F83510C5
:100E1000022903D08021416501207047052180F817
:100E200035100068016821F0010101600020704761
:100E30002DE9F84304464FF00009CDF800906348CF
:100E40004FF41651A56D0068B0FBF1F72E6894F8C9
:100E50005C10082000FA01F131420FD021680A68C5
:100E600052070BD50A6822F004020A6094F85C105D
:100E70008840A860606D40F00100606594F85C10E7
:100E80004FF0010808FA01F0304208D021684969A2
:100E9000090604D5A860606D40F00200606594F812
:100EA0005C1004208840304208D021680968890716
:100EB00004D5A860606D40F00400606594F85C1093
:100EC00010208840304218D021680968090714D5DD
:100ED000A86020680168490304D50068000308D5AC
:100EE000A16C07E00168C90503D4016821F008017D
:100EF0000160216C09B12046884794F85C102020DD
:100F00008840304231D021680968C9062DD5A860D3
:100F100094F8350005282068016806D0490347D5B4
:100F2000006800031DD4616C1CE021F01601016013
:100F30002068416921F080014161206C08B9A06CF2
:100F400020B12068016821F00801016094F85C106C
:100F50003F208840A86084F8349084F83580216D63
:100F60001FE0E16B09B120468847606D00282BD057
:100F7000606DC00714D0052084F835002068016832
:100F800021F0010101600098401C0090B84203D894
:100F900020680068C007F6D184F8349084F8358062
:100FA000E16C002910D001B02046BDE8F0430847AD
:100FB0000168C905D5D4016821F01001016084F8E9
:100FC000349084F83580CCE7BDE8F8832C0000200D
:100FD0002DE9F041044600F099F906465CB1002580
:100FE00084F83450022084F835002068016821F02C
:100FF000010101600DE00120BDE8F08100F086F9FB
:10100000801B052805D920206065032084F8350061
:10101000F2E720680068C007F0D122681168204814
:101020000140D4E901031843D4E90336334318439C
:1010300063691843A3691843E3691843236A184393
:101040000843616A042903D1D4E90B131943084307
:10105000106020684069666A20F0070130460E4340
:10106000012704280CD1A06A0643E06A40B120465B
:10107000FFF702FD20B14020606584F83570BAE7C3
:10108000206846612046FFF7E3FC94F85C203F218E
:1010900091408160656584F835700020ACE7000000
:1010A0003F8010F02DE9F0410446866D90F8340041
:1010B000002501280DD0012084F8340094F8357003
:1010C0000020012F07D084F8340002252846BDE80F
:1010D000F0810220FBE7022784F835706065204626
:1010E000FFF7F4FC94F85C103F208840B060206863
:1010F000016841F0160101602068416941F08001FA
:101100004161206C20B12068016841F00801016054
:101110002068016841F001010160D7E770B504461D
:1011200000F0F4F80546601C02D00448007804443E
:1011300000F0ECF8401BA042FAD370BD3000002054
:101140002DE9F84FDFF890B100224FF001084FF081
:10115000030A4FF00F090BF1040E00BF0B6808FAE9
:1011600002F42340A3426ED14D68022D01D0122D0E
:101170000ED1D50800EB850CDCF820505607F70E91
:1011800009FA07F6B5430E69BE402E43CCF820603D
:10119000066855000F790AFA05FC07F0030726EAEE
:1011A0000C06AF40374307604E68012E05D0022E73
:1011B00003D0112E01D0122E0ED18768CE6827EAF7
:1011C0000C07AE403E4386604668A6430C79C4F3E4
:1011D0000014944034434460C4688E6824EA0C04CC
:1011E000AE402643C6604C68E4006FD53B4C256892
:1011F00045F480452560246822F0030504F480440A
:101200000094374C2E19D6F8084895072F0F09FA85
:1012100007F5AC43334DA84201D100252EE0324DF5
:10122000A84201D1012529E0304DA84201D1022573
:1012300024E02F4DA84201D103251FE02D4DA842E7
:1012400002D104251AE041E02B4DA84201D1052529
:1012500014E02A4DA84201D106250FE0284DA842EE
:1012600001D107250AE0274DA84201D1082505E054
:10127000254DA84201D1092500E00A25BD4025439E
:10128000C6F80858DBF800405D464E689C43F603FC
:1012900000D51C432C60DEF8004075464E689C4328
:1012A000B60300D51C432C600B4D08352C684E68E6
:1012B0009C43F60200D51C432C60074D0C352C686E
:1012C0004E689C43B60200D51C432C60521C102A69
:1012D000FFF444AFBDE8F88F003C014044380240C1
:1012E00000300140000002400004024000080240BB
:1012F000000C02400010024000140240001802409E
:10130000001C024000200240002402400148806886
:1013100070470000300000200248816802781144C4
:1013200081607047300000200B4810B5016841F41F
:1013300000710160016841F480610160016841F45D
:1013400080710160032000F097F8002000F006F89B
:1013500000F024F8002010BD003C024070B50D4D97
:1013600004464FF47A712878B1FBF0F00A49096815
:10137000B1FBF0F000F061FF48B9102C07D2002259
:101380002146501E00F058F800206C6070BD01200E
:1013900070BD0000300000202C0000201F4808B560
:1013A000016841F480410160006800F480400090D1
:1013B0001A48001F016841F080510160006800F088
:1013C00080500090032000F057F8002211466FF083
:1013D0000B0000F031F8002211466FF00A0000F017
:1013E0002BF8002211466FF0090000F025F80022CA
:1013F0001146501F00F020F800221146101F00F087
:101400001BF800221146901E00F016F80022BDE8DD
:1014100008401146501E00F00FB80000443802404A
:1014200000F01F02012191404009800000F1E020FE
:10143000C0F8001170470000F0B40E4B1B680C465A
:10144000C3F30223C3F10705042D00D90425191D98
:10145000072901D2002300E0DB1E012606FA05F170
:10146000491E214099409E40761E16403143F0BCF3
:1014700001F0B9BD0CED00E0064900F00702086874
:101480004FF6FF03184040EA0220034A1043086069
:10149000704700000CED00E00000FA052DE9F8436C
:1014A0001748016841F0805101600068154F00F055
:1014B0008050012600903E64FFF728FF05464FF458
:1014C0007A78114C05E000BFFFF720FF401B404534
:1014D0000DD86068C003F7D57E64FFF717FF054697
:1014E000464607E0FFF712FF401BB04202D9032037
:1014F000BDE8F88360688003F4D50020F8E70000B9
:101500004038024000000E42007000402DE9F047D4
:101510000E46050065D0DFF81481D8F80000F7B258
:1015200000F00F00B04207D288F80070D8F8000031
:1015300000F00F00B04254D128683D4C810712D50D
:10154000400703D5206840F4E05020602878000769
:1015500003D5206840F4604020602068A96820F02E
:10156000F000084320602878C0072DD03049686813
:101570000839012812D0022813D0032811D0096895
:10158000890700292DDA216821F003010143216038
:10159000FFF7BCFE814641F2883A0EE009688903F4
:1015A000EFE709688901ECE7FFF7B0FEA0EB09015E
:1015B000514502D90320BDE8F0872068696800F032
:1015C0000C00B0EB810FEFD1D8F80010404601F0CD
:1015D0000F01B14207D90770006800F00F00B04258
:1015E00001D00120E7E72878400705D52068E968A1
:1015F00020F4E050084320602878000706D52068D2
:10160000296920F4604040EAC100206000F03CF805
:101610002168084AC1F30311515CC84006490860BB
:101620000020FFF79BFE0020C5E70000003C0240C1
:1016300008380240087200082C00002001480068A9
:10164000704700002C000020044805490068096824
:10165000044AC1F38221515CC84070472C0000202D
:1016600008380240187200080448054900680968F3
:10167000044AC1F34231515CC84070472C0000203D
:101680000838024018720008154810B5006810F0BC
:101690000C02144813D01449042A0FD0082A0ED182
:1016A0000F4C241F2268236802F03F025B0207D51B
:1016B0002068C0F38810A0FB010106E0084610BDB9
:1016C0002168C1F38811A1FB00010023FEF78AFD08
:1016D0002168C1F30141491C4900B0FBF1F010BD84
:1016E000083802400024F40040787D012DE9F84FCD
:1016F000050076D02878DFF8F8B2BE4CC00749D094
:10170000DBF800105846C1F38101012908D00068B8
:10171000C0F3810002280AD1201D0068400206D5CE
:101720002068800336D568680028E2D032E0686817
:10173000B0F5803F10D0B0F5A02F206810D020F475
:1017400080302060206820F4802020606868A0B18C
:10175000FFF7DCFD06460CE0206840F48030F4E73B
:1017600040F480202060F7E7FFF7D0FD801B64285D
:1017700073D820688003F7D50CE0FFF7C7FD064655
:1017800005E000BFFFF7C2FD801B6428F0D8206889
:101790008003F7D42878DFF8608280074FF00009D3
:1017A0003ED5DBF80010584611F00C0F09D0006848
:1017B000C0F3810002280BD18D48001F0068400251
:1017C00006D42068800715D5E868012809D111E002
:1017D000E868B8B10120C8F80000FFF797FD064699
:1017E00005E002E1FFF792FD801B0228C0D82068C7
:1017F0008007F7D52068296920F0F80040EAC10089
:1018000020600DE0C8F80090FFF780FD064604E078
:10181000FFF77CFD801B02281FD820688007F7D4C3
:101820002878000722D5724E744869696C3671B108
:1018300001210160FFF76AFD074604E0FFF766FD3E
:10184000C01B022809D830688007F7D50EE0C0F821
:101850000090FFF75BFD074605E083E0FFF756FDCC
:10186000C01B02287ED830688007F7D4287840074C
:1018700068D5DFF87CA100270AF1380ADAF8000001
:10188000C0000BD4DAF8001041F08051CAF8001003
:10189000DAF80000012700F080500090584E3068C0
:1018A000C00510D4306840F480703060FFF72EFD22
:1018B000009005E0FFF72AFD0099401A022851D850
:1018C0003068C005F6D54A4EA868683601280FD0A2
:1018D0000528306810D020F001003060306820F01A
:1018E00004003060A868B8B1FFF710FD00900FE069
:1018F000306840F00100F4E740F004003060F7E7A2
:10190000FFF704FD0099411A41F28830814264D802
:1019100030688007F4D50EE0FFF7F8FC009007E090
:10192000FFF7F4FC0099411A41F28830814254D803
:1019300030688007F4D42FB1DAF8001021F080511C
:10194000CAF80010A869C0B3DBF80010C1F3810128
:1019500002294AD00228484607D0C8F86000FFF79D
:10196000D5FC00E039E005463AE04746C8F860009B
:10197000FFF7CCFC064604E0FFF7C8FC801B0228FA
:101980002BD820688001F7D4D5E907010843A96A5C
:101990001C4A490802EB01416A6A41EA8211084384
:1019A00095F82C1040EA01611148001F01600120E8
:1019B0003866FFF7ABFC054605E014E0FFF7A6FC30
:1019C000401B022809D820688001F7D50BE000BF32
:1019D000FFF79CFC401B022802D90320BDE8F88FCA
:1019E00020688001F4D40020F8E70120F6E7000029
:1019F000083802400038024000004742800E47424B
:101A0000007000400000FFFF10B5FEF739FF10BD69
:101A1000FEB5044603200D4684F83400606C0328AC
:101A200020D0B5F5805F1DD0B5F5006F05D045B16C
:101A3000A06B40F00060A06309E0204602F050F87F
:101A400002E0204602F025F8A16B0143A163A06BE0
:101A5000012658B1216840F2FF50886384F8346051
:101A60000120FEBDA06B40F08050E4E7211DD4E9C9
:101A700005700EC90095CDE90170206801F01EFBCC
:101A800084F834600020FEBD7047F0B5426E120E3F
:101A900093090B70C2F383034B7002F003028A7048
:101AA000426E120CCA70B0F86420120A0A7190F8E3
:101AB00064204A71826E4FF6FF73120E03EA02121F
:101AC000CA80826ECB88C2F3074243EA1213CB80EE
:101AD00002F00F020A72B0F86820C2F30722D3099D
:101AE0004B72C2F380138B72C2F34013CB72C2F3FA
:101AF00000130B7300264E73446C4FF400770123E0
:101B00006CB1012C43D0026840F2FF519163816BAC
:101B100041F08051816380F834300120F0BD92079C
:101B2000120D0A6190F868200C6944EA82020A6189
:101B3000C26E0C69120E44EA92140C61C2F3C20424
:101B40000C7502F007024A75C26EC2F307425409CF
:101B50008C75C2F38204CC759207520F0A76B0F8E6
:101B60006C20C2F307240A7E42EAD4120A760A697C
:101B7000521C42650D7EAD1CAA4042650D7A03FAE7
:101B800005F585656D0A6A43C0E917271CE090F8E2
:101B900068209206920A0A61C26E0C69120E44EA2B
:101BA00002220A61C26E0C69C2F3074214430C613F
:101BB000B0F86C20C2F307240A69521C4FEA822253
:101BC0004265C0E916720766C4F3801201F8192F46
:101BD0004FEA84624FEA52624A7010F86C2F4C78D8
:101BE00044EAD2144C7002F07F028A7042684FEAD5
:101BF00012624FEAD214CC70C2F341140C71C2F3DA
:101C000082044C714FEA82724FEA12728A71426802
:101C10008C79C2F3074244EA92148C71C2F34014E7
:101C2000CC710E7202F001024A728288C2F307225E
:101C30004FEAD2148C72C2F38014CC72C2F34014F7
:101C40000C73C2F300144C73C2F381048C7302F062
:101C50000302CA7300794FEA500008744B744FF0C6
:101C60000000F0BD426C0A60826C4A60C26C8A60FF
:101C7000026DCA60426D0A61826D4A61C26D8A61FD
:101C8000006EC8610020704770B50446B0F850007F
:101C900000250104206801F090FB18B1A16B0143FD
:101CA000A16304E00021206801F0FCF90546C5F3BA
:101CB000432070BD70B504460068416B4FF00105CC
:101CC000CA0540F23A3149D52A0282632068C26BC4
:101CD0008A43C263206B0007206B22D5800702D4A1
:101CE000206B800609D5206801F098FB28B1A16B14
:101CF0000143A1632046FFF7C7FE216840F2FF5071
:101D0000886384F83450206BC00702D1206B8007B1
:101D100003D5204600F002FA70BD204600F002FA1A
:101D200070BD0006FCD5206B800609D5206801F047
:101D300075FB28B1A16B0143A1632046FFF7A4FE08
:101D4000206BC007ECD1206B8007E9D42068C16A02
:101D500021F00801C16284F83450DEE7426B52047E
:101D600010D54FF480418163266A002506EB85017A
:101D7000206801F0CCF96D1C082DF7D3206A2030C3
:101D8000206270BD426B120410D54FF40041816394
:101D9000A66A0025206801F0A7F946F825006D1C09
:101DA000082DF7D3A06A2030A06270BD426B40F2CC
:101DB0003A231A42F9D0426B920703D5A26B42F044
:101DC0000202A263426B120703D5A26B42F0080223
:101DD000A263426B920603D5A26B42F02002A2637B
:101DE000426BD20603D5A26B42F01002A263426B93
:101DF000920503D5A26B42F00802A26340F2FF7283
:101E000082632068C26B8A43C263206B000623D5BD
:101E1000206C58B115490165206CFEF7F7FF0028CA
:101E2000C3D0206CBDE8704001F0E1BCE06B58B15C
:101E30000F490165E06BFEF7E9FF0028B5D0E06BC4
:101E4000BDE8704001F0A8BC0020A06384F83450C5
:101E50002046FFF7D9FD70BD206B0007FBD584F845
:101E600034502046FFF710FE70BD0000EF37000829
:101E70009937000870B5040004D094F834000025A8
:101E800010B105E0012070BD2577204600F038F83C
:101E9000032084F83400204600F008F8A563256389
:101EA000012084F83400002070BD0000FEB500253C
:101EB000044676200095CDE901502B462A46294656
:101EC000206801F0FBF80D4E46F8A05F206801F095
:101ED00007F9012535600220FFF720F9204601F0BF
:101EE00087FD20B9204601F010FD002805D084F8B8
:101EF0003450A16B0143A1630120FEBD0080254247
:101F00002DE9F04F054600683D4987B0884274D1FD
:101F10003C4800683B4940F40060086008680224BF
:101F200000F4006005904FF4F850CDE9000402AAD7
:101F3000002003264FF00C0882E841016946324830
:101F4000FFF7FEF802AA002082E841010427CDE94C
:101F5000007469462D48FFF7F3F82E4C2C484FF0DB
:101F60000068C4E9000800204FF48069A060C4E95B
:101F70000309B8024FF4804BC4E9050BC4E90976A4
:101F80004FF0200A0020C4E907A07E05B7102046C4
:101F9000C4E90B67FFF71CF818B183211EA002F0FB
:101FA00051FAEC63A5631B4C194860344830C4E90E
:101FB00000084020A0600020C4E90309C4E907A08C
:101FC0000420606204F12802032082E8C1004FF47B
:101FD0008051C4E9051B2046FEF7FAFF18B198218D
:101FE0000DA002F02FFA2C64002211463120A563C7
:101FF000FFF722FA3120FFF713FA07B0BDE8F08FA0
:10200000002C01404438024000080240000C02400D
:1020100058640240906C02202E2E2F5372632F734F
:1020200064696F2E630000002DE9F043154687B008
:102030001F460A00044607D094F83400012807D050
:10204000022007B0BDE8F083A06B40F0006008E01C
:102050000020A063E36DE919994204D9A06B40F018
:102060000070A06351E0032184F834102168814698
:10207000C8622168CB6B43F49573CB63E36B24494F
:102080004FEA4728D963E36B2249D964E16B4FEAF1
:10209000980308652168E06B8031FFF703F81E485C
:1020A00001260660606C012800D06D024FF0FF3001
:1020B000CDE900089020029002200596CDE90309A1
:1020C0006946206800F0D8FF4FF40071206801F0E5
:1020D00057F840F2FF5880B9012F06D982202063BB
:1020E0002946206801F0DAF805E0812020632946BE
:1020F000206801F0ECF80028A3D02268C2F83880EC
:10210000A16B0143A16384F83460012099E70000CA
:102110005B370008053700088C85254210B5FEF7AF
:10212000EBFB10BD10B5FEF7FBFB10BD2DE9F04F2A
:1021300087B01F4615465FEA010B044607D094F8A6
:102140003400012807D0022007B0BDE8F08FA06B53
:1021500040F0006008E00020A063E26DE9199142C0
:1021600004D9A06B40F00070A06339E0032184F82B
:10217000341021688046C8622168CA6B42F01A0296
:10218000CA63226C2349D163226C2349D164216C38
:102190000865606C012800D06D024FF40071206862
:1021A00000F0EEFF012640F2FF5988B94FF0900A87
:1021B000012F06D9A02020632946206801F048F9A4
:1021C00005E0C4F830A02946206801F05AF948B16A
:1021D0002268C2F83890A16B0143A16384F834608F
:1021E0000120B1E70D48066022687D02AB08594620
:1021F0008032206CFEF756FF4FF0FF308DE821044F
:10220000CDE90486CDF80C806946206800F034FFE3
:10221000002099E7E1370008053700088C85254242
:102220004FF0E0210428086903D020F00400086181
:10223000704740F00400FAE7704710B5401EB0F157
:10224000807F01D3012010BD4FF0E02460610F2199
:10225000601700F0C8FE0020A06107202061002068
:1022600010BD10B5FFF7E8FF10BD704770B50268EC
:1022700004461068D168536910F00F0F50D003F076
:10228000010501F4907635435DD0C20705D0CA053B
:1022900003D5E26B42F00102E263420705D5DA079B
:1022A00003D0E26B42F00202E263820705D5DA074F
:1022B00003D0E26B42F00402E263020705D5DA07BD
:1022C00003D0E26B42F00802E263E26B002A33D0F3
:1022D000800604D5880602D5204601F078FE2068E5
:1022E0004069E16BC0F38010090700D428B3204691
:1022F00001F056FE2068416949061AD5416921F06E
:1023000040014161606BA0B11B490165606BFEF744
:102310007DFD002810D0606B016DBDE8704008475E
:10232000830610D58B060ED52046BDE8704001F01F
:102330004EBE2046FFF799FF70BD2046FFF795FF80
:102340000020E06370BD030606D50B0604D52046C9
:10235000BDE8704001F0D8BF4006F3D54806F1D57E
:10236000D168204621F04001D160202184F8391045
:1023700000F037F970BD0000013F000870B504009F
:1023800004D094F83900002510B106E0012070BD9A
:1023900084F83850204600F023F8242084F83900CF
:1023A0002068C16821F40051C160204601F056FE4A
:1023B0002068016921F4904101612068416921F0A0
:1023C0002A0141612068C16841F40051C160E563A0
:1023D000202084F8390084F83A00002070BD000005
:1023E00070B506460068204986B088423AD11F4839
:1023F0000025016841F0100101600068694600F0A5
:10240000100005904FF4C060009002200190012060
:10241000029003200390072004901548FEF790FED9
:10242000154C144820604FF00060C4E901054014C9
:10243000C4E9035080106561C4E906502562204656
:102440006562FEF7C5FD18B178210CA001F0FAFF16
:102450007463002211462520A663FEF7EDFF2520B8
:10246000FEF7DEFF06B070BD0010014044380240A8
:102470000000024040640240906D02202E2E2F5337
:1024800072632F75736172742E630000F8B5044691
:1024900090F83A0020283CD1C1B3BAB394F8380080
:1024A000012836D0012084F83800A162A2850025D9
:1024B000E563222084F83A00636B1748D863636BA6
:1024C00016481864636B1648D864606B134605653C
:1024D0000846666B216802463046091DFEF7E2FD9C
:1024E000206801684168009184F83850C16841F45F
:1024F0008071C1602068416941F00101416120683B
:10250000416941F0400141610020F8BDFFE7012031
:10251000FBE70220F9E700005B3F0008973F000857
:10252000113F0008704770472DE9F843044690F8C2
:1025300039001F4616460D46202850D1A5B19EB140
:1025400094F8380001284AD0012084F838004FF070
:102550000008C4F83C80212084F83900FEF7D6FE3C
:10256000A6848146E68426E00120BDE8F883E08C5D
:10257000401EE084A0684B46B0F5805F4FF000023B
:102580004FF080012046009703D001F0EEFEE8B93D
:102590000DE001F0EAFEC8B928882168C0F3080000
:1025A0004860206908B16D1C05E0AD1C03E021689E
:1025B00015F8010B4860E08C0028D8D14B4600226A
:1025C00040212046009701F0D0FE08B10320CCE75F
:1025D000202084F8390084F838800020C5E70220E4
:1025E000C3E77047482202A107A001F045FFFEE7BC
:1025F0002E2E2F5372632F73746D333266347878B6
:102600005F69742E630000000D0A486172644661C0
:10261000756C745F48616E646C6572203A25732036
:102620002C25640D0A0000002DE9F0411F460E46DE
:102630000446836B114630469847636B054601227A
:1026400039469847626C29463046904796ED000A15
:10265000226B0746B8EE400A03219047226B022105
:10266000B0EE000A384690472846FEF767FA38462B
:10267000BDE8F0817CB5264E30684068002584B204
:10268000244800680168406800901E2C38D8304605
:10269000FEF775FB31681E2048601F49C4F11E001B
:1026A0000D541EA001F0E8FE1B491EA002F064FEBE
:1026B0001E4C40B11EA0616801F0DEFE16482030BD
:1026C000C16820698847144920A002F055FE80B1F6
:1026D00011491EA002F050FECDE9000501A9FEF748
:1026E00011FBA06069460198FEF70CFBE060012039
:1026F0002070094917A002F03FFE08B16420207045
:1027000002B01E22BDE8704003490248FFF7BEBE7A
:10271000906D0220506D0220A46B02200D0A2573DB
:102720000D0A0000776569676874000004000020E6
:102730000D0A2D2D2D2D2D2D2D2D77656967687492
:102740002025642D2D2D2D2D2D0D0A006C61626527
:102750006C0000007465737420616C6C00000000F4
:10276000114808B5016841F4800101600068002249
:1027700000F48000009011463A20FEF75DFE3A20FA
:10278000FEF74EFE002211463B20FEF755FE3B2091
:10279000FEF746FE002211464520FEF74DFEBDE83D
:1027A00008404520FEF73CBE3038024010B50449D1
:1027B0000448FEF7A0F90249491E087010BD000048
:1027C00025000020F4710008114808B5016841F0A7
:1027D00080010160016801F080010091016841F011
:1027E00004010160016801F004010091016841F0F9
:1027F00001010160016801F001010091016841F0EF
:1028000008010160006800F00800009008BD0000A9
:10281000303802400648054901600021416081606E
:10282000C16001614161816170470000002C01407D
:102830000C6C02200D4810B50B4901604FF4E131DA
:102840004160002181600C22C160C0E904128161F5
:10285000C161FFF793FD002805D0BDE810404E216F
:1028600003A001F0EFBD10BD00100140506D02202B
:102870002E2E2F5372632F75736172742E630000B6
:102880002DE9FF4F9946B0FBF2F3002602FB13033C
:10289000002BB0FBF2F3DDF804E0DDF834B0354690
:1028A0003446314602D0DB1C002719E09B1CFBE7B5
:1028B0001BF805A0002000BF4FF0800828FA00F8A0
:1028C0001AEA080F01D19EB119E00026B9FBF2FC0B
:1028D0007F1CBC4508D0401CC0B20828ECD36D1C3E
:1028E000B9FBF2F0B842E3D8002004B0BDE8F08FA5
:1028F000019900EBC50404FB021E2C460146761C20
:102900009E42E3D18020022B0ED0491CC9B2082977
:1029100001D10021641C20FA01F61BF80450354354
:102920000BF804505B1EEEE70EEB0200DDE7000043
:102930005A2202A107A001F09FFDFEE72E2E2F5381
:1029400072632F73746D3332663478785F69742ED6
:10295000630000000D0A4D656D4D616E6167655F36
:1029600048616E646C6572203A2573202C25640DD5
:102970000A0000002DE9FE4F80464FF40C740F460C
:102980002046FDF7F5FF5FEA000B04D111228DA16F
:1029900095A001F071FD2046FDF7EAFF5FEA000A0D
:1029A00004D1132287A190A001F066FD0024142019
:1029B000FDF7DEFF050004D1162282A18AA001F0F6
:1029C0005BFD00944FF400742046FDF7D1FF060034
:1029D00004D11A227BA184A001F04EFD01228BA11B
:1029E000584603F02BF8012289A1504603F052F813
:1029F00050B1012286A1504603F04CF801461D2338
:102A000070A286A001F038FD6B4622463146504642
:102A100003F046F958B16B4622463146504603F062
:102A20003FF901461E2367A27CA001F025FD304638
:102A3000FEF7F5F8301DFEF7F2F806F10800FEF794
:102A4000EEF8814606F10C00FEF7E9F80446504620
:102A500002F0D6FE3046FEF771F804FB09F000FBE9
:102A600007F1019100FB08F1103100910146384651
:102A700003F0A0FF02900198FDF77AFF060004D151
:102A80002B2250A16FA001F0F7FC012260A150465B
:102A900003F000F850B101225DA1504602F0FAFFA8
:102AA00001462D2347A25DA001F0E6FC50460099A7
:102AB00002F0BAFE48B15046009902F0B5FE014658
:102AC0002E2340A255A001F0D7FC6B46314650465C
:102AD000019A03F0E5F858B16B4631465046019A29
:102AE00003F0DEF801462F2336A24CA001F0C4FC0F
:102AF0003146029803F026FE02982860504602F004
:102B00007FFE3046FEF71AF808F108000090012118
:102B1000384603F04FFF80463846FDF729FF060090
:102B200004D1382227A153A001F0A6FC01225DA107
:102B3000504602F0AFFF50B101225AA1504602F0B8
:102B4000A9FF01463A231FA234A001F095FC50468C
:102B5000009902F069FE48B15046009902F064FE07
:102B600001463B2317A22DA001F086FC6B463A4696
:102B70003146504603F094F858B16B463A46314618
:102B8000504603F08DF801463C230EA223A001F02D
:102B900073FC3146404603F0D5FD5046C5F804802D
:102BA00002F02EFE3046FDF7C9FFC5F81090C5E9CA
:102BB00002745846FDF7C2FF5046FDF7BFFF284696
:102BC000BDE8FE8F2E2E5C2E2E5C4D7946756E5C18
:102BD0006D696E6973745F726561645C6D696E695D
:102BE00073742E63000000006D616C6C6F63204590
:102BF00072726F723A0D0A66696C65203A2573200D
:102C0000206C696E65203A25640D0A00303A000098
:102C10006665617475726531000000004572726FFF
:102C2000723A2044617461203D2025640D0A666972
:102C30006C65203A257320206C696E65203A256406
:102C40000D0A0000C9EAC7EBB1A3B4E6CCD8D5F7AA
:102C5000CAFDBEDDBBBAB4E6CAA7B0DC0D0A666920
:102C60006C65203A25732020726F7773203A2564B3
:102C70000D0A0000C9EAC7EBB1A3B4E6BDE1B9FB98
:102C8000CAFDBEDDBBBAB4E6CAA7B0DC0D0A6669F0
:102C90006C65203A25732020726F7773203A256483
:102CA0000D0A00006C6162656C7331002DE9FE4F06
:102CB00080464FF40C740F462046FDF759FE5FEA3C
:102CC000000B04D150228DA195A001F0D5FB204628
:102CD000FDF74EFE5FEA000A04D1522287A190A0C0
:102CE00001F0CAFB00241420FDF742FE050004D1C8
:102CF000552282A18AA001F0BFFB00944FF400741A
:102D00002046FDF735FE060004D159227BA184A0A0
:102D100001F0B2FB01228BA1584602F08FFE012286
:102D200089A1504602F0B6FE50B1012286A150465C
:102D300002F0B0FE01465C2370A286A001F09CFB6D
:102D40006B4622463146504602F0AAFF58B16B4608
:102D500022463146504602F0A3FF01465D2367A29A
:102D60007CA001F089FB3046FDF759FF301DFDF7CF
:102D700056FF06F10800FDF752FF814606F10C00F0
:102D8000FDF74DFF0446504602F03AFD3046FDF790
:102D9000D5FE04FB09F000FB07F1019100FB08F1EF
:102DA000103100910146384603F004FE029001986C
:102DB000FDF7DEFD060004D16A2250A16FA001F0EC
:102DC0005BFB012260A1504602F064FE50B101227B
:102DD0005DA1504602F05EFE01466C2347A25DA055
:102DE00001F04AFB5046009902F01EFD48B15046E2
:102DF000009902F019FD01466D2340A255A001F093
:102E00003BFB6B4631465046019A02F049FF58B1F0
:102E10006B4631465046019A02F042FF01466E234E
:102E200036A24CA001F028FB3146029803F08AFC40
:102E300002982860504602F0E3FC3046FDF77EFE23
:102E400008F1080000900121384603F0B3FD8046E8
:102E50003846FDF78DFD060004D1772227A153A047
:102E600001F00AFB01225DA1504602F013FE50B1B1
:102E700001225AA1504602F00DFE014679231FA2FD
:102E800034A001F0F9FA5046009902F0CDFC48B1A7
:102E90005046009902F0C8FC01467A2317A22DA0E3
:102EA00001F0EAFA6B463A463146504602F0F8FE27
:102EB00058B16B463A463146504602F0F1FE0146A3
:102EC0007B230EA223A001F0D7FA3146404603F03F
:102ED00039FC5046C5F8048002F092FC3046FDF7FC
:102EE0002DFEC5F81090C5E902745846FDF726FE80
:102EF0005046FDF723FE2846BDE8FE8F2E2E5C2EA1
:102F00002E5C4D7946756E5C6D696E6973745F7287
:102F10006561645C6D696E6973742E630000000006
:102F20006D616C6C6F63204572726F723A0D0A6648
:102F3000696C65203A257320206C696E65203A25FE
:102F4000640D0A00303A000066656174757265327E
:102F5000000000004572726F723A20446174612073
:102F60003D2025640D0A66696C65203A2573202092
:102F70006C696E65203A25640D0A0000C9EAC7EB4A
:102F8000B1A3B4E6CCD8D5F7CAFDBEDDBBBAB4E672
:102F9000CAA7B0DC0D0A66696C65203A257320204B
:102FA000726F7773203A25640D0A0000C9EAC7EBF7
:102FB000B1A3B4E6BDE1B9FBCAFDBEDDBBBAB4E660
:102FC000CAA7B0DC0D0A66696C65203A257320201B
:102FD000726F7773203A25640D0A00006C61626598
:102FE0006C73320070470907090E002806DA00F0FA
:102FF0000F0000F1E02080F8141D704700F1E02080
:1030000080F800147047704770B50646002514A07C
:1030100001F032FA1BE013A001F02EFA00240FE0B9
:10302000684306EB800000EB84008068FDF721FA1E
:1030300041EC100B0CA053EC102B01F01DFA641C9A
:103040007068A042ECD80AA001F016FA6D1C306836
:10305000A842E0D8BDE8704006A001F00DBA00001B
:103060007B0D0A000900000025662C090000000005
:103070000D0A00007D0D0A000A6842624A688262F9
:10308000D1E902231A43D1E904310B43C16A1A433F
:1030900021F0F7011143C16200207047006800F081
:1030A0000300704708B5084414300090006808BD5C
:1030B0000148FEF7FFBD00000C6C022070B50DF159
:1030C000100C11439CE870002343194329434268C4
:1030D000314347F6FF639A430A434260002070BDC4
:1030E0000321016000207047D0F8800070470A6813
:1030F0008260D1E901231A43D1E903310B43C1684E
:103100001A436FF30B011143C16000207047096837
:10311000C0F880100020704710B586B004463720F4
:10312000CDE9001040200290002003904FF4806011
:10313000049069462046FFF7DAFF41F288323721D2
:10314000204600F0B7F906B010BD000010B50446E7
:103150000A4886B001432920CDE9001040200290A2
:10316000002003904FF48060049069462046FFF7EA
:10317000BEFF204600F054FA06B010BD00001080DB
:1031800010B586B004461020CDE900104020029012
:10319000002003904FF48060049069462046FFF7BA
:1031A000A6FF41F288321021204600F083F906B0D4
:1031B00010BD10B586B004460620CDE900104020B1
:1031C0000290002003904FF48060049069462046EE
:1031D000FFF78DFF41F288320621204600F06AF9A0
:1031E00006B010BD30B585B00024054600940194AA
:1031F0004FF480600294CDE9034069462846FFF70A
:1032000076FF0B484FF4FA510068B0FBF1F041F241
:1032100088314843401E03D24FF0004005B030BD16
:10322000696B0906F6D540F2FF50A8632046F5E722
:103230002C00002070B585B004464FF4D570009086
:1032400008204026CDE901060025C001CDE9035044
:1032500069462046FFF74BFF0F484FF4FA510068CC
:10326000B0FBF1F041F288314843401E02D24FF0EA
:1032700000450DE0616B11F0450FF6D0606B400723
:1032800002D5A663042503E0606B400600D5A66363
:1032900005B0284670BD00002C00002010B586B097
:1032A00004461220CDE90010402002900020039037
:1032B0004FF48060049069462046FFF718FF41F202
:1032C00088321221204600F0F5F806B010BD10B586
:1032D00086B004461120CDE9001040200290002065
:1032E00003904FF48060049069462046FFF7FFFE8C
:1032F00041F288321121204600F0DCF806B010BD02
:1033000010B586B004460720CDE900204020029089
:10331000002003904FF48060049069462046FFF738
:10332000E6FE41F288320721204600F0C3F806B0DD
:1033300010BD10B586B0044600210220CDE9001072
:10334000C020CDE902014FF4806004906946204618
:10335000FFF7CDFE204600F03BF906B010BD10B5DA
:1033600086B004460920CDE90010C020029000205C
:1033700003904FF48060049069462046FFF7B7FE43
:10338000204600F025F906B010BD10B586B0044601
:1033900000213320CDE900104020CDE902010001D9
:1033A000049069462046FFF7A2FE41F2883233219D
:1033B000204600F07FF806B010BD10B586B0044678
:1033C0000D20CDE9001040200290002003904FF422
:1033D0008060049069462046FFF789FE41F28832FA
:1033E0000D21204600F066F806B010BD30B585B05E
:1033F0000C46054600210320CDE900104020CDE910
:1034000002010001049069462846FFF770FE22463B
:103410000321284600F024F905B030BD10B586B070
:10342000044600210C20CDE900104020CDE9020126
:103430000001049069462046FFF759FE034A0C211B
:10344000204600F037F806B010BD000000E1F50599
:1034500010B586B004461920CDE900104020029036
:10346000002003904FF48060049069462046FFF7E7
:103470003EFE41F288321921204600F01BF806B0CA
:1034800010BD10B586B004461820CDE900104020CC
:103490000290002003904FF480600490694620461B
:1034A000FFF725FE41F288321821204600F002F88D
:1034B00006B010BD444B10B51B684FF4FA54B3FB73
:1034C000F4F353435B1E02D24FF0004010BD426B39
:1034D00012F0450FF6D0426B520703D504218163E9
:1034E000084610BD426BD20702D00121816303E080
:1034F0000269D2B28A4201D0012010BD40F2FF51D0
:1035000081630021FFF7CEFD3049084201D1002040
:1035100010BD002802DA4FF0007010BD410001D547
:10352000402010BD810001D5802010BDC10002D512
:103530004FF4807010BD010102D54FF4007010BD32
:10354000410102D54FF4806010BDC10102D54FF496
:10355000006010BD010202D54FF4805010BD410241
:1035600002D54FF4005010BD810202D54FF48040C7
:1035700010BDC10202D54FF4004010BD410302D579
:103580004FF4003010BD810302D54FF4802010BDF0
:10359000C10302D54FF4002010BD010402D54FF441
:1035A000801010BD410402D54FF4001010BD8104FD
:1035B00002D54FF4800010BD000702D54FF4000083
:1035C00010BD4FF4803010BD2C00002008E0FFFD3E
:1035D00012494FF4FA520968B1FBF2F141F2883214
:1035E0005143491E02D24FF000407047426B12F027
:1035F000450FF6D0416B490703D504218163084686
:103600007047416BC90703D00121816308467047A9
:1036100040F2FF5181630020704700002C00002021
:103620000E494FF4FA520968B1FBF2F141F28832C7
:103630005143491E02D24FF000407047426B12F0D6
:10364000450FF6D0416B490703D504218163084635
:10365000704740F2FF518163002070472C0000202A
:103660001F4B10B51B684FF4FA54B3FBF4F341F24F
:10367000883463435B1E02D24FF0004010BD446BA0
:1036800014F0450FF6D0436B5B0703D5042181632B
:10369000084610BD436BDB0702D00121816303E0C4
:1036A0000369DBB28B4201D0012010BD40F2FF5113
:1036B00081630021FFF7F6FC10F4604F04D0410451
:1036C00006D54FF4005010BD000C1080002010BD36
:1036D000000402D54FF4805010BD4FF4803010BD6F
:1036E0002C00002010B5064C01202070FDF7D0F80A
:1036F00018B9207820F001002070207810BD00005B
:103700001800002010B5846BE06B406D012803D0D9
:10371000206C406D01281CD1216840F2FF50886365
:103720002068C16B21F49D71C163A06B40F08040A3
:10373000A0632046FEF7A8FA062801D0052805D187
:103740002068FFF76BFEA16B0843A063012084F89B
:1037500034002046FEF798F910BD10B5846B206B3D
:10376000822809D12068FFF759FE28B1A16B0143D7
:10377000A1632046FEF788F92068C16A21F008019C
:10378000C162216840F2FF508863012084F8340050
:103790002046FEF7C3FC10BD70B5846B0025E06BBE
:1037A00000B1E563206C002816D12046FEF76CFAC4
:1037B000A563012184F83410062801D005280BD117
:1037C0002068FFF72BFEA16B0843A063A06B0028C5
:1037D000204602D0FEF718F970BDFEF755F970BD0E
:1037E000806B0068C16B41F48071C163704770B534
:1037F000846B0025206C00B12564E06B002816D195
:103800002046FEF741FAA563012184F8341006280A
:1038100001D005280BD12068FFF700FEA16B0843FB
:10382000A063A06B0028204602D0FEF7EDF870BD23
:10383000FEF72AF970BD2DE9F04F89B00E46044617
:10384000FDF764FD00258346009501952F4608216C
:103850002068FFF795FC002834D1B4F8500001042B
:103860002068FFF759FC00282CD1401E4FF00808B3
:10387000CDE9020830204FF00209CDE9040901200A
:10388000CDE9067002A92068FFF7F6FB2068FFF774
:103890007CFD002816D1EA4640F22A472068416B99
:1038A000394212D1416B890204D5FFF71DFC4AF859
:1038B00025006D1CFDF72AFDA0EB0B00401CEDD18F
:1038C0004FF0004009B0BDE8F08F416B090703D508
:1038D000C0F838800820F5E7416B890703D5C0F8A8
:1038E00038900220EEE7416B890603D520218163E1
:1038F0000846E7E740F2FF518163009800BA706024
:10390000019800BA30600020DCE710B590B00446A2
:103910000120ADF838002068FFF7C0FB002864D014
:10392000606C032842D02068FFF703FD00285AD1BD
:1039300000212068FFF7B6FB606704212068FFF7CD
:10394000B1FBA06708212068FFF7ACFBE0670C2102
:103950002068FFF7A7FBC4F88000606C032825D01F
:103960000EA92068FFF742FD00283CD1606C0328B7
:103970001CD0BDF83800206501042068FFF7EFFC7B
:10398000002830D100212068FFF78CFB60660421FD
:103990002068FFF787FBA06608212068FFF782FBFD
:1039A000E0660C212068FFF77DFB2067042120687A
:1039B000FFF778FB000DE06403A92046FEF765F8E9
:1039C000B4F85000002302042068FFF799FC002897
:1039D00009D104F1100007C88DE8070094E80F0032
:1039E000FFF76CFB002010B010BD4FF08060FAE7CD
:1039F0002DE9F8430025044600950068FFF7F2FB27
:103A000000281AD12068FFF715FC4FF080784FF698
:103A1000FF76D8B14FF08057A5640098411C009103
:103A2000B0421AD000212068FFF776FB20B90021B0
:103A30002068FFF78BFB10B13846BDE8F883002102
:103A40002068FFF72FFBC00FE7D01FE00127A76416
:103A50000098411C0091B04201D14046EDE70021A1
:103A60002068FFF759FB0028E7D14FF0804120681C
:103A7000FFF76CFB0028E0D100212068FFF712FB64
:103A8000C10FE5D0400001D5676400E06564002007
:103A9000D3E71CB504460020009001900021206867
:103AA000FFF700FB800102D54FF400601CBD6946A2
:103AB0002046FFF7C0FE0028F8D10198C0030CD5BE
:103AC000B4F8500001042068FFF726FB0028EDD170
:103AD00000212068FFF76DFB1CBD4FF080601CBD0E
:103AE0001CB5044600200090019000212068FFF7DB
:103AF000D9FA800102D54FF400601CBD694620460A
:103B0000FFF799FE0028F8D1019840030CD5B4F8CE
:103B1000500001042068FFF7FFFA0028EDD10221D0
:103B20002068FFF746FB1CBD4FF080601CBD000005
:103B300070B5064C054601202070FCF7B5FE18B99B
:103B40002846FFF7CFFD2070207870BD18000020B8
:103B500010B5124888B014460078C00702D0032080
:103B600008B010BDC1B1012905D0022908D0032930
:103B70000CD00420F4E76846FCF784FE06980AE0BF
:103B80006846FCF77FFE0798208005E06846FCF752
:103B900079FE0798400A20600020E1E71800002025
:103BA0002DE9F041184C4FF0000816460846012553
:103BB000C4F808801A463146FCF790FEF0B9FDF7CC
:103BC000A5FB064647F23057A06820B9FDF79EFBDB
:103BD000801BB842F8D3A06828B1C4F80880FDF76C
:103BE00095FB044605E0012508E000BFFCF750FE08
:103BF00038B1FDF78BFB001BB842F7D32846BDE870
:103C0000F0810025FAE7000018000020FFF76ABDE8
:103C10002DE9F041184C4FF00008164608460125E2
:103C2000C4F804801A463146FCF76CFEF0B9FDF783
:103C30006DFB064647F23057606820B9FDF766FB1A
:103C4000801BB842F8D3606828B1C4F80480FDF73F
:103C50005DFB044605E0012508E000BFFCF718FE07
:103C600038B1FDF753FB001BB842F7D32846BDE837
:103C7000F0810025FAE7000018000020902202A140
:103C800007A000F0F9BB00002E2E2F5372632F7394
:103C9000746D3332663478785F69742E6300000087
:103CA0000D0A5356435F48616E646C6572203A2575
:103CB00073202C25640D0A0010B5FDF72DFBBDE81F
:103CC0001040FEF7CEBA000070B52A4892B0002529
:103CD000016841F080510160006800F0805011904F
:103CE0002548016841F4404101600068022400F465
:103CF0004040119001200090000401908001CDE926
:103D000006400F260896D820CDE9090408200B901C
:103D10006846FDF7EBFC10B14FF4827115E0FDF73A
:103D2000BDFB10B140F20B110FE04FF4A050CDE9F4
:103D30000E504FF48050CDE90C64109005210CA872
:103D4000FDF7E4FB20B140F219110CA000F07AFB62
:103D5000FDF774FC4FF47A71B0FBF1F0FEF76DFAE9
:103D60000420FEF75DFA00221146501EFDF764FBA9
:103D700012B070BD40380240007000402E2E2F530C
:103D800072632F6D61696E2E630000001048016838
:103D900041F4700101600F48016841F001010160C8
:103DA0000C4A00210832116002680B4B1A40026075
:103DB000031D0A4A1A60026822F480220260054844
:103DC0000C300160024958068039086070470000D5
:103DD00088ED00E000380240FFFFF6FE10300024BE
:103DE0002DE9F0410D460646174603219FED0E0AC8
:103DF000284602F045FC0121286802F0DCFF044659
:103E000001460122284602F075FE05462046FCF7D1
:103E100095FE39462846B04704462846FCF78EFEF4
:103E20002046BDE8F081000000007F432DE9F04FFF
:103E300016462DED028B81B0B0EE408ADDE90CA76D
:103E40000C46814600250A6B9B4603219FED180A0C
:103E500030469047626930680121904780460146AC
:103E6000236A01223046984700904046FCF766FEE0
:103E700013E05B46524620460099C847226B06462F
:103E80000221B0EE480A9047636B0122314650464A
:103E900098473046FCF752FE6D1CBD42E9D30098AE
:103EA000FCF74CFE01B05046BDEC028BBDE8F08F34
:103EB00000007F432DE9F0410F462DED028B82B0CB
:103EC0000446C16BB0EE408A1E46DDF828801046DD
:103ED00088470546CDE90068B0EE480A2B463A46C9
:103EE00021460648FFF7A2FF2846FCF727FE02B04E
:103EF0003046BDEC028BBDE8F081000029260008A9
:103F000010B5806B0021C185C184FEF7AEF910BDEC
:103F100070B5846B2068406994F83910C0F3C01004
:103F20000025212904D118B1E584204600F046F887
:103F30002068406994F83A10C0F38010222904D117
:103F400018B1E585204600F02BF8E06B40F010003A
:103F5000E0632046FEF789F970BD10B50146806B1D
:103F600009680968C90513D40021C1850168CA68B8
:103F700022F48072CA6001684A6922F001024A6133
:103F800001684A6922F040024A61202180F83A1013
:103F9000FEF7C8FA10BD10B5806BFEF7C4FA10BD6D
:103FA0000168CA6822F49072CA6001684A6922F006
:103FB00001024A61202180F83A1070470168CA68FE
:103FC00022F0C002CA60202180F83910704710B575
:103FD00090F83A10222901D0022010BD8168B1F575
:103FE000805F11D00169002901681FD0496801F084
:103FF0007F03816A4A1C82620B70C18D491E0904CD
:10400000090CC18518D026E00269816A002A02687D
:10401000526805D0D2B20A80816A491C8162ECE7FD
:10402000C2F308020A80816A891CF7E74A68816A3C
:104030004B1C83620A70E0E70168CA6822F4907240
:10404000CA6001684A6922F001024A61202180F8B1
:104050003A10FEF767FA002010BD00002DE9F0418C
:1040600004460068016921F44052E168114301618E
:104070002168C86849F20C6290432369A268E56927
:104080001A4363692B431A430243CA602168486993
:1040900020F44072A06910434861E1696425B1F5DC
:1040A000004F9748974A21684FF032083FD091421D
:1040B00001D081427CD1FDF7D7FA00EBC00101EBC2
:1040C000001061688900B0FBF1F6FDF7CDFA00EB56
:1040D000C00101EB001061688900B0FBF1F0B0FB9A
:1040E000F5F06FF01801484306EB800108EB011072
:1040F000B0FBF5F000F0F006FDF7B6FA00EBC001FA
:1041000001EB001061688900B0FBF1F0B0FBF5F045
:1041100006EB0016FDF7A8FA00EBC00101EB00105A
:1041200061688900B0FBF1F7FDF79EFAD2E0914299
:1041300001D081423DD1FDF797FA00EBC00101EBC0
:10414000001061684900B0FBF1F0B0FBF5F006012A
:10415000FDF78AFA00EBC00101EB0010616849002D
:10416000B0FBF1F7FDF780FA00EBC00101EB0010A6
:1041700061684900B0FBF1F0B0FBF5F06FF0180199
:10418000484307EB800108EBC100B0FBF5F000F0FD
:10419000F80006EB4006FDF767FA00EBC00101EB03
:1041A000001061684900B0FBF1F7FDF75DFA3CE0F3
:1041B00055E0FDF749FA00EBC00101EB0010616822
:1041C0004900B0FBF1F0B0FBF5F00601FDF73CFA59
:1041D00000EBC00101EB001061684900B0FBF1F792
:1041E000FDF732FA00EBC00101EB001061684900F5
:1041F000B0FBF1F0B0FBF5F06FF01801484307EBAE
:10420000800108EBC100B0FBF5F000F0F80006EB10
:104210004006FDF719FA00EBC00101EB00106168E0
:104220004900B0FBF1F7FDF70FFA00EBC00101EB1D
:10423000001061684900B0FBF1F0B0FBF5F06FF0E1
:104240001801484307EB800108EBC100B0FBF5F013
:1042500000F00700216830448860BDE8F081FDF778
:10426000F3F900EBC00101EB001061688900B0FBBD
:10427000F1F6FDF7E9F900EBC00101EB0010616810
:104280008900B0FBF1F0B0FBF5F06FF01801484386
:1042900006EB800108EB0110B0FBF5F000F0F00632
:1042A000FDF7D2F900EBC00101EB00106168890055
:1042B000B0FBF1F0B0FBF5F006EB0016FDF7C4F92A
:1042C00000EBC00101EB001061688900B0FBF1F761
:1042D000FDF7BAF900EBC00101EB0010616889003D
:1042E000B0FBF1F0B0FBF5F06FF01801484307EBBD
:1042F000800108EB0110B0FBF5F000F00F00A9E71A
:10430000001401400010014090F83910212901D01B
:10431000022070478168B1F5805F016A0BD04A1CAA
:104320000262026809785160C18C491E0904090CB7
:10433000C1840ED017E009880268C1F308015160FA
:1043400001690029016A02D0491C0162ECE7891C5D
:10435000FBE70168CA6822F08002CA600068C16891
:1043600041F04001C160002070472DE9F0419846BE
:1043700017460E460446069D1DE0681C1BD02DB155
:10438000FCF7C4FFA0EB0800A84214D92068C1685C
:1043900021F4D071C1602068416921F001014161BF
:1043A000202084F8390084F83A00002084F838008E
:1043B0000320BDE8F0812068006836EA000004D0E0
:1043C0000020B842D9D00020F3E70120F9E700002F
:1043D000064810B500680068C00602D5034800F022
:1043E00029F8BDE810400148FDF740BF506D02209C
:1043F0007E2202A107A000F03FF8FEE72E2E2F53E9
:1044000072632F73746D3332663478785F69742EFB
:10441000630000000D0A55736167654661756C7431
:104420005F48616E646C6572203A2573202C2564A8
:104430000D0A00000249884201D1FEF71BB97047FE
:10444000506D02200A46014601A000F015F8FEE773
:104450005F4572726F725F48616E646C6572204670
:10446000494C45203A2573202C6C696E65203A2012
:1044700025640D0A000000000FB4054B10B503A918
:10448000044A029800F04CFB10BC5DF814FB0000DD
:10449000496100084400002003B4019841000098DD
:1044A00050EAC12018BF04204A0D18BF40F0010097
:1044B00040F2FF72B2EB515F08BF40F002000128EA
:1044C00008BF052002B0704770B52DED020B2DED31
:1044D0000A8B82B00D98C40F20F00045AE4885428B
:1044E00048D3AE48854219D30C99C5F3130008434D
:1044F00009D09DED0C0B02B0BDEC0A8B02B0BDE8FB
:10450000704000F009BA002C14BF9FEDA50B9DED83
:104510000C0B02B0BDEC0A8B02B070BD9FEDA20B7C
:1045200053EC102B9DED0C0B51EC100BFCF77EF9AE
:104530000AD2022000F02CFA02B0BDEC0A8B02B0C5
:10454000BDE8704000F0F4B99FED990B53EC102BCF
:104550009DED0C0B51EC100BFCF750F90AD2022028
:1045600000F016FA02B0BDEC0A8B02B0BDE8704054
:1045700000F0EEB990489FED92BBA8425CD2924801
:10458000854219D29148784400EBC40090ED000BAD
:1045900053EC102B9DED0C0B51EC100BFBF7F4FEC4
:1045A00041EC1A0B8A48784400EBC40090ED009B64
:1045B000C4F10100041B36E09FED870B53EC102B78
:1045C0009DED0C0B51EC100BFCF75DF841EC100B62
:1045D0008348784400EBC40090ED001B51EC100BB5
:1045E00053EC112BFBF72FFEFCF7D0F80446FCF739
:1045F000BCF841EC180B9FED7C0B53EC102BFCF737
:1046000042F89DED0C1B53EC112BFBF7C0FE41EC67
:104610001A0B9FED770B51EC180B53EC102BFCF79A
:1046200032F841EC190B51EC1A0B53EC192BFBF738
:10463000ABFECDE90C011BE06F48854217D29FED20
:10464000700B53EC102B9DED0C0B51EC100BFBF78A
:10465000FAFD53EC1B2BFCF7E9F808D29DED0C0B8F
:1046600053EC1B2B51EC100BFBF7EDFD6EE000241F
:104670009DED0C0B53EC102B51EC100BFCF703F8D9
:1046800041EC180B60480521B0EE480AF0EE680ACC
:10469000784400F0C5F853EC182B51EC100BFBF7E5
:1046A000F2FF9DED0C1B53EC112BFBF770FE41EC60
:1046B000180B9FED570B5CB353EC182B51EC100B00
:1046C000FBF762FE9DED0C0B41EC1C0B53EC182B21
:1046D00051EC100BFBF7D7FF53EC1C2BFBF75AFEEA
:1046E00053EC192BFBF753FE53EC1A2BFBF74CFE44
:1046F00053EC1B2BFBF74BFECDE900016FF47F70F1
:10470000844226DB01EB045001909DED000B00E795
:1047100053EC102B51EC180BFBF736FE9DED0C0BF8
:1047200041EC190B53EC182B51EC100BFBF7ABFFC2
:1047300053EC192BFBF72EFE9DED0C1B53EC112BAC
:10474000FBF722FE53EC1B2BFBF721FE41EC100B79
:10475000DFE608464FF07A5101EB04519FED2E0B36
:10476000084453EC102B01909DED000B51EC100B05
:10477000FBF789FF0D4645EC100B044651EC100B7E
:10478000FFF78AFE042808BF00F0E2F845EC104B62
:10479000BFE6000000000000422E86400000F07FCF
:1047A0000000000000000000EF39FAFE422E8640B3
:1047B00051302DD5104987C0422ED63F0000000051
:1047C000000000000000F03FB2A2F03F4E2D0000BC
:1047D0003E2D000000000000FE822B654715F73FCC
:1047E000F22C0000000000000000E0FE422EE63F38
:1047F000763C7935EF39EA3D0000303E000000009C
:104800009C7500883CE4377E642C000000000000AA
:1048100000000000000000400000000000007001E7
:1048200070B504462DED028B4D1E00EBC500B0EEB9
:10483000408AF0EE608A90ED000B35F0060017D04C
:1048400053EC182B51EC100BFBF71DFF41EC100B38
:104850006D1E04EBC50090ED001B51EC100B53ECEA
:10486000112BFBF7F0FC41EC100B35F00600E7D103
:10487000022D36D0042D1CD0062D1CBFBDEC028BA2
:1048800070BD53EC182B51EC100BFBF7FCFE94EDB4
:104890000A1B53EC112BFBF7D6FC53EC182BFBF740
:1048A000F2FE94ED081B53EC112BFBF7CCFC41EC12
:1048B000100B53EC182B51EC100BFBF7E4FE94EDAE
:1048C000061B53EC112BFBF7BEFC53EC182BFBF72C
:1048D000DAFE94ED040B53EC102BFBF7B4FC41EC27
:1048E000100B53EC182B51EC100BFBF7CCFE94ED96
:1048F000021B53EC112BFBF7A6FC53EC182BFBF718
:10490000C2FE94ED001B53EC112BFBF79CFCBDEC9D
:10491000028B41EC100B70BD10B553EC102B51EC19
:10492000100BFBF790FC41EC100B10BD00000000D9
:104930009FED050B10B553EC102B51EC100BFBF752
:10494000A2FE41EC100B10BD000000000000007042
:104950009FED050B10B553EC102B51EC100BFBF732
:1049600092FE41EC100B10BD000000000000001092
:1049700002E008C8121F08C1002AFAD17047704728
:10498000002001E001C1121F002AFBD17047000086
:104990000149086070470000480000202DE9FF5FD2
:1049A00082B00021DDE90430020DDDF840B00343A0
:1049B00018D044F61050A2F2FF3242431514119859
:1049C00001281FD0A5EB0B00401C5FEA000A4FF046
:1049D00000064E4FDFF83891B046504615D5CAF163
:1049E000000413E0119801244AA3012801D16FEAC1
:1049F0000B010298119AC0E90031C0E9024206B0E9
:104A0000BDE8F09FCBF10000DFE704460021404AFB
:104A1000491842EB0450CDE9001012E0E00707D03E
:104A200032463B4640464946FBF72DFE80468946C6
:104A300032463B4610461946FBF725FE06460F4612
:104A40006410002CEAD1DDE90401DDE90023BAF1AC
:104A5000000F06DAFBF717FE42464B46FBF713FE44
:104A600005E0FBF797FC42464B46FBF793FC0446F8
:104A70000E460022284BFBF7D9FE03D84FF0FF303B
:104A8000014607E00022254B20463146FBF7DBFBC1
:104A9000FBF79BFE102409E0002C0ADB0A2200230E
:104AA000FBF7A0FB039B30321A55641E50EA01024B
:104AB000F2D1641C039AC4F111031444119A012A1F
:104AC00003D0012208430DD10AE0084304D000209E
:104AD0004FF0110B119072E7A3EB0B056D1E0DE06B
:104AE0005B4504DD4FF0000205F1010504E003DA47
:104AF0004FF00002A5F10105002AECD002981199AF
:104B0000C0E90231C0E9004579E700000000144027
:104B10000000F03F300000000000F0430000E03FE4
:104B20002DE9FF4F95B09B468946064600250FE2CA
:104B3000252877D100242746F84A0121059400E072
:104B4000044316F8013F203B01FA03F01042F7D16D
:104B500030782A2811D06FF02F033078A0F130027E
:104B6000092A16D8059A44F0020402EB820203EBEC
:104B700042021044761C0590EFE759F8042B059289
:104B8000002A03DA504244F40054059044F0020431
:104B9000761C30782E2816D116F8010F44F0040444
:104BA0002A280DD06FF02F023078A0F13003092BA6
:104BB00009D807EB870302EB4303C718761CF3E71A
:104BC00059F8047B761C30786C280FD006DC4C2812
:104BD00017D068280DD06A2814D104E0742810D0AA
:104BE0007A280FD10DE044F400140AE044F4801454
:104BF00001E044F440147278824202D104F580143A
:104C0000761C761C307866280BD013DC582877D0B9
:104C100009DC002875D04528F6D04628F4D047286E
:104C20001AD19DE118E0632835D0642879D0652831
:104C300012D195E1702873D008DC6728F1D069287B
:104C40006FD06E280DD06F2806D1B5E073282CD018
:104C5000752875D0782874D05A46179990476D1CDE
:104C600075E1C4F30250022809D003280DD0D9F809
:104C7000001004280DD00D6009F1040967E1D9F88E
:104C80000010EA17C1E90052F6E7D9F800100D80CC
:104C9000F2E70D70F0E719F8041B8DF80010002002
:104CA0008DF80100EA46012003E059F804AB4FF00B
:104CB000FF3061074FF0000102D40DE008F101015F
:104CC0008846B9420FDA8045F8DB1AF80810002947
:104CD000F4D108E008F1010188468142FADB1AF8B4
:104CE00008100029F6D105985B46A0EB080721467D
:104CF0003846179A00F094FA284400EB080507E0BC
:104D00004DE029E10DE01AF8010B5A46179990473A
:104D1000B8F10108F7D25B4621463846179A13E1ED
:104D200042E00A220092C4F302524FF0000A022A23
:104D300008D059F804CB032A4FEAEC710AD00DE0F1
:104D400029E02AE009F1070121F00702F2E802C197
:104D5000914609E00FFA8CFC4FEAEC71042A03D16A
:104D60004FFA8CFC4FEAEC71002907DA0A46002161
:104D7000DCF1000C61EB02012D2202E0220504D5DA
:104D80002B228DF80420012203E0E20701D020222B
:104D9000F7E7904659E00A2102E010220DE01021C9
:104DA0004FF0000A00910BE010224FF0000A44F08F
:104DB00004040827009203E008224FF0000A009242
:104DC000C4F30252022A05D059F804CB0021032A69
:104DD00008D009E009F1070121F00702F2E802C159
:104DE000914605E01FFA8CFC042A01D10CF0FF0C5F
:104DF0004FF00008220728D5702806D0009B83F0CA
:104E0000100353EA0A0305D00EE040228DF8042077
:104E1000012208E05CEA010206D030228DF804206D
:104E20008DF8050002229046009B83F0080353EAA8
:104E30000A030AD15CEA010201D1620705D53022DA
:104E40008DF804204FF001087F1E582804D034A0AC
:104E500003900EA802900DE036A0F9E75346604695
:104E6000009AFBF7BFF984460398825C0298401EC3
:104E7000029002705CEA0100F0D1029806A9081ABB
:104E800000F1200A600702D524F4803400E00127F5
:104E9000574502DDA7EB0A0000E0002000EB0A0105
:104EA000009005984144401A0590E00306D45B4603
:104EB0002146179A059800F0B3F90544002706E04B
:104EC00001A85A46C05D179990476D1C7F1C474545
:104ED000F6DBE0030CD55B462146179A059800F0F7
:104EE0009FF9054404E030205A46179990476D1CFD
:104EF0000099481E00900029F5DC08E0029802990C
:104F00005A460078491C0291179990476D1CBAF1D6
:104F10000001AAF1010AF1DC65E1000009280100A5
:104F2000303132333435363738396162636465661F
:104F300000000000303132333435363738394142E1
:104F4000434445460000000000F058F90544761C33
:104F5000307800287FF4ECAD19B02846BDE8F08F1A
:104F6000620700D4062709F1070222F0070CFCE8CB
:104F70000223E14603F000485FEA080C02D00FF27A
:104F8000702C0DE05FEA045C02D50FF2682C07E09C
:104F90005FEAC47C02D00FF2602C01E0AFF2700C2B
:104FA0004FF0FF3823F00043CDF850C065280CD0F7
:104FB00006DC452809D046281DD047283DD13DE0D4
:104FC000662818D067287ED138E00021112F01DB38
:104FD000112000E0781CCDE9000106A90EA8FFF71A
:104FE000DDFCDDE90F010E9A03910021009207F12B
:104FF000010A04914DE04FF000400097CDE9011007
:1050000006A90EA8FFF7CAFCDDE90F0203920E9B6A
:1050100011990022DDF80CA00093049211B9791CBB
:1050200000EB010AB7EB0A0004D4C0F1FF3007F12E
:10503000010A0490AAEB0700019044E0012F00DA76
:1050400001270021112F01DD112000E03846CDE9B4
:10505000000106A90EA8FFF7A1FCDDE90F010E9AD9
:105060000391002104910092BA4621070CD40399C0
:10507000514500DA8A46BAF1010F05DD009AAAF11E
:105080000101515C302908D0B84202DA10F1040F56
:1050900006DA0121CDE9011015E0AAF10101E9E7E5
:1050A000002805DC049901440491AAEB000102E008
:1050B000411C514500DD8A460499401A401C01906C
:1050C0004FF000400290200704D40198504501DBC6
:1050D000CDF8048000208DF84F0002980DF14F07A5
:1050E000B0F1004F25D02B200E9002984FF002080F
:1050F00000280CDA404202902D200E9007E00A2191
:105100000298FBF7E5F93031029007F8011DB8F17C
:105110000001A8F10108F2DC02980028EFD1791E05
:105120000E980870307800F0200040F0450007F835
:10513000020D12A8C01B00F107081498007800B1F6
:10514000012000EB0A01019801EBE0710598414450
:10515000401A401E0590E00306D45B462146179A8C
:10516000059800F05DF805441498007818B15A4687
:10517000179990476D1CE00324D55B462146179A8A
:10518000059800F04DF805441CE00498002807DB62
:10519000DDE90301884203DD0098405C179901E0D6
:1051A000179930205A469047049805F10105401C94
:1051B00004900198401E019004D12E205A46179960
:1051C00090476D1CBAF10001AAF1010ADDDC05E08F
:1051D00017F8010B5A46179990476D1CB8F100015A
:1051E000A8F10108F4DC5B462146179A0598ABE666
:1051F0002D0000002B000000200000002DE9F041F0
:10520000044600251E461746880404D405E03946A6
:105210002020B0476D1C641EF9D52846BDE8F081FA
:105220002DE9F041044600251E469046C80301D5ED
:10523000302700E02027880404D505E041463846A1
:10524000B0476D1C641EF9D52846BDE8F08100000A
:1052500010B504460020E070401EE062204601F0D8
:10526000E8FD08B1042010BD04F22E2001F056F82C
:10527000A0F52A41553901D0032010BD94F8300023
:10528000E92805D0EB2814D194F83200902810D1E9
:1052900004F1660001F037F80749B1EB002F06D0A2
:1052A00004F1820001F02FF80449884201D1002066
:1052B00010BD022010BD0000004641544641543349
:1052C000F0B50022144D134605EB021426685EB1BA
:1052D0000768BE4209D166688768BE4205D1A468E6
:1052E0004669B44204D000E00123521C022AEBD3E9
:1052F000022A01D069B904E04BB9022907D0122073
:10530000F0BD05EB02108089B0F5807F01D0002050
:10531000F0BD1020F0BD0000F06D022030B500217E
:10532000054B0C4603EB01121568854200D1146051
:10533000491C0229F6D330BDF06D02200268490AEB
:10534000C06A5289B1FBF2F1001D04C81AB1914242
:1053500003D3891AF8E700207047006808447047B3
:105360004269891E921E8A4201D800207047826AD3
:10537000408901FB0020704710B5002206E08C5CDC
:10538000A34201D0002010BD521CD2B2835C002B7E
:10539000F5D1881810BD2DE9F04105680F00804651
:1053A00006D000F0DDFE022809D20120BDE8F08120
:1053B000EE6816B16869B04207D8012605E0411CC5
:1053C000F4D069698142F1D83E4634466869641C6C
:1053D000A04202D80224022E0AD32146404600F001
:1053E000BFFE38B10128E1D0411CDFD0B442EDD17D
:1053F0000020DBE74FF0FF3632462146284601F019
:105400007BFD30B957B122463946284601F074FD7C
:1054100020B101280FD001242046C7E7EC60D5E970
:105420000401891E884201D8401E2861287940F075
:1054300001002871F0E73446EEE700002DE9F04165
:105440000E4624300D6804460B22202101F0EAFCB0
:105450000020014608272A5C401C202A12D92F2A46
:105460000BD05C2A09D02E2A01D0B94214D30B2FBD
:1054700022D02E2A20D10CE0401C2B5C2F2BFBD0FD
:105480005C2BF9D028443060B1B12078E5281FD0DA
:1054900020E008210B27DEE7802A03D3114B1A44B2
:1054A00012F8802C10A300E05B1C93F800C0BCF144
:1054B000000F04D09445F7D10620BDE8F081A2F199
:1054C0006103192B01D8203AD2B26254491CC2E7B9
:1054D00005202070202A01D8042000E00020E0727E
:1054E0000020EAE728720008222A2B2C3A3B3C3D98
:1054F0003E3F5B5D7C7F0000401E022812D20A49BD
:1055000001EB00118889B0F5807F05D008B1401EFD
:1055100080B2888110B103E00020FAE70020086023
:105520000020704702207047F06D02202DE9F04105
:1055300004460021056800F0D8F8002826D1284646
:10554000E16901F076FC02001FD1206A017899B16F
:10555000C17A01F03F01A171C17A09070FD404F1AA
:1055600024010B2610F8013B11F8017BDB1B761E92
:1055700004D0002BF6D002E0042206E02BB100217B
:10558000204600F005F80200D9D01046BDE8F081B1
:105590002DE9F047054647690468C0698946203708
:1055A00010B1B7F5001F02D30420BDE8F087F9055C
:1055B00060D1401CE861A9694FF0000829B16089F9
:1055C000401E10EA572F05D054E02089B0EB571F3A
:1055D0001DD94FE0284600F0C3FD064601281BD91F
:1055E000701C33D06069B0423ED8B9F1000F0ED0C4
:1055F0002846A969FFF7CFFE06000BD0012E0BD07D
:10560000701C23D0204601F0B3FDF8B906E0C5F8C0
:105610001C80C9E70720C8E70220C6E74FF40072E4
:10562000002104F1300001F0FDFB4FF0000831468D
:105630002046FFF795FE4FF00109E0620DE000BF44
:1056400084F80390204601F093FD08B10120ACE7F7
:10565000E06A08F10108401CE06261894145EFD829
:10566000E16AA1EB0800E06231462046AE61FFF737
:1056700077FEE861C7F30800204430306F6128628C
:10568000002092E770B504460021066800F02DF86E
:105690000DE03046E16901F0CCFB50B9206A00789A
:1056A000E52809D040B101212046FFF771FF00280D
:1056B000EFD0042807D007E03046E16901F0B9FBDC
:1056C000050003D00FE0072005460CE02022002152
:1056D000206A01F0A7FB0B2204F12401206A01F0EB
:1056E00097FB0120F070284670BD2DE9F041076856
:1056F0000E460546B1F5001F36D2F00634D16E6174
:10570000AC6824B93878032805D37C6A1CB1788941
:105710004FEA402812E03889B0EB561F24D9786A46
:1057200012E0284600F01CFD0446401C1AD0022C52
:105730001AD37869A04217D9A6EB08064645214638
:10574000EFD23846FFF70CFEC5E9064060B100EB2A
:105750005620E861C6F30800384430302862002043
:10576000BDE8F0810120FBE70220F9E7084910B508
:105770000B5C002253B901220A540A1801EB800085
:10578000127A40680168104688470246104610BDEC
:10579000106E022030B4054C231804EB80001B7AF5
:1057A000406804691846A44630BC6047106E022069
:1057B00030B4054D2C1805EB8000247A40688568CC
:1057C0002046AC4630BC6047106E0220044A1118D7
:1057D00002EB8000097A40684268084610470000E2
:1057E000106E022030B4054D2C1805EB8000247A91
:1057F0004068C5682046AC4630BC6047106E022049
:1058000038B5044600F0F5FA00280CD16946204668
:1058100001F0D7FC002806D12069FFF76DFE0028B3
:1058200001D10021216038BD2DE9FE4F0D4604460F
:10583000694601F0C6FC070064D1677D002FFBD1EB
:10584000E06A4FF0020A4FF0010804F1300B002823
:105850006AD0691C29D0E068A84200D20546A5613B
:10586000002D4FD02046691EFFF768FD0146E0611C
:105870000098FFF775FD002875D000996D1E4A89C4
:10588000521E02EA55221518208BC005E9D0226A63
:10589000AA42E6D0207D00063BD548780123594630
:1058A000FFF7A0FF00286ED12FE002C80191A16888
:1058B00083460225F1B10026AD1C0291894620469F
:1058C000761C00F04DFC014601284CD9481C5AD0EA
:1058D00009F101008142F1D00198854206D8CBF848
:1058E00000600BF10400029A04C0834600984069EE
:1058F0008842E0D8E06A05600198854203D800211B
:10590000CBF8001097E0112795E0207D00F07F0094
:105910002075009801232A4640785946FFF748FF32
:10592000002830D1256286E0E068A84203D2217DBC
:10593000890700D405464FF00009A069C4F8189003
:1059400005B3009949894E0270B1691EB1FBF6F2A8
:10595000401EB0FBF6F18A4206D3711E8843A06157
:105960002D1AE1690DE04FE0A16849B900212046F8
:10597000FFF711FD0146012846D0481C55D0A16013
:10598000E161D9B927E050E0A069AD1B3044A061C6
:10599000207D8007204605D5FFF7FDFC010004D1DE
:1059A00000250DE000F0DCFB0146481C3DD001293C
:1059B0002AD900984069884226D9E161B542E3D8E6
:1059C000A0692844A061E80505D00098FFF7C8FC4D
:1059D000D0B100EB5529E168A069884204D9E060A4
:1059E000217D41F040012175C00524D0226A4A453D
:1059F00021D0207D000610D500980123594640781B
:105A0000FFF7F0FE88B904E084F815A00220BDE895
:105A1000FE8F207D00F07F002075009801234A460C
:105A200040785946FFF7C4FE18B184F8158001206C
:105A3000EDE7C4F820903846E9E700002DE9F7418A
:105A400081B0904602980090684600F0EAFB04009E
:105A500003D50B2004B0BDE8F0810D4E002756F8A9
:105A600024501DB12846FFF759FC2F7001980028DB
:105A700000D0077046F8240002D0B8F1010F01D021
:105A80000020E7E7002201A902A800F0F9F9E1E708
:105A9000400000202DE9F74392B005000BD002F042
:105AA0003F063246694613A800F0EAF904004FF0B9
:105AB000000804D0ECE0092015B0BDE8F0830098A0
:105AC000049004A8139900F005FB04000ED19DF882
:105AD0003F00000601D5062408E0700801D001212E
